{
  "_format": "hh-sol-artifact-1",
  "contractName": "MockV3Aggregator",
  "sourceName": "src/mocks/oracle/MockV3Aggregator.sol",
  "abi": [
    {
      "inputs": [
        {
          "internalType": "uint8",
          "name": "_decimals",
          "type": "uint8"
        },
        {
          "internalType": "int256",
          "name": "_initialAnswer",
          "type": "int256"
        }
      ],
      "stateMutability": "nonpayable",
      "type": "constructor"
    },
    {
      "inputs": [],
      "name": "decimals",
      "outputs": [
        {
          "internalType": "uint8",
          "name": "",
          "type": "uint8"
        }
      ],
      "stateMutability": "view",
      "type": "function"
    },
    {
      "inputs": [],
      "name": "description",
      "outputs": [
        {
          "internalType": "string",
          "name": "",
          "type": "string"
        }
      ],
      "stateMutability": "pure",
      "type": "function"
    },
    {
      "inputs": [
        {
          "internalType": "uint256",
          "name": "",
          "type": "uint256"
        }
      ],
      "name": "getAnswer",
      "outputs": [
        {
          "internalType": "int256",
          "name": "",
          "type": "int256"
        }
      ],
      "stateMutability": "view",
      "type": "function"
    },
    {
      "inputs": [
        {
          "internalType": "uint80",
          "name": "_roundId",
          "type": "uint80"
        }
      ],
      "name": "getRoundData",
      "outputs": [
        {
          "internalType": "uint80",
          "name": "roundId",
          "type": "uint80"
        },
        {
          "internalType": "int256",
          "name": "answer",
          "type": "int256"
        },
        {
          "internalType": "uint256",
          "name": "startedAt",
          "type": "uint256"
        },
        {
          "internalType": "uint256",
          "name": "updatedAt",
          "type": "uint256"
        },
        {
          "internalType": "uint80",
          "name": "answeredInRound",
          "type": "uint80"
        }
      ],
      "stateMutability": "view",
      "type": "function"
    },
    {
      "inputs": [
        {
          "internalType": "uint256",
          "name": "",
          "type": "uint256"
        }
      ],
      "name": "getTimestamp",
      "outputs": [
        {
          "internalType": "uint256",
          "name": "",
          "type": "uint256"
        }
      ],
      "stateMutability": "view",
      "type": "function"
    },
    {
      "inputs": [],
      "name": "latestAnswer",
      "outputs": [
        {
          "internalType": "int256",
          "name": "",
          "type": "int256"
        }
      ],
      "stateMutability": "view",
      "type": "function"
    },
    {
      "inputs": [],
      "name": "latestRound",
      "outputs": [
        {
          "internalType": "uint256",
          "name": "",
          "type": "uint256"
        }
      ],
      "stateMutability": "view",
      "type": "function"
    },
    {
      "inputs": [],
      "name": "latestRoundData",
      "outputs": [
        {
          "internalType": "uint80",
          "name": "roundId",
          "type": "uint80"
        },
        {
          "internalType": "int256",
          "name": "answer",
          "type": "int256"
        },
        {
          "internalType": "uint256",
          "name": "startedAt",
          "type": "uint256"
        },
        {
          "internalType": "uint256",
          "name": "updatedAt",
          "type": "uint256"
        },
        {
          "internalType": "uint80",
          "name": "answeredInRound",
          "type": "uint80"
        }
      ],
      "stateMutability": "view",
      "type": "function"
    },
    {
      "inputs": [],
      "name": "latestTimestamp",
      "outputs": [
        {
          "internalType": "uint256",
          "name": "",
          "type": "uint256"
        }
      ],
      "stateMutability": "view",
      "type": "function"
    },
    {
      "inputs": [],
      "name": "test",
      "outputs": [],
      "stateMutability": "nonpayable",
      "type": "function"
    },
    {
      "inputs": [
        {
          "internalType": "int256",
          "name": "_answer",
          "type": "int256"
        }
      ],
      "name": "updateAnswer",
      "outputs": [],
      "stateMutability": "nonpayable",
      "type": "function"
    },
    {
      "inputs": [
        {
          "internalType": "uint80",
          "name": "_roundId",
          "type": "uint80"
        },
        {
          "internalType": "int256",
          "name": "_answer",
          "type": "int256"
        },
        {
          "internalType": "uint256",
          "name": "_timestamp",
          "type": "uint256"
        },
        {
          "internalType": "uint256",
          "name": "_startedAt",
          "type": "uint256"
        }
      ],
      "name": "updateRoundData",
      "outputs": [],
      "stateMutability": "nonpayable",
      "type": "function"
    },
    {
      "inputs": [],
      "name": "version",
      "outputs": [
        {
          "internalType": "uint256",
          "name": "",
          "type": "uint256"
        }
      ],
      "stateMutability": "view",
      "type": "function"
    }
  ],
  "bytecode": "0x608060405234801561001057600080fd5b5060405161056338038061056383398101604081905261002f916100a4565b6000805460ff191660ff84161790556100478161004e565b50506100ff565b60018190554260025560038054906000610067836100d8565b9091555050600380546000908152600460209081526040808320949094558254825260058152838220429081905592548252600690529190912055565b600080604083850312156100b757600080fd5b825160ff811681146100c857600080fd5b6020939093015192949293505050565b6000600182016100f857634e487b7160e01b600052601160045260246000fd5b5060010190565b6104558061010e6000396000f3fe608060405234801561001057600080fd5b50600436106100cf5760003560e01c80638205bf6a1161008c578063b5ab58dc11610066578063b5ab58dc14610256578063b633620c14610276578063f8a8fd6d14610153578063feaf968c1461029657600080fd5b80638205bf6a146101bc5780639a6fc8f5146101c5578063a87a20ce1461024357600080fd5b8063313ce567146100d45780634aa2011f146100f857806350d25bcd1461015557806354fd4d501461016c578063668a0f02146101745780637284e4161461017d575b600080fd5b6000546100e19060ff1681565b60405160ff90911681526020015b60405180910390f35b610153610106366004610336565b69ffffffffffffffffffff90931660038181556001849055600283905560009182526004602090815260408084209590955581548352600581528483209390935554815260069091522055565b005b61015e60015481565b6040519081526020016100ef565b61015e600081565b61015e60035481565b604080518082018252601f81527f76302e362f74657374732f4d6f636b563341676772656761746f722e736f6c00602082015290516100ef919061036f565b61015e60025481565b61020c6101d33660046103bd565b69ffffffffffffffffffff8116600090815260046020908152604080832054600683528184205460059093529220549293919290918490565b6040805169ffffffffffffffffffff968716815260208101959095528401929092526060830152909116608082015260a0016100ef565b6101536102513660046103df565b6102c1565b61015e6102643660046103df565b60046020526000908152604090205481565b61015e6102843660046103df565b60056020526000908152604090205481565b600354600081815260046020908152604080832054600683528184205460059093529220548361020c565b600181905542600255600380549060006102da836103f8565b9091555050600380546000908152600460209081526040808320949094558254825260058152838220429081905592548252600690529190912055565b803569ffffffffffffffffffff8116811461033157600080fd5b919050565b6000806000806080858703121561034c57600080fd5b61035585610317565b966020860135965060408601359560600135945092505050565b600060208083528351808285015260005b8181101561039c57858101830151858201604001528201610380565b506000604082860101526040601f19601f8301168501019250505092915050565b6000602082840312156103cf57600080fd5b6103d882610317565b9392505050565b6000602082840312156103f157600080fd5b5035919050565b60006001820161041857634e487b7160e01b600052601160045260246000fd5b506001019056fea26469706673582212202946e3f332a33a11716bace38635ad73e2d0c3653d564171ee2608f9a332fc2d64736f6c63430008120033",
  "linkReferences": {},
  "deployedLinkReferences": {}
}