{
  "_format": "hh-sol-artifact-1",
  "contractName": "BurnPoolV2",
  "sourceName": "src/mocks/utils/BurnPoolV2.test.sol",
  "abi": [
    {
      "inputs": [],
      "name": "AmountRequestedIsZero",
      "type": "error"
    },
    {
      "inputs": [],
      "name": "DeviceWasNotOnboarded",
      "type": "error"
    },
    {
      "inputs": [],
      "name": "SenderAllowanceIsNotEnough",
      "type": "error"
    },
    {
      "anonymous": false,
      "inputs": [
        {
          "indexed": false,
          "internalType": "address",
          "name": "previousAdmin",
          "type": "address"
        },
        {
          "indexed": false,
          "internalType": "address",
          "name": "newAdmin",
          "type": "address"
        }
      ],
      "name": "AdminChanged",
      "type": "event"
    },
    {
      "anonymous": false,
      "inputs": [
        {
          "indexed": true,
          "internalType": "address",
          "name": "beacon",
          "type": "address"
        }
      ],
      "name": "BeaconUpgraded",
      "type": "event"
    },
    {
      "anonymous": false,
      "inputs": [
        {
          "indexed": false,
          "internalType": "address",
          "name": "from",
          "type": "address"
        },
        {
          "indexed": false,
          "internalType": "uint256",
          "name": "amount",
          "type": "uint256"
        },
        {
          "indexed": false,
          "internalType": "int256",
          "name": "price",
          "type": "int256"
        },
        {
          "indexed": false,
          "internalType": "uint256",
          "name": "timeStamp",
          "type": "uint256"
        },
        {
          "indexed": false,
          "internalType": "string",
          "name": "service",
          "type": "string"
        }
      ],
      "name": "BurnedForService",
      "type": "event"
    },
    {
      "anonymous": false,
      "inputs": [
        {
          "indexed": false,
          "internalType": "address",
          "name": "from",
          "type": "address"
        },
        {
          "indexed": false,
          "internalType": "uint256",
          "name": "amount",
          "type": "uint256"
        },
        {
          "indexed": false,
          "internalType": "int256",
          "name": "price",
          "type": "int256"
        },
        {
          "indexed": false,
          "internalType": "uint256",
          "name": "timeStamp",
          "type": "uint256"
        }
      ],
      "name": "BurnedOnboardingFee",
      "type": "event"
    },
    {
      "anonymous": false,
      "inputs": [
        {
          "indexed": false,
          "internalType": "uint8",
          "name": "version",
          "type": "uint8"
        }
      ],
      "name": "Initialized",
      "type": "event"
    },
    {
      "anonymous": false,
      "inputs": [
        {
          "indexed": false,
          "internalType": "address",
          "name": "account",
          "type": "address"
        }
      ],
      "name": "Paused",
      "type": "event"
    },
    {
      "anonymous": false,
      "inputs": [
        {
          "indexed": true,
          "internalType": "bytes32",
          "name": "role",
          "type": "bytes32"
        },
        {
          "indexed": true,
          "internalType": "bytes32",
          "name": "previousAdminRole",
          "type": "bytes32"
        },
        {
          "indexed": true,
          "internalType": "bytes32",
          "name": "newAdminRole",
          "type": "bytes32"
        }
      ],
      "name": "RoleAdminChanged",
      "type": "event"
    },
    {
      "anonymous": false,
      "inputs": [
        {
          "indexed": true,
          "internalType": "bytes32",
          "name": "role",
          "type": "bytes32"
        },
        {
          "indexed": true,
          "internalType": "address",
          "name": "account",
          "type": "address"
        },
        {
          "indexed": true,
          "internalType": "address",
          "name": "sender",
          "type": "address"
        }
      ],
      "name": "RoleGranted",
      "type": "event"
    },
    {
      "anonymous": false,
      "inputs": [
        {
          "indexed": true,
          "internalType": "bytes32",
          "name": "role",
          "type": "bytes32"
        },
        {
          "indexed": true,
          "internalType": "address",
          "name": "account",
          "type": "address"
        },
        {
          "indexed": true,
          "internalType": "address",
          "name": "sender",
          "type": "address"
        }
      ],
      "name": "RoleRevoked",
      "type": "event"
    },
    {
      "anonymous": false,
      "inputs": [
        {
          "indexed": false,
          "internalType": "address",
          "name": "account",
          "type": "address"
        }
      ],
      "name": "Unpaused",
      "type": "event"
    },
    {
      "anonymous": false,
      "inputs": [
        {
          "indexed": true,
          "internalType": "address",
          "name": "implementation",
          "type": "address"
        }
      ],
      "name": "Upgraded",
      "type": "event"
    },
    {
      "inputs": [],
      "name": "DEFAULT_ADMIN_ROLE",
      "outputs": [
        {
          "internalType": "bytes32",
          "name": "",
          "type": "bytes32"
        }
      ],
      "stateMutability": "view",
      "type": "function"
    },
    {
      "inputs": [],
      "name": "MANUFACTURER_ROLE",
      "outputs": [
        {
          "internalType": "bytes32",
          "name": "",
          "type": "bytes32"
        }
      ],
      "stateMutability": "view",
      "type": "function"
    },
    {
      "inputs": [],
      "name": "UPGRADER_ROLE",
      "outputs": [
        {
          "internalType": "bytes32",
          "name": "",
          "type": "bytes32"
        }
      ],
      "stateMutability": "view",
      "type": "function"
    },
    {
      "inputs": [
        {
          "internalType": "uint256",
          "name": "amountWXM",
          "type": "uint256"
        },
        {
          "internalType": "string",
          "name": "service",
          "type": "string"
        }
      ],
      "name": "burnForService",
      "outputs": [],
      "stateMutability": "nonpayable",
      "type": "function"
    },
    {
      "inputs": [
        {
          "internalType": "uint256",
          "name": "amount",
          "type": "uint256"
        },
        {
          "internalType": "string",
          "name": "uri",
          "type": "string"
        }
      ],
      "name": "burnOnboardingFee",
      "outputs": [
        {
          "internalType": "bool",
          "name": "",
          "type": "bool"
        }
      ],
      "stateMutability": "nonpayable",
      "type": "function"
    },
    {
      "inputs": [
        {
          "internalType": "bytes32",
          "name": "role",
          "type": "bytes32"
        }
      ],
      "name": "getRoleAdmin",
      "outputs": [
        {
          "internalType": "bytes32",
          "name": "",
          "type": "bytes32"
        }
      ],
      "stateMutability": "view",
      "type": "function"
    },
    {
      "inputs": [
        {
          "internalType": "bytes32",
          "name": "role",
          "type": "bytes32"
        },
        {
          "internalType": "uint256",
          "name": "index",
          "type": "uint256"
        }
      ],
      "name": "getRoleMember",
      "outputs": [
        {
          "internalType": "address",
          "name": "",
          "type": "address"
        }
      ],
      "stateMutability": "view",
      "type": "function"
    },
    {
      "inputs": [
        {
          "internalType": "bytes32",
          "name": "role",
          "type": "bytes32"
        }
      ],
      "name": "getRoleMemberCount",
      "outputs": [
        {
          "internalType": "uint256",
          "name": "",
          "type": "uint256"
        }
      ],
      "stateMutability": "view",
      "type": "function"
    },
    {
      "inputs": [
        {
          "internalType": "bytes32",
          "name": "role",
          "type": "bytes32"
        },
        {
          "internalType": "address",
          "name": "account",
          "type": "address"
        }
      ],
      "name": "grantRole",
      "outputs": [],
      "stateMutability": "nonpayable",
      "type": "function"
    },
    {
      "inputs": [
        {
          "internalType": "bytes32",
          "name": "role",
          "type": "bytes32"
        },
        {
          "internalType": "address",
          "name": "account",
          "type": "address"
        }
      ],
      "name": "hasRole",
      "outputs": [
        {
          "internalType": "bool",
          "name": "",
          "type": "bool"
        }
      ],
      "stateMutability": "view",
      "type": "function"
    },
    {
      "inputs": [
        {
          "internalType": "address",
          "name": "_token",
          "type": "address"
        },
        {
          "internalType": "address",
          "name": "_data",
          "type": "address"
        },
        {
          "internalType": "address",
          "name": "_weatherstation",
          "type": "address"
        },
        {
          "internalType": "address",
          "name": "_priceconsumer",
          "type": "address"
        }
      ],
      "name": "initialize",
      "outputs": [],
      "stateMutability": "nonpayable",
      "type": "function"
    },
    {
      "inputs": [],
      "name": "pause",
      "outputs": [],
      "stateMutability": "nonpayable",
      "type": "function"
    },
    {
      "inputs": [],
      "name": "paused",
      "outputs": [
        {
          "internalType": "bool",
          "name": "",
          "type": "bool"
        }
      ],
      "stateMutability": "view",
      "type": "function"
    },
    {
      "inputs": [],
      "name": "priceFeed",
      "outputs": [
        {
          "internalType": "contract IPriceFeedConsumer",
          "name": "",
          "type": "address"
        }
      ],
      "stateMutability": "view",
      "type": "function"
    },
    {
      "inputs": [],
      "name": "proxiableUUID",
      "outputs": [
        {
          "internalType": "bytes32",
          "name": "",
          "type": "bytes32"
        }
      ],
      "stateMutability": "view",
      "type": "function"
    },
    {
      "inputs": [
        {
          "internalType": "bytes32",
          "name": "role",
          "type": "bytes32"
        },
        {
          "internalType": "address",
          "name": "account",
          "type": "address"
        }
      ],
      "name": "renounceRole",
      "outputs": [],
      "stateMutability": "nonpayable",
      "type": "function"
    },
    {
      "inputs": [
        {
          "internalType": "bytes32",
          "name": "role",
          "type": "bytes32"
        },
        {
          "internalType": "address",
          "name": "account",
          "type": "address"
        }
      ],
      "name": "revokeRole",
      "outputs": [],
      "stateMutability": "nonpayable",
      "type": "function"
    },
    {
      "inputs": [
        {
          "internalType": "bytes4",
          "name": "interfaceId",
          "type": "bytes4"
        }
      ],
      "name": "supportsInterface",
      "outputs": [
        {
          "internalType": "bool",
          "name": "",
          "type": "bool"
        }
      ],
      "stateMutability": "view",
      "type": "function"
    },
    {
      "inputs": [],
      "name": "test",
      "outputs": [],
      "stateMutability": "nonpayable",
      "type": "function"
    },
    {
      "inputs": [],
      "name": "unpause",
      "outputs": [],
      "stateMutability": "nonpayable",
      "type": "function"
    },
    {
      "inputs": [
        {
          "internalType": "address",
          "name": "newImplementation",
          "type": "address"
        }
      ],
      "name": "upgradeTo",
      "outputs": [],
      "stateMutability": "nonpayable",
      "type": "function"
    },
    {
      "inputs": [
        {
          "internalType": "address",
          "name": "newImplementation",
          "type": "address"
        },
        {
          "internalType": "bytes",
          "name": "data",
          "type": "bytes"
        }
      ],
      "name": "upgradeToAndCall",
      "outputs": [],
      "stateMutability": "payable",
      "type": "function"
    },
    {
      "inputs": [],
      "name": "version",
      "outputs": [
        {
          "internalType": "string",
          "name": "",
          "type": "string"
        }
      ],
      "stateMutability": "pure",
      "type": "function"
    }
  ],
  "bytecode": "0x60a06040523060805234801561001457600080fd5b5061001d610022565b6100e2565b600054610100900460ff161561008e5760405162461bcd60e51b815260206004820152602760248201527f496e697469616c697a61626c653a20636f6e747261637420697320696e697469604482015266616c697a696e6760c81b606482015260840160405180910390fd5b60005460ff90811610156100e0576000805460ff191660ff9081179091556040519081527f7f26b83ff96e1f2b6a682f133852f6798a09c465da95921460cefb38474024989060200160405180910390a15b565b6080516120226101196000396000818161053a0152818161057a0152818161062c0152818161066c01526106fb01526120226000f3fe6080604052600436106101405760003560e01c8063741bef1a116100b6578063ca15c8731161006f578063ca15c87314610398578063d547741f146103b8578063f72c0d8b146103d8578063f89039391461040c578063f8a8fd6d1461042c578063f8c8765e1461043857600080fd5b8063741bef1a146102c15780638456cb59146102fa5780639010d07c1461030f57806391d148541461032f578063965288b01461034f578063a217fddf1461038357600080fd5b80633f4ba83a116101085780633f4ba83a1461021a5780634f1ef2861461022f57806352d1902d1461024257806354fd4d50146102575780635c975abb1461028857806371d753c4146102a157600080fd5b806301ffc9a714610145578063248a9ca31461017a5780632f2ff15d146101b857806336568abe146101da5780633659cfe6146101fa575b600080fd5b34801561015157600080fd5b50610165610160366004611a34565b610458565b60405190151581526020015b60405180910390f35b34801561018657600080fd5b506101aa610195366004611a5e565b600090815260fb602052604090206001015490565b604051908152602001610171565b3480156101c457600080fd5b506101d86101d3366004611a93565b610483565b005b3480156101e657600080fd5b506101d86101f5366004611a93565b6104ad565b34801561020657600080fd5b506101d8610215366004611abf565b610530565b34801561022657600080fd5b506101d861060f565b6101d861023d366004611b66565b610622565b34801561024e57600080fd5b506101aa6106ee565b34801561026357600080fd5b5060408051808201825260028152612b1960f11b602082015290516101719190611c18565b34801561029457600080fd5b5061015f5460ff16610165565b3480156102ad57600080fd5b506101d86102bc366004611c2b565b6107a1565b3480156102cd57600080fd5b50610191546102e2906001600160a01b031681565b6040516001600160a01b039091168152602001610171565b34801561030657600080fd5b506101d86109ab565b34801561031b57600080fd5b506102e261032a366004611c5c565b6109be565b34801561033b57600080fd5b5061016561034a366004611a93565b6109de565b34801561035b57600080fd5b506101aa7feefb95e842a3287179d933b4460be539a1d5af11aa8b325bb45c5c8dc92de4ed81565b34801561038f57600080fd5b506101aa600081565b3480156103a457600080fd5b506101aa6103b3366004611a5e565b610a09565b3480156103c457600080fd5b506101d86103d3366004611a93565b610a21565b3480156103e457600080fd5b506101aa7f189ab7a9244df0848122154315af71fe140f3db0fe014031783b0946b8c9d2e381565b34801561041857600080fd5b50610165610427366004611c2b565b610a46565b3480156101d857600080fd5b34801561044457600080fd5b506101d8610453366004611c7e565b610d25565b60006001600160e01b03198216635a05180f60e01b148061047d575061047d82610ed5565b92915050565b600082815260fb602052604090206001015461049e81610f0a565b6104a88383610f14565b505050565b6001600160a01b03811633146105225760405162461bcd60e51b815260206004820152602f60248201527f416363657373436f6e74726f6c3a2063616e206f6e6c792072656e6f756e636560448201526e103937b632b9903337b91039b2b63360891b60648201526084015b60405180910390fd5b61052c8282610f37565b5050565b6001600160a01b037f00000000000000000000000000000000000000000000000000000000000000001630036105785760405162461bcd60e51b815260040161051990611cd2565b7f00000000000000000000000000000000000000000000000000000000000000006001600160a01b03166105c1600080516020611fa6833981519152546001600160a01b031690565b6001600160a01b0316146105e75760405162461bcd60e51b815260040161051990611d1e565b6105f081610f5a565b6040805160008082526020820190925261060c91839190610f84565b50565b600061061a81610f0a565b61060c6110ef565b6001600160a01b037f000000000000000000000000000000000000000000000000000000000000000016300361066a5760405162461bcd60e51b815260040161051990611cd2565b7f00000000000000000000000000000000000000000000000000000000000000006001600160a01b03166106b3600080516020611fa6833981519152546001600160a01b031690565b6001600160a01b0316146106d95760405162461bcd60e51b815260040161051990611d1e565b6106e282610f5a565b61052c82826001610f84565b6000306001600160a01b037f0000000000000000000000000000000000000000000000000000000000000000161461078e5760405162461bcd60e51b815260206004820152603860248201527f555550535570677261646561626c653a206d757374206e6f742062652063616c60448201527f6c6564207468726f7567682064656c656761746563616c6c00000000000000006064820152608401610519565b50600080516020611fa683398151915290565b6107a9611142565b6107b1611189565b6101915460408051638e15f47360e01b8152815160009384936001600160a01b0390911692638e15f47392600480830193928290030181865afa1580156107fc573d6000803e3d6000fd5b505050506040513d601f19601f820116820180604052508101906108209190611d6a565b91509150836000036108455760405163f4bb5e6160e01b815260040160405180910390fd5b6101925484906001600160a01b031663dd62ed3e336040516001600160e01b031960e084901b1681526001600160a01b039091166004820152306024820152604401602060405180830381865afa1580156108a4573d6000803e3d6000fd5b505050506040513d601f19601f820116820180604052508101906108c89190611d8e565b10156108e757604051630eda104560e11b815260040160405180910390fd5b610192546001600160a01b03166379cc6790336040516001600160e01b031960e084901b1681526001600160a01b03909116600482015260248101879052604401600060405180830381600087803b15801561094257600080fd5b505af1158015610956573d6000803e3d6000fd5b505050507f35df423df19185bd19ff8955c9a4870044391b8510fdd9054009fd9ef1c6d7626109823390565b85848487604051610997959493929190611da7565b60405180910390a1505061052c6001606555565b60006109b681610f0a565b61060c6111e9565b600082815261012d602052604081206109d79083611227565b9392505050565b600091825260fb602090815260408084206001600160a01b0393909316845291905290205460ff1690565b600081815261012d6020526040812061047d90611233565b600082815260fb6020526040902060010154610a3c81610f0a565b6104a88383610f37565b60007feefb95e842a3287179d933b4460be539a1d5af11aa8b325bb45c5c8dc92de4ed610a7281610f0a565b610a7a611142565b610a82611189565b6101915460408051638e15f47360e01b8152815160009384936001600160a01b0390911692638e15f47392600480830193928290030181865afa158015610acd573d6000803e3d6000fd5b505050506040513d601f19601f82011682018060405250810190610af19190611d6a565b9150915085600003610b165760405163f4bb5e6160e01b815260040160405180910390fd5b6101925486906001600160a01b031663dd62ed3e336040516001600160e01b031960e084901b1681526001600160a01b039091166004820152306024820152604401602060405180830381865afa158015610b75573d6000803e3d6000fd5b505050506040513d601f19601f82011682018060405250810190610b999190611d8e565b1015610bb857604051630eda104560e11b815260040160405180910390fd5b610192546001600160a01b03166379cc6790336040516001600160e01b031960e084901b1681526001600160a01b03909116600482015260248101899052604401600060405180830381600087803b158015610c1357600080fd5b505af1158015610c27573d6000803e3d6000fd5b50506101945460405163e13ec61b60e01b8152600093506001600160a01b03909116915063e13ec61b90610c619033908a90600401611de5565b6020604051808303816000875af1158015610c80573d6000803e3d6000fd5b505050506040513d601f19601f82011682018060405250810190610ca49190611e11565b905080610cc457604051633578ff3b60e11b815260040160405180910390fd5b60408051338152602081018990528082018590526060810184905290517fec0ef94615d08ec5e80f2d264db0b7b64b9b49fbe40ea3017f73c730d04e6e539181900360800190a160019450505050610d1c6001606555565b5092915050565b565b600054610100900460ff1615808015610d455750600054600160ff909116105b80610d5f5750303b158015610d5f575060005460ff166001145b610dc25760405162461bcd60e51b815260206004820152602e60248201527f496e697469616c697a61626c653a20636f6e747261637420697320616c72656160448201526d191e481a5b9a5d1a585b1a5e995960921b6064820152608401610519565b6000805460ff191660011790558015610de5576000805461ff0019166101001790555b610ded61123d565b610df561123d565b610dfd611264565b610e05611293565b610e106000336112c2565b610e3a7f189ab7a9244df0848122154315af71fe140f3db0fe014031783b0946b8c9d2e3336112c2565b61019180546001600160a01b038085166001600160a01b031992831617909255610192805488841690831617905561019380548784169083161790556101948054928616929091169190911790558015610ece576000805461ff0019169055604051600181527f7f26b83ff96e1f2b6a682f133852f6798a09c465da95921460cefb38474024989060200160405180910390a15b5050505050565b60006001600160e01b03198216637965db0b60e01b148061047d57506301ffc9a760e01b6001600160e01b031983161461047d565b61060c81336112cc565b610f1e8282611325565b600082815261012d602052604090206104a890826113ab565b610f4182826113c0565b600082815261012d602052604090206104a89082611427565b7f189ab7a9244df0848122154315af71fe140f3db0fe014031783b0946b8c9d2e361052c81610f0a565b7f4910fdfa16fed3260ed0e7147f7cc6da11a60208b5b9406d12a635614ffd91435460ff1615610fb7576104a88361143c565b826001600160a01b03166352d1902d6040518163ffffffff1660e01b8152600401602060405180830381865afa925050508015611011575060408051601f3d908101601f1916820190925261100e91810190611d8e565b60015b6110745760405162461bcd60e51b815260206004820152602e60248201527f45524331393637557067726164653a206e657720696d706c656d656e7461746960448201526d6f6e206973206e6f74205555505360901b6064820152608401610519565b600080516020611fa683398151915281146110e35760405162461bcd60e51b815260206004820152602960248201527f45524331393637557067726164653a20756e737570706f727465642070726f786044820152681a58589b195555525160ba1b6064820152608401610519565b506104a88383836114d8565b6110f7611503565b61015f805460ff191690557f5db9ee0a495bf2e6ff9c91a7834c1ba4fdd244a5e8aa4e537bd38aeae4b073aa335b6040516001600160a01b03909116815260200160405180910390a1565b61015f5460ff1615610d235760405162461bcd60e51b815260206004820152601060248201526f14185d5cd8589b194e881c185d5cd95960821b6044820152606401610519565b6002606554036111db5760405162461bcd60e51b815260206004820152601f60248201527f5265656e7472616e637947756172643a207265656e7472616e742063616c6c006044820152606401610519565b6002606555565b6001606555565b6111f1611142565b61015f805460ff191660011790557f62e78cea01bee320cd4e420270b5ea74000d11b0c9f74754ebdbfc544b05a2586111253390565b60006109d7838361154d565b600061047d825490565b600054610100900460ff16610d235760405162461bcd60e51b815260040161051990611e33565b600054610100900460ff1661128b5760405162461bcd60e51b815260040161051990611e33565b610d23611577565b600054610100900460ff166112ba5760405162461bcd60e51b815260040161051990611e33565b610d236115ab565b61052c8282610f14565b6112d682826109de565b61052c576112e3816115d2565b6112ee8360206115e4565b6040516020016112ff929190611e7e565b60408051601f198184030181529082905262461bcd60e51b825261051991600401611c18565b61132f82826109de565b61052c57600082815260fb602090815260408083206001600160a01b03851684529091529020805460ff191660011790556113673390565b6001600160a01b0316816001600160a01b0316837f2f8788117e7eff1d82e926ec794901d17c78024a50270940304540a733656f0d60405160405180910390a45050565b60006109d7836001600160a01b038416611780565b6113ca82826109de565b1561052c57600082815260fb602090815260408083206001600160a01b0385168085529252808320805460ff1916905551339285917ff6391f5c32d9c69d2a47ea670b442974b53935d1edc7fd64eb21e047a839171b9190a45050565b60006109d7836001600160a01b0384166117cf565b6001600160a01b0381163b6114a95760405162461bcd60e51b815260206004820152602d60248201527f455243313936373a206e657720696d706c656d656e746174696f6e206973206e60448201526c1bdd08184818dbdb9d1c9858dd609a1b6064820152608401610519565b600080516020611fa683398151915280546001600160a01b0319166001600160a01b0392909216919091179055565b6114e1836118c2565b6000825111806114ee5750805b156104a8576114fd8383611902565b50505050565b61015f5460ff16610d235760405162461bcd60e51b815260206004820152601460248201527314185d5cd8589b194e881b9bdd081c185d5cd95960621b6044820152606401610519565b600082600001828154811061156457611564611ef3565b9060005260206000200154905092915050565b600054610100900460ff1661159e5760405162461bcd60e51b815260040161051990611e33565b61015f805460ff19169055565b600054610100900460ff166111e25760405162461bcd60e51b815260040161051990611e33565b606061047d6001600160a01b03831660145b606060006115f3836002611f1f565b6115fe906002611f36565b67ffffffffffffffff81111561161657611616611ada565b6040519080825280601f01601f191660200182016040528015611640576020820181803683370190505b509050600360fc1b8160008151811061165b5761165b611ef3565b60200101906001600160f81b031916908160001a905350600f60fb1b8160018151811061168a5761168a611ef3565b60200101906001600160f81b031916908160001a90535060006116ae846002611f1f565b6116b9906001611f36565b90505b6001811115611731576f181899199a1a9b1b9c1cb0b131b232b360811b85600f16601081106116ed576116ed611ef3565b1a60f81b82828151811061170357611703611ef3565b60200101906001600160f81b031916908160001a90535060049490941c9361172a81611f49565b90506116bc565b5083156109d75760405162461bcd60e51b815260206004820181905260248201527f537472696e67733a20686578206c656e67746820696e73756666696369656e746044820152606401610519565b60008181526001830160205260408120546117c75750815460018181018455600084815260208082209093018490558454848252828601909352604090209190915561047d565b50600061047d565b600081815260018301602052604081205480156118b85760006117f3600183611f60565b855490915060009061180790600190611f60565b905081811461186c57600086600001828154811061182757611827611ef3565b906000526020600020015490508087600001848154811061184a5761184a611ef3565b6000918252602080832090910192909255918252600188019052604090208390555b855486908061187d5761187d611f73565b60019003818190600052602060002001600090559055856001016000868152602001908152602001600020600090556001935050505061047d565b600091505061047d565b6118cb8161143c565b6040516001600160a01b038216907fbc7cd75a20ee27fd9adebab32041f755214dbc6bffa90cc0225b39da2e5c2d3b90600090a250565b60606001600160a01b0383163b61196a5760405162461bcd60e51b815260206004820152602660248201527f416464726573733a2064656c65676174652063616c6c20746f206e6f6e2d636f6044820152651b9d1c9858dd60d21b6064820152608401610519565b600080846001600160a01b0316846040516119859190611f89565b600060405180830381855af49150503d80600081146119c0576040519150601f19603f3d011682016040523d82523d6000602084013e6119c5565b606091505b50915091506119ed8282604051806060016040528060278152602001611fc6602791396119f6565b95945050505050565b60608315611a055750816109d7565b6109d78383815115611a1a5781518083602001fd5b8060405162461bcd60e51b81526004016105199190611c18565b600060208284031215611a4657600080fd5b81356001600160e01b0319811681146109d757600080fd5b600060208284031215611a7057600080fd5b5035919050565b80356001600160a01b0381168114611a8e57600080fd5b919050565b60008060408385031215611aa657600080fd5b82359150611ab660208401611a77565b90509250929050565b600060208284031215611ad157600080fd5b6109d782611a77565b634e487b7160e01b600052604160045260246000fd5b600067ffffffffffffffff80841115611b0b57611b0b611ada565b604051601f8501601f19908116603f01168101908282118183101715611b3357611b33611ada565b81604052809350858152868686011115611b4c57600080fd5b858560208301376000602087830101525050509392505050565b60008060408385031215611b7957600080fd5b611b8283611a77565b9150602083013567ffffffffffffffff811115611b9e57600080fd5b8301601f81018513611baf57600080fd5b611bbe85823560208401611af0565b9150509250929050565b60005b83811015611be3578181015183820152602001611bcb565b50506000910152565b60008151808452611c04816020860160208601611bc8565b601f01601f19169290920160200192915050565b6020815260006109d76020830184611bec565b60008060408385031215611c3e57600080fd5b82359150602083013567ffffffffffffffff811115611b9e57600080fd5b60008060408385031215611c6f57600080fd5b50508035926020909101359150565b60008060008060808587031215611c9457600080fd5b611c9d85611a77565b9350611cab60208601611a77565b9250611cb960408601611a77565b9150611cc760608601611a77565b905092959194509250565b6020808252602c908201527f46756e6374696f6e206d7573742062652063616c6c6564207468726f7567682060408201526b19195b1959d85d1958d85b1b60a21b606082015260800190565b6020808252602c908201527f46756e6374696f6e206d7573742062652063616c6c6564207468726f7567682060408201526b6163746976652070726f787960a01b606082015260800190565b60008060408385031215611d7d57600080fd5b505080516020909101519092909150565b600060208284031215611da057600080fd5b5051919050565b60018060a01b038616815284602082015283604082015282606082015260a060808201526000611dda60a0830184611bec565b979650505050505050565b6001600160a01b0383168152604060208201819052600090611e0990830184611bec565b949350505050565b600060208284031215611e2357600080fd5b815180151581146109d757600080fd5b6020808252602b908201527f496e697469616c697a61626c653a20636f6e7472616374206973206e6f74206960408201526a6e697469616c697a696e6760a81b606082015260800190565b7f416363657373436f6e74726f6c3a206163636f756e7420000000000000000000815260008351611eb6816017850160208801611bc8565b7001034b99036b4b9b9b4b733903937b6329607d1b6017918401918201528351611ee7816028840160208801611bc8565b01602801949350505050565b634e487b7160e01b600052603260045260246000fd5b634e487b7160e01b600052601160045260246000fd5b808202811582820484141761047d5761047d611f09565b8082018082111561047d5761047d611f09565b600081611f5857611f58611f09565b506000190190565b8181038181111561047d5761047d611f09565b634e487b7160e01b600052603160045260246000fd5b60008251611f9b818460208701611bc8565b919091019291505056fe360894a13ba1a3210667c828492db98dca3e2076cc3735a920a3ca505d382bbc416464726573733a206c6f772d6c6576656c2064656c65676174652063616c6c206661696c6564a2646970667358221220cb5ae9039b2120739127433dbad60ae56cdf507a323c4a4e8cfa682da921ebcf64736f6c63430008120033",
  "linkReferences": {},
  "deployedLinkReferences": {}
}