{
  "_format": "hh-sol-artifact-1",
  "contractName": "RewardPool",
  "sourceName": "src/RewardPool.sol",
  "abi": [
    {
      "inputs": [],
      "stateMutability": "nonpayable",
      "type": "constructor"
    },
    {
      "inputs": [],
      "name": "AmountIsOverAvailableRewardsToWithdraw",
      "type": "error"
    },
    {
      "inputs": [],
      "name": "AmountRequestedIsZero",
      "type": "error"
    },
    {
      "inputs": [],
      "name": "BalanceIsNotEnough",
      "type": "error"
    },
    {
      "inputs": [],
      "name": "CallerShouldNotBeThisContract",
      "type": "error"
    },
    {
      "inputs": [],
      "name": "NotEnoughRewards",
      "type": "error"
    },
    {
      "inputs": [],
      "name": "RewardsRateLimitingInEffect",
      "type": "error"
    },
    {
      "inputs": [],
      "name": "TargetAddressIsContractAddress",
      "type": "error"
    },
    {
      "inputs": [],
      "name": "TargetAddressIsZero",
      "type": "error"
    },
    {
      "inputs": [],
      "name": "TotalRewardsAreZero",
      "type": "error"
    },
    {
      "inputs": [],
      "name": "TransferFailed",
      "type": "error"
    },
    {
      "inputs": [],
      "name": "ZeroTokensToTransfer",
      "type": "error"
    },
    {
      "anonymous": false,
      "inputs": [
        {
          "indexed": false,
          "internalType": "address",
          "name": "previousAdmin",
          "type": "address"
        },
        {
          "indexed": false,
          "internalType": "address",
          "name": "newAdmin",
          "type": "address"
        }
      ],
      "name": "AdminChanged",
      "type": "event"
    },
    {
      "anonymous": false,
      "inputs": [
        {
          "indexed": true,
          "internalType": "address",
          "name": "beacon",
          "type": "address"
        }
      ],
      "name": "BeaconUpgraded",
      "type": "event"
    },
    {
      "anonymous": false,
      "inputs": [
        {
          "indexed": true,
          "internalType": "address",
          "name": "to",
          "type": "address"
        },
        {
          "indexed": false,
          "internalType": "uint256",
          "name": "amount",
          "type": "uint256"
        }
      ],
      "name": "BusinessDevTokensTransferred",
      "type": "event"
    },
    {
      "anonymous": false,
      "inputs": [
        {
          "indexed": true,
          "internalType": "address",
          "name": "account",
          "type": "address"
        },
        {
          "indexed": false,
          "internalType": "uint256",
          "name": "amount",
          "type": "uint256"
        }
      ],
      "name": "Claimed",
      "type": "event"
    },
    {
      "anonymous": false,
      "inputs": [
        {
          "indexed": true,
          "internalType": "address",
          "name": "to",
          "type": "address"
        },
        {
          "indexed": false,
          "internalType": "uint256",
          "name": "amount",
          "type": "uint256"
        }
      ],
      "name": "CompanyTokensTransferred",
      "type": "event"
    },
    {
      "anonymous": false,
      "inputs": [
        {
          "indexed": false,
          "internalType": "uint8",
          "name": "version",
          "type": "uint8"
        }
      ],
      "name": "Initialized",
      "type": "event"
    },
    {
      "anonymous": false,
      "inputs": [
        {
          "indexed": false,
          "internalType": "address",
          "name": "account",
          "type": "address"
        }
      ],
      "name": "Paused",
      "type": "event"
    },
    {
      "anonymous": false,
      "inputs": [
        {
          "indexed": true,
          "internalType": "bytes32",
          "name": "role",
          "type": "bytes32"
        },
        {
          "indexed": true,
          "internalType": "bytes32",
          "name": "previousAdminRole",
          "type": "bytes32"
        },
        {
          "indexed": true,
          "internalType": "bytes32",
          "name": "newAdminRole",
          "type": "bytes32"
        }
      ],
      "name": "RoleAdminChanged",
      "type": "event"
    },
    {
      "anonymous": false,
      "inputs": [
        {
          "indexed": true,
          "internalType": "bytes32",
          "name": "role",
          "type": "bytes32"
        },
        {
          "indexed": true,
          "internalType": "address",
          "name": "account",
          "type": "address"
        },
        {
          "indexed": true,
          "internalType": "address",
          "name": "sender",
          "type": "address"
        }
      ],
      "name": "RoleGranted",
      "type": "event"
    },
    {
      "anonymous": false,
      "inputs": [
        {
          "indexed": true,
          "internalType": "bytes32",
          "name": "role",
          "type": "bytes32"
        },
        {
          "indexed": true,
          "internalType": "address",
          "name": "account",
          "type": "address"
        },
        {
          "indexed": true,
          "internalType": "address",
          "name": "sender",
          "type": "address"
        }
      ],
      "name": "RoleRevoked",
      "type": "event"
    },
    {
      "anonymous": false,
      "inputs": [
        {
          "indexed": false,
          "internalType": "uint256",
          "name": "cycle",
          "type": "uint256"
        },
        {
          "indexed": false,
          "internalType": "bytes32",
          "name": "root",
          "type": "bytes32"
        }
      ],
      "name": "SubmittedRootHash",
      "type": "event"
    },
    {
      "anonymous": false,
      "inputs": [
        {
          "indexed": false,
          "internalType": "address",
          "name": "account",
          "type": "address"
        }
      ],
      "name": "Unpaused",
      "type": "event"
    },
    {
      "anonymous": false,
      "inputs": [
        {
          "indexed": true,
          "internalType": "address",
          "name": "implementation",
          "type": "address"
        }
      ],
      "name": "Upgraded",
      "type": "event"
    },
    {
      "inputs": [],
      "name": "DEFAULT_ADMIN_ROLE",
      "outputs": [
        {
          "internalType": "bytes32",
          "name": "",
          "type": "bytes32"
        }
      ],
      "stateMutability": "view",
      "type": "function"
    },
    {
      "inputs": [],
      "name": "DISTRIBUTOR_ROLE",
      "outputs": [
        {
          "internalType": "bytes32",
          "name": "",
          "type": "bytes32"
        }
      ],
      "stateMutability": "view",
      "type": "function"
    },
    {
      "inputs": [],
      "name": "UPGRADER_ROLE",
      "outputs": [
        {
          "internalType": "bytes32",
          "name": "",
          "type": "bytes32"
        }
      ],
      "stateMutability": "view",
      "type": "function"
    },
    {
      "inputs": [
        {
          "internalType": "uint256",
          "name": "",
          "type": "uint256"
        }
      ],
      "name": "businessDevAllocatedTokens",
      "outputs": [
        {
          "internalType": "uint256",
          "name": "",
          "type": "uint256"
        }
      ],
      "stateMutability": "view",
      "type": "function"
    },
    {
      "inputs": [],
      "name": "businessDevTokensTarget",
      "outputs": [
        {
          "internalType": "address",
          "name": "",
          "type": "address"
        }
      ],
      "stateMutability": "view",
      "type": "function"
    },
    {
      "inputs": [
        {
          "internalType": "uint256",
          "name": "amount",
          "type": "uint256"
        },
        {
          "internalType": "uint256",
          "name": "totalRewards",
          "type": "uint256"
        },
        {
          "internalType": "uint256",
          "name": "cycle",
          "type": "uint256"
        },
        {
          "internalType": "bytes32[]",
          "name": "proof",
          "type": "bytes32[]"
        }
      ],
      "name": "claim",
      "outputs": [],
      "stateMutability": "nonpayable",
      "type": "function"
    },
    {
      "inputs": [],
      "name": "claimedRewards",
      "outputs": [
        {
          "internalType": "uint256",
          "name": "",
          "type": "uint256"
        }
      ],
      "stateMutability": "view",
      "type": "function"
    },
    {
      "inputs": [
        {
          "internalType": "address",
          "name": "",
          "type": "address"
        }
      ],
      "name": "claims",
      "outputs": [
        {
          "internalType": "uint256",
          "name": "",
          "type": "uint256"
        }
      ],
      "stateMutability": "view",
      "type": "function"
    },
    {
      "inputs": [],
      "name": "companyTokensTarget",
      "outputs": [
        {
          "internalType": "address",
          "name": "",
          "type": "address"
        }
      ],
      "stateMutability": "view",
      "type": "function"
    },
    {
      "inputs": [],
      "name": "companyWithdrawals",
      "outputs": [
        {
          "internalType": "uint256",
          "name": "",
          "type": "uint256"
        }
      ],
      "stateMutability": "view",
      "type": "function"
    },
    {
      "inputs": [
        {
          "internalType": "uint256",
          "name": "",
          "type": "uint256"
        }
      ],
      "name": "dailyAllocatedRewards",
      "outputs": [
        {
          "internalType": "uint256",
          "name": "",
          "type": "uint256"
        }
      ],
      "stateMutability": "view",
      "type": "function"
    },
    {
      "inputs": [],
      "name": "data",
      "outputs": [
        {
          "internalType": "contract WeatherXMData",
          "name": "",
          "type": "address"
        }
      ],
      "stateMutability": "view",
      "type": "function"
    },
    {
      "inputs": [
        {
          "internalType": "address",
          "name": "account",
          "type": "address"
        },
        {
          "internalType": "uint256",
          "name": "amount",
          "type": "uint256"
        },
        {
          "internalType": "uint256",
          "name": "cycle",
          "type": "uint256"
        },
        {
          "internalType": "bytes32[]",
          "name": "proof",
          "type": "bytes32[]"
        }
      ],
      "name": "getRemainingAllocatedRewards",
      "outputs": [
        {
          "internalType": "uint256",
          "name": "",
          "type": "uint256"
        }
      ],
      "stateMutability": "view",
      "type": "function"
    },
    {
      "inputs": [
        {
          "internalType": "bytes32",
          "name": "role",
          "type": "bytes32"
        }
      ],
      "name": "getRoleAdmin",
      "outputs": [
        {
          "internalType": "bytes32",
          "name": "",
          "type": "bytes32"
        }
      ],
      "stateMutability": "view",
      "type": "function"
    },
    {
      "inputs": [
        {
          "internalType": "bytes32",
          "name": "role",
          "type": "bytes32"
        },
        {
          "internalType": "uint256",
          "name": "index",
          "type": "uint256"
        }
      ],
      "name": "getRoleMember",
      "outputs": [
        {
          "internalType": "address",
          "name": "",
          "type": "address"
        }
      ],
      "stateMutability": "view",
      "type": "function"
    },
    {
      "inputs": [
        {
          "internalType": "bytes32",
          "name": "role",
          "type": "bytes32"
        }
      ],
      "name": "getRoleMemberCount",
      "outputs": [
        {
          "internalType": "uint256",
          "name": "",
          "type": "uint256"
        }
      ],
      "stateMutability": "view",
      "type": "function"
    },
    {
      "inputs": [
        {
          "internalType": "bytes32",
          "name": "role",
          "type": "bytes32"
        },
        {
          "internalType": "address",
          "name": "account",
          "type": "address"
        }
      ],
      "name": "grantRole",
      "outputs": [],
      "stateMutability": "nonpayable",
      "type": "function"
    },
    {
      "inputs": [
        {
          "internalType": "bytes32",
          "name": "role",
          "type": "bytes32"
        },
        {
          "internalType": "address",
          "name": "account",
          "type": "address"
        }
      ],
      "name": "hasRole",
      "outputs": [
        {
          "internalType": "bool",
          "name": "",
          "type": "bool"
        }
      ],
      "stateMutability": "view",
      "type": "function"
    },
    {
      "inputs": [
        {
          "internalType": "address",
          "name": "_token",
          "type": "address"
        },
        {
          "internalType": "address",
          "name": "_data",
          "type": "address"
        }
      ],
      "name": "initialize",
      "outputs": [],
      "stateMutability": "nonpayable",
      "type": "function"
    },
    {
      "inputs": [],
      "name": "latestBusinessDevWithdrawal",
      "outputs": [
        {
          "internalType": "uint256",
          "name": "",
          "type": "uint256"
        }
      ],
      "stateMutability": "view",
      "type": "function"
    },
    {
      "inputs": [],
      "name": "latestCompanyWithdrawal",
      "outputs": [
        {
          "internalType": "uint256",
          "name": "",
          "type": "uint256"
        }
      ],
      "stateMutability": "view",
      "type": "function"
    },
    {
      "inputs": [],
      "name": "pause",
      "outputs": [],
      "stateMutability": "nonpayable",
      "type": "function"
    },
    {
      "inputs": [],
      "name": "paused",
      "outputs": [
        {
          "internalType": "bool",
          "name": "",
          "type": "bool"
        }
      ],
      "stateMutability": "view",
      "type": "function"
    },
    {
      "inputs": [],
      "name": "proxiableUUID",
      "outputs": [
        {
          "internalType": "bytes32",
          "name": "",
          "type": "bytes32"
        }
      ],
      "stateMutability": "view",
      "type": "function"
    },
    {
      "inputs": [
        {
          "internalType": "bytes32",
          "name": "role",
          "type": "bytes32"
        },
        {
          "internalType": "address",
          "name": "account",
          "type": "address"
        }
      ],
      "name": "renounceRole",
      "outputs": [],
      "stateMutability": "nonpayable",
      "type": "function"
    },
    {
      "inputs": [
        {
          "internalType": "bytes32",
          "name": "role",
          "type": "bytes32"
        },
        {
          "internalType": "address",
          "name": "account",
          "type": "address"
        }
      ],
      "name": "revokeRole",
      "outputs": [],
      "stateMutability": "nonpayable",
      "type": "function"
    },
    {
      "inputs": [
        {
          "internalType": "uint256",
          "name": "",
          "type": "uint256"
        }
      ],
      "name": "roots",
      "outputs": [
        {
          "internalType": "bytes32",
          "name": "",
          "type": "bytes32"
        }
      ],
      "stateMutability": "view",
      "type": "function"
    },
    {
      "inputs": [
        {
          "internalType": "address",
          "name": "target",
          "type": "address"
        }
      ],
      "name": "setBusinessDevTarget",
      "outputs": [],
      "stateMutability": "nonpayable",
      "type": "function"
    },
    {
      "inputs": [
        {
          "internalType": "address",
          "name": "target",
          "type": "address"
        }
      ],
      "name": "setCompanyTarget",
      "outputs": [],
      "stateMutability": "nonpayable",
      "type": "function"
    },
    {
      "inputs": [
        {
          "internalType": "bytes32",
          "name": "root",
          "type": "bytes32"
        },
        {
          "internalType": "uint256",
          "name": "dailyCumulativeRewards",
          "type": "uint256"
        }
      ],
      "name": "submitMerkleRoot",
      "outputs": [
        {
          "internalType": "bool",
          "name": "",
          "type": "bool"
        }
      ],
      "stateMutability": "nonpayable",
      "type": "function"
    },
    {
      "inputs": [
        {
          "internalType": "bytes4",
          "name": "interfaceId",
          "type": "bytes4"
        }
      ],
      "name": "supportsInterface",
      "outputs": [
        {
          "internalType": "bool",
          "name": "",
          "type": "bool"
        }
      ],
      "stateMutability": "view",
      "type": "function"
    },
    {
      "inputs": [],
      "name": "token",
      "outputs": [
        {
          "internalType": "contract IWeatherXM",
          "name": "",
          "type": "address"
        }
      ],
      "stateMutability": "view",
      "type": "function"
    },
    {
      "inputs": [],
      "name": "totalAllocatedRewards",
      "outputs": [
        {
          "internalType": "uint256",
          "name": "",
          "type": "uint256"
        }
      ],
      "stateMutability": "view",
      "type": "function"
    },
    {
      "inputs": [],
      "name": "transferBusinessDevTokens",
      "outputs": [],
      "stateMutability": "nonpayable",
      "type": "function"
    },
    {
      "inputs": [],
      "name": "transferCompanyTokens",
      "outputs": [],
      "stateMutability": "nonpayable",
      "type": "function"
    },
    {
      "inputs": [
        {
          "internalType": "address",
          "name": "to",
          "type": "address"
        },
        {
          "internalType": "uint256",
          "name": "amount",
          "type": "uint256"
        },
        {
          "internalType": "uint256",
          "name": "totalRewards",
          "type": "uint256"
        },
        {
          "internalType": "uint256",
          "name": "cycle",
          "type": "uint256"
        },
        {
          "internalType": "bytes32[]",
          "name": "proof",
          "type": "bytes32[]"
        }
      ],
      "name": "transferRewards",
      "outputs": [
        {
          "internalType": "bool",
          "name": "",
          "type": "bool"
        }
      ],
      "stateMutability": "nonpayable",
      "type": "function"
    },
    {
      "inputs": [],
      "name": "unpause",
      "outputs": [],
      "stateMutability": "nonpayable",
      "type": "function"
    },
    {
      "inputs": [
        {
          "internalType": "address",
          "name": "newImplementation",
          "type": "address"
        }
      ],
      "name": "upgradeTo",
      "outputs": [],
      "stateMutability": "nonpayable",
      "type": "function"
    },
    {
      "inputs": [
        {
          "internalType": "address",
          "name": "newImplementation",
          "type": "address"
        },
        {
          "internalType": "bytes",
          "name": "data",
          "type": "bytes"
        }
      ],
      "name": "upgradeToAndCall",
      "outputs": [],
      "stateMutability": "payable",
      "type": "function"
    }
  ],
  "bytecode": "0x60a0604052306080523480156200001557600080fd5b506200002062000026565b620000e8565b600054610100900460ff1615620000935760405162461bcd60e51b815260206004820152602760248201527f496e697469616c697a61626c653a20636f6e747261637420697320696e697469604482015266616c697a696e6760c81b606482015260840160405180910390fd5b60005460ff9081161015620000e6576000805460ff191660ff9081179091556040519081527f7f26b83ff96e1f2b6a682f133852f6798a09c465da95921460cefb38474024989060200160405180910390a15b565b608051612d2a620001206000396000818161084a0152818161088a0152818161101e0152818161105e01526110ed0152612d2a6000f3fe6080604052600436106102305760003560e01c80638456cb591161012e578063d547741f116100ab578063f0bd87cc1161006f578063f0bd87cc14610685578063f72c0d8b146106a7578063f99e54d1146106db578063fa9d4160146106fb578063fc0c546a1461071057600080fd5b8063d547741f146105f6578063dd0ea12714610616578063e1032dda1461062d578063ea25e1761461064e578063ede460471461066e57600080fd5b8063a217fddf116100f2578063a217fddf14610545578063a3fe3b6a1461055a578063c2b40ae41461057a578063c6788bdd146105a8578063ca15c873146105d657600080fd5b80638456cb59146104a25780638839ab89146104b75780639010d07c146104d757806391d14854146104f7578063a20ee7491461051757600080fd5b80634625da45116101bc57806352d1902d1161018057806352d1902d146104255780635c975abb1461043a57806369d63d5a1461045357806372f02c011461046a57806373d4a13a1461048157600080fd5b80634625da451461038f578063485cc955146103bd5780634a57f197146103dd5780634c77d81c146103f25780634f1ef2861461041257600080fd5b80632f2ff15d116102035780632f2ff15d146102e157806336568abe146103015780633659cfe6146103215780633f4ba83a1461034157806344eaaa131461035657600080fd5b806301ffc9a7146102355780630af783de1461026a57806322e9c08d1461028c578063248a9ca3146102b1575b600080fd5b34801561024157600080fd5b506102556102503660046126a5565b610731565b60405190151581526020015b60405180910390f35b34801561027657600080fd5b5061028a6102853660046126eb565b61075c565b005b34801561029857600080fd5b506102a36101985481565b604051908152602001610261565b3480156102bd57600080fd5b506102a36102cc366004612706565b600090815260fb602052604090206001015490565b3480156102ed57600080fd5b5061028a6102fc36600461271f565b610793565b34801561030d57600080fd5b5061028a61031c36600461271f565b6107bd565b34801561032d57600080fd5b5061028a61033c3660046126eb565b610840565b34801561034d57600080fd5b5061028a61091f565b34801561036257600080fd5b5061019a54610377906001600160a01b031681565b6040516001600160a01b039091168152602001610261565b34801561039b57600080fd5b506102a36103aa366004612706565b61019d6020526000908152604090205481565b3480156103c957600080fd5b5061028a6103d836600461274b565b610932565b3480156103e957600080fd5b5061028a610ace565b3480156103fe57600080fd5b5061025561040d366004612775565b610d28565b61028a6104203660046127ad565b611014565b34801561043157600080fd5b506102a36110e0565b34801561044657600080fd5b5061015f5460ff16610255565b34801561045f57600080fd5b506102a361019c5481565b34801561047657600080fd5b506102a36101975481565b34801561048d57600080fd5b5061019254610377906001600160a01b031681565b3480156104ae57600080fd5b5061028a611193565b3480156104c357600080fd5b506102a36104d23660046128bb565b6111a6565b3480156104e357600080fd5b506103776104f2366004612775565b6111e9565b34801561050357600080fd5b5061025561051236600461271f565b611209565b34801561052357600080fd5b506102a3610532366004612706565b61019e6020526000908152604090205481565b34801561055157600080fd5b506102a3600081565b34801561056657600080fd5b5061028a6105753660046126eb565b611234565b34801561058657600080fd5b506102a3610595366004612706565b6101946020526000908152604090205481565b3480156105b457600080fd5b506102a36105c33660046126eb565b6101936020526000908152604090205481565b3480156105e257600080fd5b506102a36105f1366004612706565b61126b565b34801561060257600080fd5b5061028a61061136600461271f565b611283565b34801561062257600080fd5b506102a36101995481565b34801561063957600080fd5b5061019b54610377906001600160a01b031681565b34801561065a57600080fd5b5061028a610669366004612923565b6112a8565b34801561067a57600080fd5b506102a361019f5481565b34801561069157600080fd5b506102a3600080516020612c8e83398151915281565b3480156106b357600080fd5b506102a37f189ab7a9244df0848122154315af71fe140f3db0fe014031783b0946b8c9d2e381565b3480156106e757600080fd5b506102556106f6366004612967565b6114d8565b34801561070757600080fd5b5061028a61174d565b34801561071c57600080fd5b5061019154610377906001600160a01b031681565b60006001600160e01b03198216635a05180f60e01b1480610756575061075682611928565b92915050565b60006107678161195d565b61076f611967565b5061019a80546001600160a01b0319166001600160a01b0392909216919091179055565b600082815260fb60205260409020600101546107ae8161195d565b6107b883836119b0565b505050565b6001600160a01b03811633146108325760405162461bcd60e51b815260206004820152602f60248201527f416363657373436f6e74726f6c3a2063616e206f6e6c792072656e6f756e636560448201526e103937b632b9903337b91039b2b63360891b60648201526084015b60405180910390fd5b61083c82826119d3565b5050565b6001600160a01b037f00000000000000000000000000000000000000000000000000000000000000001630036108885760405162461bcd60e51b8152600401610829906129d8565b7f00000000000000000000000000000000000000000000000000000000000000006001600160a01b03166108d1600080516020612cae833981519152546001600160a01b031690565b6001600160a01b0316146108f75760405162461bcd60e51b815260040161082990612a24565b610900816119f6565b6040805160008082526020820190925261091c91839190611a20565b50565b600061092a8161195d565b61091c611b8b565b600054610100900460ff16158080156109525750600054600160ff909116105b8061096c5750303b15801561096c575060005460ff166001145b6109cf5760405162461bcd60e51b815260206004820152602e60248201527f496e697469616c697a61626c653a20636f6e747261637420697320616c72656160448201526d191e481a5b9a5d1a585b1a5e995960921b6064820152608401610829565b6000805460ff1916600117905580156109f2576000805461ff0019166101001790555b6109fa611bde565b610a02611bde565b610a0a611c05565b610a12611c34565b610a1d600033611c63565b610a477f189ab7a9244df0848122154315af71fe140f3db0fe014031783b0946b8c9d2e333611c63565b61019180546001600160a01b038086166001600160a01b031992831617909255610192805492851692909116919091179055426101958190556101965580156107b8576000805461ff0019169055604051600181527f7f26b83ff96e1f2b6a682f133852f6798a09c465da95921460cefb38474024989060200160405180910390a1505050565b600080516020612c8e833981519152610ae68161195d565b610aee611967565b610af6611c6d565b61019154604080516332ade71160e11b815290516000926001600160a01b03169163655bce22916004808301926020929190829003018187875af1158015610b42573d6000803e3d6000fd5b505050506040513d601f19601f82011682018060405250810190610b669190612a70565b90508061019f541115610b8c5760405163381e21f160e21b815260040160405180910390fd5b61019f546000905b828111610c1c576101925460405163a961269b60e01b815260048101839052610c12916001600160a01b03169063a961269b90602401602060405180830381865afa158015610be7573d6000803e3d6000fd5b505050506040513d601f19601f82011682018060405250810190610c0b9190612a70565b8390611cc6565b9150600101610b94565b61019f81905561019954610c309083611cc6565b610199556101915461019a5460405163a9059cbb60e01b81526001600160a01b0391821660048201526024810185905291169063a9059cbb906044016020604051808303816000875af1158015610c8b573d6000803e3d6000fd5b505050506040513d601f19601f82011682018060405250810190610caf9190612a89565b1580610cb9575081155b15610cd7576040516312171d8360e31b815260040160405180910390fd5b61019a546040518381526001600160a01b03909116907f5f0d506ace67ba8da0b2ba2eff209d1d6cd9f31a01c423b4936819a656021857906020015b60405180910390a250505061091c6001606555565b6000600080516020612c8e833981519152610d428161195d565b6201518061019554421015610d6a576040516396ace71160e01b815260040160405180910390fd5b61019554610d789082611cc6565b61019555610d84611967565b610191546040516370a0823160e01b81523060048201526001600160a01b03909116906370a0823190602401602060405180830381865afa158015610dcd573d6000803e3d6000fd5b505050506040513d601f19601f82011682018060405250810190610df19190612a70565b610e1461019854610e0e8761019754611cc690919063ffffffff16565b90611cd9565b1115610e3357604051631e6918b160e01b815260040160405180910390fd5b61019154604080516332ade71160e11b815290516000926001600160a01b03169163655bce22916004808301926020929190829003018187875af1158015610e7f573d6000803e3d6000fd5b505050506040513d601f19601f82011682018060405250810190610ea39190612a70565b6000818152610194602090815260408083208a905561019e909152902086905561019754909150610ed49086611cc6565b610197556101925460405163a151058560e01b815260048101839052610f4c9187916001600160a01b039091169063a151058590602401602060405180830381865afa158015610f28573d6000803e3d6000fd5b505050506040513d601f19601f82011682018060405250810190610e0e9190612a70565b600082815261019d60209081526040808320939093556101915483516332ade71160e11b815293517f896675adf312ce3c7847c39a493487e9ba2bd568e482fae010cd7ad524d725b8946001600160a01b039092169363655bce22936004808501949193929183900301908290875af1158015610fcd573d6000803e3d6000fd5b505050506040513d601f19601f82011682018060405250810190610ff19190612a70565b60408051918252602082018990520160405180910390a150600195945050505050565b6001600160a01b037f000000000000000000000000000000000000000000000000000000000000000016300361105c5760405162461bcd60e51b8152600401610829906129d8565b7f00000000000000000000000000000000000000000000000000000000000000006001600160a01b03166110a5600080516020612cae833981519152546001600160a01b031690565b6001600160a01b0316146110cb5760405162461bcd60e51b815260040161082990612a24565b6110d4826119f6565b61083c82826001611a20565b6000306001600160a01b037f000000000000000000000000000000000000000000000000000000000000000016146111805760405162461bcd60e51b815260206004820152603860248201527f555550535570677261646561626c653a206d757374206e6f742062652063616c60448201527f6c6564207468726f7567682064656c656761746563616c6c00000000000000006064820152608401610829565b50600080516020612cae83398151915290565b600061119e8161195d565b61091c611ce5565b60006111b0611967565b3033036111d057604051630501f4f360e51b815260040160405180910390fd5b6111dd8686868686611d23565b90505b95945050505050565b600082815261012d602052604081206112029083611db0565b9392505050565b600091825260fb602090815260408084206001600160a01b0393909316845291905290205460ff1690565b600061123f8161195d565b611247611967565b5061019b80546001600160a01b0319166001600160a01b0392909216919091179055565b600081815261012d6020526040812061075690611dbc565b600082815260fb602052604090206001015461129e8161195d565b6107b883836119d3565b6112b0611967565b6112b8611c6d565b836000036112d957604051630c043a5560e11b815260040160405180910390fd5b846000036112fa5760405163f4bb5e6160e01b815260040160405180910390fd5b610191546040516370a0823160e01b815230600482015286916001600160a01b0316906370a0823190602401602060405180830381865afa158015611343573d6000803e3d6000fd5b505050506040513d601f19601f820116820180604052508101906113679190612a70565b10156113865760405163c6cf63c160e01b815260040160405180910390fd5b6113933385858585611d23565b8511156113b35760405163098876cb60e31b815260040160405180910390fd5b33600090815261019360205260409020546113ce9086611cc6565b3360009081526101936020526040902055610198546113ed9086611cc6565b61019855610191546001600160a01b031663a9059cbb336040516001600160e01b031960e084901b1681526001600160a01b039091166004820152602481018890526044016020604051808303816000875af1158015611451573d6000803e3d6000fd5b505050506040513d601f19601f820116820180604052508101906114759190612a89565b611492576040516312171d8360e31b815260040160405180910390fd5b60405185815233907fd8138f8a3f377c5259ca548e70e4c2de94f129f5a11036a15b69513cba2b426a9060200160405180910390a26114d16001606555565b5050505050565b6000600080516020612c8e8339815191526114f28161195d565b6114fa611967565b611502611c6d565b876001600160a01b03811661152a576040516306a0d46d60e51b815260040160405180910390fd5b306001600160a01b038216036115535760405163128a9f0160e31b815260040160405180910390fd5b8660000361157457604051630c043a5560e11b815260040160405180910390fd5b876000036115955760405163f4bb5e6160e01b815260040160405180910390fd5b610191546040516370a0823160e01b815230600482015289916001600160a01b0316906370a0823190602401602060405180830381865afa1580156115de573d6000803e3d6000fd5b505050506040513d601f19601f820116820180604052508101906116029190612a70565b10156116215760405163c6cf63c160e01b815260040160405180910390fd5b61162e8988888888611d23565b88111561164e5760405163098876cb60e31b815260040160405180910390fd5b6001600160a01b038916600090815261019360205260409020546116729089611cc6565b6001600160a01b038a16600090815261019360205260409020556101985461169a9089611cc6565b610198556101915460405163a9059cbb60e01b81526001600160a01b038b81166004830152602482018b90529091169063a9059cbb906044016020604051808303816000875af11580156116f2573d6000803e3d6000fd5b505050506040513d601f19601f820116820180604052508101906117169190612a89565b611733576040516312171d8360e31b815260040160405180910390fd5b60019250506117426001606555565b509695505050505050565b600080516020612c8e8339815191526117658161195d565b61176d611967565b611775611c6d565b61019154604080516332ade71160e11b815290516000926001600160a01b03169163655bce22916004808301926020929190829003018187875af11580156117c1573d6000803e3d6000fd5b505050506040513d601f19601f820116820180604052508101906117e59190612a70565b90508061019c54111561180b5760405163381e21f160e21b815260040160405180910390fd5b61019c546000905b82811161183f57600081815261019d6020526040902054611835908390611cc6565b9150600101611813565b61019c8190556101915461019b5460405163a9059cbb60e01b81526001600160a01b0391821660048201526024810185905291169063a9059cbb906044016020604051808303816000875af115801561189c573d6000803e3d6000fd5b505050506040513d601f19601f820116820180604052508101906118c09190612a89565b15806118ca575081155b156118e8576040516312171d8360e31b815260040160405180910390fd5b61019b546040518381526001600160a01b03909116907fd6fcb67aa696be356fa5dc29e690ad8e3da7fd347bf80a2f22a446b0353c8c5690602001610d13565b60006001600160e01b03198216637965db0b60e01b148061075657506301ffc9a760e01b6001600160e01b0319831614610756565b61091c8133611dc6565b61015f5460ff16156119ae5760405162461bcd60e51b815260206004820152601060248201526f14185d5cd8589b194e881c185d5cd95960821b6044820152606401610829565b565b6119ba8282611e1f565b600082815261012d602052604090206107b89082611ea5565b6119dd8282611eba565b600082815261012d602052604090206107b89082611f21565b7f189ab7a9244df0848122154315af71fe140f3db0fe014031783b0946b8c9d2e361083c8161195d565b7f4910fdfa16fed3260ed0e7147f7cc6da11a60208b5b9406d12a635614ffd91435460ff1615611a53576107b883611f36565b826001600160a01b03166352d1902d6040518163ffffffff1660e01b8152600401602060405180830381865afa925050508015611aad575060408051601f3d908101601f19168201909252611aaa91810190612a70565b60015b611b105760405162461bcd60e51b815260206004820152602e60248201527f45524331393637557067726164653a206e657720696d706c656d656e7461746960448201526d6f6e206973206e6f74205555505360901b6064820152608401610829565b600080516020612cae8339815191528114611b7f5760405162461bcd60e51b815260206004820152602960248201527f45524331393637557067726164653a20756e737570706f727465642070726f786044820152681a58589b195555525160ba1b6064820152608401610829565b506107b8838383611fd2565b611b93611ffd565b61015f805460ff191690557f5db9ee0a495bf2e6ff9c91a7834c1ba4fdd244a5e8aa4e537bd38aeae4b073aa335b6040516001600160a01b03909116815260200160405180910390a1565b600054610100900460ff166119ae5760405162461bcd60e51b815260040161082990612aab565b600054610100900460ff16611c2c5760405162461bcd60e51b815260040161082990612aab565b6119ae612047565b600054610100900460ff16611c5b5760405162461bcd60e51b815260040161082990612aab565b6119ae61207b565b61083c82826119b0565b600260655403611cbf5760405162461bcd60e51b815260206004820152601f60248201527f5265656e7472616e637947756172643a207265656e7472616e742063616c6c006044820152606401610829565b6002606555565b60006112028284612b0c565b6001606555565b60006112028284612b1f565b611ced611967565b61015f805460ff191660011790557f62e78cea01bee320cd4e420270b5ea74000d11b0c9f74754ebdbfc544b05a258611bc13390565b600084600003611d465760405163f4bb5e6160e01b815260040160405180910390fd5b6000611d5587878787876120a2565b6001600160a01b03881660009081526101936020526040902054909150811115611da6576001600160a01b03871660009081526101936020526040902054611d9e908290611cd9565b9150506111e0565b60009150506111e0565b6000611202838361218b565b6000610756825490565b611dd08282611209565b61083c57611ddd816121b5565b611de88360206121c7565b604051602001611df9929190612b56565b60408051601f198184030181529082905262461bcd60e51b825261082991600401612bcb565b611e298282611209565b61083c57600082815260fb602090815260408083206001600160a01b03851684529091529020805460ff19166001179055611e613390565b6001600160a01b0316816001600160a01b0316837f2f8788117e7eff1d82e926ec794901d17c78024a50270940304540a733656f0d60405160405180910390a45050565b6000611202836001600160a01b038416612363565b611ec48282611209565b1561083c57600082815260fb602090815260408083206001600160a01b0385168085529252808320805460ff1916905551339285917ff6391f5c32d9c69d2a47ea670b442974b53935d1edc7fd64eb21e047a839171b9190a45050565b6000611202836001600160a01b0384166123b2565b6001600160a01b0381163b611fa35760405162461bcd60e51b815260206004820152602d60248201527f455243313936373a206e657720696d706c656d656e746174696f6e206973206e60448201526c1bdd08184818dbdb9d1c9858dd609a1b6064820152608401610829565b600080516020612cae83398151915280546001600160a01b0319166001600160a01b0392909216919091179055565b611fdb836124a5565b600082511180611fe85750805b156107b857611ff783836124e5565b50505050565b61015f5460ff166119ae5760405162461bcd60e51b815260206004820152601460248201527314185d5cd8589b194e881b9bdd081c185d5cd95960621b6044820152606401610829565b600054610100900460ff1661206e5760405162461bcd60e51b815260040161082990612aab565b61015f805460ff19169055565b600054610100900460ff16611cd25760405162461bcd60e51b815260040161082990612aab565b604080516001600160a01b0387166020820152908101859052600090819060600160408051601f198184030181528282528051602091820120908301520160405160208183030381529060405280519060200120905061214484848080602002602001604051908101604052809392919081815260200183836020028082843760009201829052508a8152610194602052604090205492508591506125d09050565b6121805760405162461bcd60e51b815260206004820152600d60248201526c24a72b20a624a210282927a7a360991b6044820152606401610829565b509395945050505050565b60008260000182815481106121a2576121a2612bfe565b9060005260206000200154905092915050565b60606107566001600160a01b03831660145b606060006121d6836002612c14565b6121e1906002612b0c565b67ffffffffffffffff8111156121f9576121f9612797565b6040519080825280601f01601f191660200182016040528015612223576020820181803683370190505b509050600360fc1b8160008151811061223e5761223e612bfe565b60200101906001600160f81b031916908160001a905350600f60fb1b8160018151811061226d5761226d612bfe565b60200101906001600160f81b031916908160001a9053506000612291846002612c14565b61229c906001612b0c565b90505b6001811115612314576f181899199a1a9b1b9c1cb0b131b232b360811b85600f16601081106122d0576122d0612bfe565b1a60f81b8282815181106122e6576122e6612bfe565b60200101906001600160f81b031916908160001a90535060049490941c9361230d81612c2b565b905061229f565b5083156112025760405162461bcd60e51b815260206004820181905260248201527f537472696e67733a20686578206c656e67746820696e73756666696369656e746044820152606401610829565b60008181526001830160205260408120546123aa57508154600181810184556000848152602080822090930184905584548482528286019093526040902091909155610756565b506000610756565b6000818152600183016020526040812054801561249b5760006123d6600183612b1f565b85549091506000906123ea90600190612b1f565b905081811461244f57600086600001828154811061240a5761240a612bfe565b906000526020600020015490508087600001848154811061242d5761242d612bfe565b6000918252602080832090910192909255918252600188019052604090208390555b855486908061246057612460612c42565b600190038181906000526020600020016000905590558560010160008681526020019081526020016000206000905560019350505050610756565b6000915050610756565b6124ae81611f36565b6040516001600160a01b038216907fbc7cd75a20ee27fd9adebab32041f755214dbc6bffa90cc0225b39da2e5c2d3b90600090a250565b60606001600160a01b0383163b61254d5760405162461bcd60e51b815260206004820152602660248201527f416464726573733a2064656c65676174652063616c6c20746f206e6f6e2d636f6044820152651b9d1c9858dd60d21b6064820152608401610829565b600080846001600160a01b0316846040516125689190612c58565b600060405180830381855af49150503d80600081146125a3576040519150601f19603f3d011682016040523d82523d6000602084013e6125a8565b606091505b50915091506111e08282604051806060016040528060278152602001612cce602791396125e6565b6000826125dd85846125ff565b14949350505050565b606083156125f5575081611202565b611202838361264c565b600081815b8451811015612644576126308286838151811061262357612623612bfe565b6020026020010151612676565b91508061263c81612c74565b915050612604565b509392505050565b81511561265c5781518083602001fd5b8060405162461bcd60e51b81526004016108299190612bcb565b6000818310612692576000828152602084905260409020611202565b6000838152602083905260409020611202565b6000602082840312156126b757600080fd5b81356001600160e01b03198116811461120257600080fd5b80356001600160a01b03811681146126e657600080fd5b919050565b6000602082840312156126fd57600080fd5b611202826126cf565b60006020828403121561271857600080fd5b5035919050565b6000806040838503121561273257600080fd5b82359150612742602084016126cf565b90509250929050565b6000806040838503121561275e57600080fd5b612767836126cf565b9150612742602084016126cf565b6000806040838503121561278857600080fd5b50508035926020909101359150565b634e487b7160e01b600052604160045260246000fd5b600080604083850312156127c057600080fd5b6127c9836126cf565b9150602083013567ffffffffffffffff808211156127e657600080fd5b818501915085601f8301126127fa57600080fd5b81358181111561280c5761280c612797565b604051601f8201601f19908116603f0116810190838211818310171561283457612834612797565b8160405282815288602084870101111561284d57600080fd5b8260208601602083013760006020848301015280955050505050509250929050565b60008083601f84011261288157600080fd5b50813567ffffffffffffffff81111561289957600080fd5b6020830191508360208260051b85010111156128b457600080fd5b9250929050565b6000806000806000608086880312156128d357600080fd5b6128dc866126cf565b94506020860135935060408601359250606086013567ffffffffffffffff81111561290657600080fd5b6129128882890161286f565b969995985093965092949392505050565b60008060008060006080868803121561293b57600080fd5b853594506020860135935060408601359250606086013567ffffffffffffffff81111561290657600080fd5b60008060008060008060a0878903121561298057600080fd5b612989876126cf565b9550602087013594506040870135935060608701359250608087013567ffffffffffffffff8111156129ba57600080fd5b6129c689828a0161286f565b979a9699509497509295939492505050565b6020808252602c908201527f46756e6374696f6e206d7573742062652063616c6c6564207468726f7567682060408201526b19195b1959d85d1958d85b1b60a21b606082015260800190565b6020808252602c908201527f46756e6374696f6e206d7573742062652063616c6c6564207468726f7567682060408201526b6163746976652070726f787960a01b606082015260800190565b600060208284031215612a8257600080fd5b5051919050565b600060208284031215612a9b57600080fd5b8151801515811461120257600080fd5b6020808252602b908201527f496e697469616c697a61626c653a20636f6e7472616374206973206e6f74206960408201526a6e697469616c697a696e6760a81b606082015260800190565b634e487b7160e01b600052601160045260246000fd5b8082018082111561075657610756612af6565b8181038181111561075657610756612af6565b60005b83811015612b4d578181015183820152602001612b35565b50506000910152565b7f416363657373436f6e74726f6c3a206163636f756e7420000000000000000000815260008351612b8e816017850160208801612b32565b7001034b99036b4b9b9b4b733903937b6329607d1b6017918401918201528351612bbf816028840160208801612b32565b01602801949350505050565b6020815260008251806020840152612bea816040850160208701612b32565b601f01601f19169190910160400192915050565b634e487b7160e01b600052603260045260246000fd5b808202811582820484141761075657610756612af6565b600081612c3a57612c3a612af6565b506000190190565b634e487b7160e01b600052603160045260246000fd5b60008251612c6a818460208701612b32565b9190910192915050565b600060018201612c8657612c86612af6565b506001019056fefbd454f36a7e1a388bd6fc3ab10d434aa4578f811acbbcf33afb1c697486313c360894a13ba1a3210667c828492db98dca3e2076cc3735a920a3ca505d382bbc416464726573733a206c6f772d6c6576656c2064656c65676174652063616c6c206661696c6564a2646970667358221220862e42499039dcdb7eef342852bc42d746cc5b56d7576a050852372250b594b864736f6c63430008120033",
  "linkReferences": {},
  "deployedLinkReferences": {}
}