{
  "_format": "hh-sol-artifact-1",
  "contractName": "WeatherXMData",
  "sourceName": "src/WeatherXMData.sol",
  "abi": [
    {
      "inputs": [],
      "stateMutability": "nonpayable",
      "type": "constructor"
    },
    {
      "anonymous": false,
      "inputs": [
        {
          "indexed": false,
          "internalType": "address",
          "name": "previousAdmin",
          "type": "address"
        },
        {
          "indexed": false,
          "internalType": "address",
          "name": "newAdmin",
          "type": "address"
        }
      ],
      "name": "AdminChanged",
      "type": "event"
    },
    {
      "anonymous": false,
      "inputs": [
        {
          "indexed": true,
          "internalType": "address",
          "name": "beacon",
          "type": "address"
        }
      ],
      "name": "BeaconUpgraded",
      "type": "event"
    },
    {
      "anonymous": false,
      "inputs": [
        {
          "indexed": false,
          "internalType": "uint8",
          "name": "version",
          "type": "uint8"
        }
      ],
      "name": "Initialized",
      "type": "event"
    },
    {
      "anonymous": false,
      "inputs": [
        {
          "indexed": true,
          "internalType": "address",
          "name": "previousOwner",
          "type": "address"
        },
        {
          "indexed": true,
          "internalType": "address",
          "name": "newOwner",
          "type": "address"
        }
      ],
      "name": "OwnershipTransferred",
      "type": "event"
    },
    {
      "anonymous": false,
      "inputs": [
        {
          "indexed": true,
          "internalType": "address",
          "name": "implementation",
          "type": "address"
        }
      ],
      "name": "Upgraded",
      "type": "event"
    },
    {
      "inputs": [
        {
          "internalType": "uint256",
          "name": "",
          "type": "uint256"
        }
      ],
      "name": "dailyCompanyMint",
      "outputs": [
        {
          "internalType": "uint256",
          "name": "",
          "type": "uint256"
        }
      ],
      "stateMutability": "view",
      "type": "function"
    },
    {
      "inputs": [
        {
          "internalType": "uint256",
          "name": "",
          "type": "uint256"
        }
      ],
      "name": "dailyRewardMint",
      "outputs": [
        {
          "internalType": "uint256",
          "name": "",
          "type": "uint256"
        }
      ],
      "stateMutability": "view",
      "type": "function"
    },
    {
      "inputs": [],
      "name": "initialize",
      "outputs": [],
      "stateMutability": "nonpayable",
      "type": "function"
    },
    {
      "inputs": [],
      "name": "owner",
      "outputs": [
        {
          "internalType": "address",
          "name": "",
          "type": "address"
        }
      ],
      "stateMutability": "view",
      "type": "function"
    },
    {
      "inputs": [],
      "name": "proxiableUUID",
      "outputs": [
        {
          "internalType": "bytes32",
          "name": "",
          "type": "bytes32"
        }
      ],
      "stateMutability": "view",
      "type": "function"
    },
    {
      "inputs": [],
      "name": "renounceOwnership",
      "outputs": [],
      "stateMutability": "nonpayable",
      "type": "function"
    },
    {
      "inputs": [
        {
          "internalType": "address",
          "name": "newOwner",
          "type": "address"
        }
      ],
      "name": "transferOwnership",
      "outputs": [],
      "stateMutability": "nonpayable",
      "type": "function"
    },
    {
      "inputs": [
        {
          "internalType": "uint256",
          "name": "_cycle",
          "type": "uint256"
        },
        {
          "internalType": "uint256",
          "name": "_amount",
          "type": "uint256"
        }
      ],
      "name": "updateDailyCompanyMints",
      "outputs": [],
      "stateMutability": "nonpayable",
      "type": "function"
    },
    {
      "inputs": [
        {
          "internalType": "uint256",
          "name": "_cycle",
          "type": "uint256"
        },
        {
          "internalType": "uint256",
          "name": "_amount",
          "type": "uint256"
        }
      ],
      "name": "updateDailyRewardMints",
      "outputs": [],
      "stateMutability": "nonpayable",
      "type": "function"
    },
    {
      "inputs": [
        {
          "internalType": "address",
          "name": "newImplementation",
          "type": "address"
        }
      ],
      "name": "upgradeTo",
      "outputs": [],
      "stateMutability": "nonpayable",
      "type": "function"
    },
    {
      "inputs": [
        {
          "internalType": "address",
          "name": "newImplementation",
          "type": "address"
        },
        {
          "internalType": "bytes",
          "name": "data",
          "type": "bytes"
        }
      ],
      "name": "upgradeToAndCall",
      "outputs": [],
      "stateMutability": "payable",
      "type": "function"
    }
  ],
  "bytecode": "0x60a06040523060805234801561001457600080fd5b5061001d610022565b6100e2565b600054610100900460ff161561008e5760405162461bcd60e51b815260206004820152602760248201527f496e697469616c697a61626c653a20636f6e747261637420697320696e697469604482015266616c697a696e6760c81b606482015260840160405180910390fd5b60005460ff90811610156100e0576000805460ff191660ff9081179091556040519081527f7f26b83ff96e1f2b6a682f133852f6798a09c465da95921460cefb38474024989060200160405180910390a15b565b608051610e566101196000396000818161022e01528181610277015281816103160152818161035601526103e90152610e566000f3fe60806040526004361061009c5760003560e01c80638da5cb5b116100645780638da5cb5b14610128578063a151058514610150578063a5e297211461017d578063a961269b146101aa578063d5faca59146101d7578063f2fde38b1461020457600080fd5b80633659cfe6146100a15780634f1ef286146100c357806352d1902d146100d6578063715018a6146100fe5780638129fc1c14610113575b600080fd5b3480156100ad57600080fd5b506100c16100bc366004610b3c565b610224565b005b6100c16100d1366004610b6d565b61030c565b3480156100e257600080fd5b506100eb6103dc565b6040519081526020015b60405180910390f35b34801561010a57600080fd5b506100c161048f565b34801561011f57600080fd5b506100c16104a3565b34801561013457600080fd5b506097546040516001600160a01b0390911681526020016100f5565b34801561015c57600080fd5b506100eb61016b366004610c2f565b60ca6020526000908152604090205481565b34801561018957600080fd5b506100c1610198366004610c48565b600091825260ca602052604090912055565b3480156101b657600080fd5b506100eb6101c5366004610c2f565b60c96020526000908152604090205481565b3480156101e357600080fd5b506100c16101f2366004610c48565b600091825260c9602052604090912055565b34801561021057600080fd5b506100c161021f366004610b3c565b6105bb565b6001600160a01b037f00000000000000000000000000000000000000000000000000000000000000001630036102755760405162461bcd60e51b815260040161026c90610c6a565b60405180910390fd5b7f00000000000000000000000000000000000000000000000000000000000000006001600160a01b03166102be600080516020610dda833981519152546001600160a01b031690565b6001600160a01b0316146102e45760405162461bcd60e51b815260040161026c90610cb6565b6102ed81610631565b6040805160008082526020820190925261030991839190610639565b50565b6001600160a01b037f00000000000000000000000000000000000000000000000000000000000000001630036103545760405162461bcd60e51b815260040161026c90610c6a565b7f00000000000000000000000000000000000000000000000000000000000000006001600160a01b031661039d600080516020610dda833981519152546001600160a01b031690565b6001600160a01b0316146103c35760405162461bcd60e51b815260040161026c90610cb6565b6103cc82610631565b6103d882826001610639565b5050565b6000306001600160a01b037f0000000000000000000000000000000000000000000000000000000000000000161461047c5760405162461bcd60e51b815260206004820152603860248201527f555550535570677261646561626c653a206d757374206e6f742062652063616c60448201527f6c6564207468726f7567682064656c656761746563616c6c0000000000000000606482015260840161026c565b50600080516020610dda83398151915290565b6104976107a9565b6104a16000610803565b565b600054610100900460ff16158080156104c35750600054600160ff909116105b806104dd5750303b1580156104dd575060005460ff166001145b6105405760405162461bcd60e51b815260206004820152602e60248201527f496e697469616c697a61626c653a20636f6e747261637420697320616c72656160448201526d191e481a5b9a5d1a585b1a5e995960921b606482015260840161026c565b6000805460ff191660011790558015610563576000805461ff0019166101001790555b61056b610855565b61057361087c565b8015610309576000805461ff0019169055604051600181527f7f26b83ff96e1f2b6a682f133852f6798a09c465da95921460cefb38474024989060200160405180910390a150565b6105c36107a9565b6001600160a01b0381166106285760405162461bcd60e51b815260206004820152602660248201527f4f776e61626c653a206e6577206f776e657220697320746865207a65726f206160448201526564647265737360d01b606482015260840161026c565b61030981610803565b6103096107a9565b7f4910fdfa16fed3260ed0e7147f7cc6da11a60208b5b9406d12a635614ffd91435460ff16156106715761066c836108ab565b505050565b826001600160a01b03166352d1902d6040518163ffffffff1660e01b8152600401602060405180830381865afa9250505080156106cb575060408051601f3d908101601f191682019092526106c891810190610d02565b60015b61072e5760405162461bcd60e51b815260206004820152602e60248201527f45524331393637557067726164653a206e657720696d706c656d656e7461746960448201526d6f6e206973206e6f74205555505360901b606482015260840161026c565b600080516020610dda833981519152811461079d5760405162461bcd60e51b815260206004820152602960248201527f45524331393637557067726164653a20756e737570706f727465642070726f786044820152681a58589b195555525160ba1b606482015260840161026c565b5061066c838383610947565b6097546001600160a01b031633146104a15760405162461bcd60e51b815260206004820181905260248201527f4f776e61626c653a2063616c6c6572206973206e6f7420746865206f776e6572604482015260640161026c565b609780546001600160a01b038381166001600160a01b0319831681179093556040519116919082907f8be0079c531659141344cd1fd0a4f28419497f9722a3daafe3b4186f6b6457e090600090a35050565b600054610100900460ff166104a15760405162461bcd60e51b815260040161026c90610d1b565b600054610100900460ff166108a35760405162461bcd60e51b815260040161026c90610d1b565b6104a1610972565b6001600160a01b0381163b6109185760405162461bcd60e51b815260206004820152602d60248201527f455243313936373a206e657720696d706c656d656e746174696f6e206973206e60448201526c1bdd08184818dbdb9d1c9858dd609a1b606482015260840161026c565b600080516020610dda83398151915280546001600160a01b0319166001600160a01b0392909216919091179055565b610950836109a2565b60008251118061095d5750805b1561066c5761096c83836109e2565b50505050565b600054610100900460ff166109995760405162461bcd60e51b815260040161026c90610d1b565b6104a133610803565b6109ab816108ab565b6040516001600160a01b038216907fbc7cd75a20ee27fd9adebab32041f755214dbc6bffa90cc0225b39da2e5c2d3b90600090a250565b60606001600160a01b0383163b610a4a5760405162461bcd60e51b815260206004820152602660248201527f416464726573733a2064656c65676174652063616c6c20746f206e6f6e2d636f6044820152651b9d1c9858dd60d21b606482015260840161026c565b600080846001600160a01b031684604051610a659190610d8a565b600060405180830381855af49150503d8060008114610aa0576040519150601f19603f3d011682016040523d82523d6000602084013e610aa5565b606091505b5091509150610acd8282604051806060016040528060278152602001610dfa60279139610ad6565b95945050505050565b60608315610ae5575081610aef565b610aef8383610af6565b9392505050565b815115610b065781518083602001fd5b8060405162461bcd60e51b815260040161026c9190610da6565b80356001600160a01b0381168114610b3757600080fd5b919050565b600060208284031215610b4e57600080fd5b610aef82610b20565b634e487b7160e01b600052604160045260246000fd5b60008060408385031215610b8057600080fd5b610b8983610b20565b9150602083013567ffffffffffffffff80821115610ba657600080fd5b818501915085601f830112610bba57600080fd5b813581811115610bcc57610bcc610b57565b604051601f8201601f19908116603f01168101908382118183101715610bf457610bf4610b57565b81604052828152886020848701011115610c0d57600080fd5b8260208601602083013760006020848301015280955050505050509250929050565b600060208284031215610c4157600080fd5b5035919050565b60008060408385031215610c5b57600080fd5b50508035926020909101359150565b6020808252602c908201527f46756e6374696f6e206d7573742062652063616c6c6564207468726f7567682060408201526b19195b1959d85d1958d85b1b60a21b606082015260800190565b6020808252602c908201527f46756e6374696f6e206d7573742062652063616c6c6564207468726f7567682060408201526b6163746976652070726f787960a01b606082015260800190565b600060208284031215610d1457600080fd5b5051919050565b6020808252602b908201527f496e697469616c697a61626c653a20636f6e7472616374206973206e6f74206960408201526a6e697469616c697a696e6760a81b606082015260800190565b60005b83811015610d81578181015183820152602001610d69565b50506000910152565b60008251610d9c818460208701610d66565b9190910192915050565b6020815260008251806020840152610dc5816040850160208701610d66565b601f01601f1916919091016040019291505056fe360894a13ba1a3210667c828492db98dca3e2076cc3735a920a3ca505d382bbc416464726573733a206c6f772d6c6576656c2064656c65676174652063616c6c206661696c6564a26469706673582212209458861a16cccf8cd4e27fc4ca63ac734fdd31c5f6dba50f5721166515a0b88264736f6c63430008120033",
  "linkReferences": {},
  "deployedLinkReferences": {}
}