{
  "_format": "hh-sol-artifact-1",
  "contractName": "WeatherStationXM",
  "sourceName": "src/WeatherStationXM.sol",
  "abi": [
    {
      "inputs": [
        {
          "internalType": "string",
          "name": "name",
          "type": "string"
        },
        {
          "internalType": "string",
          "name": "symbol",
          "type": "string"
        }
      ],
      "stateMutability": "nonpayable",
      "type": "constructor"
    },
    {
      "inputs": [],
      "name": "CallerIsNotTokenOwner",
      "type": "error"
    },
    {
      "inputs": [],
      "name": "CantExchangeWSWhenNotOwning",
      "type": "error"
    },
    {
      "inputs": [],
      "name": "CantTransferWSWhenNotOwning",
      "type": "error"
    },
    {
      "inputs": [],
      "name": "RecipientIsContractAddress",
      "type": "error"
    },
    {
      "anonymous": false,
      "inputs": [
        {
          "indexed": true,
          "internalType": "address",
          "name": "owner",
          "type": "address"
        },
        {
          "indexed": true,
          "internalType": "address",
          "name": "approved",
          "type": "address"
        },
        {
          "indexed": true,
          "internalType": "uint256",
          "name": "tokenId",
          "type": "uint256"
        }
      ],
      "name": "Approval",
      "type": "event"
    },
    {
      "anonymous": false,
      "inputs": [
        {
          "indexed": true,
          "internalType": "address",
          "name": "owner",
          "type": "address"
        },
        {
          "indexed": true,
          "internalType": "address",
          "name": "operator",
          "type": "address"
        },
        {
          "indexed": false,
          "internalType": "bool",
          "name": "approved",
          "type": "bool"
        }
      ],
      "name": "ApprovalForAll",
      "type": "event"
    },
    {
      "anonymous": false,
      "inputs": [
        {
          "indexed": false,
          "internalType": "address",
          "name": "account",
          "type": "address"
        }
      ],
      "name": "Paused",
      "type": "event"
    },
    {
      "anonymous": false,
      "inputs": [
        {
          "indexed": true,
          "internalType": "bytes32",
          "name": "role",
          "type": "bytes32"
        },
        {
          "indexed": true,
          "internalType": "bytes32",
          "name": "previousAdminRole",
          "type": "bytes32"
        },
        {
          "indexed": true,
          "internalType": "bytes32",
          "name": "newAdminRole",
          "type": "bytes32"
        }
      ],
      "name": "RoleAdminChanged",
      "type": "event"
    },
    {
      "anonymous": false,
      "inputs": [
        {
          "indexed": true,
          "internalType": "bytes32",
          "name": "role",
          "type": "bytes32"
        },
        {
          "indexed": true,
          "internalType": "address",
          "name": "account",
          "type": "address"
        },
        {
          "indexed": true,
          "internalType": "address",
          "name": "sender",
          "type": "address"
        }
      ],
      "name": "RoleGranted",
      "type": "event"
    },
    {
      "anonymous": false,
      "inputs": [
        {
          "indexed": true,
          "internalType": "bytes32",
          "name": "role",
          "type": "bytes32"
        },
        {
          "indexed": true,
          "internalType": "address",
          "name": "account",
          "type": "address"
        },
        {
          "indexed": true,
          "internalType": "address",
          "name": "sender",
          "type": "address"
        }
      ],
      "name": "RoleRevoked",
      "type": "event"
    },
    {
      "anonymous": false,
      "inputs": [
        {
          "indexed": true,
          "internalType": "address",
          "name": "from",
          "type": "address"
        },
        {
          "indexed": true,
          "internalType": "address",
          "name": "to",
          "type": "address"
        },
        {
          "indexed": true,
          "internalType": "uint256",
          "name": "tokenId",
          "type": "uint256"
        }
      ],
      "name": "Transfer",
      "type": "event"
    },
    {
      "anonymous": false,
      "inputs": [
        {
          "indexed": false,
          "internalType": "address",
          "name": "account",
          "type": "address"
        }
      ],
      "name": "Unpaused",
      "type": "event"
    },
    {
      "anonymous": false,
      "inputs": [
        {
          "indexed": true,
          "internalType": "address",
          "name": "from",
          "type": "address"
        },
        {
          "indexed": false,
          "internalType": "uint256",
          "name": "tokenId",
          "type": "uint256"
        }
      ],
      "name": "WeatherStationBurned",
      "type": "event"
    },
    {
      "anonymous": false,
      "inputs": [
        {
          "indexed": true,
          "internalType": "address",
          "name": "from",
          "type": "address"
        },
        {
          "indexed": false,
          "internalType": "uint256",
          "name": "tokenId",
          "type": "uint256"
        }
      ],
      "name": "WeatherStationClaimed",
      "type": "event"
    },
    {
      "anonymous": false,
      "inputs": [
        {
          "indexed": true,
          "internalType": "address",
          "name": "from",
          "type": "address"
        },
        {
          "indexed": false,
          "internalType": "uint256",
          "name": "tokenId",
          "type": "uint256"
        }
      ],
      "name": "WeatherStationOnboarded",
      "type": "event"
    },
    {
      "anonymous": false,
      "inputs": [
        {
          "indexed": true,
          "internalType": "address",
          "name": "from",
          "type": "address"
        },
        {
          "indexed": false,
          "internalType": "address",
          "name": "to",
          "type": "address"
        },
        {
          "indexed": false,
          "internalType": "uint256",
          "name": "tokenId",
          "type": "uint256"
        }
      ],
      "name": "WeatherStationTransfered",
      "type": "event"
    },
    {
      "inputs": [],
      "name": "DEFAULT_ADMIN_ROLE",
      "outputs": [
        {
          "internalType": "bytes32",
          "name": "",
          "type": "bytes32"
        }
      ],
      "stateMutability": "view",
      "type": "function"
    },
    {
      "inputs": [],
      "name": "MANUFACTURER_ROLE",
      "outputs": [
        {
          "internalType": "bytes32",
          "name": "",
          "type": "bytes32"
        }
      ],
      "stateMutability": "view",
      "type": "function"
    },
    {
      "inputs": [],
      "name": "PROVISIONER_ROLE",
      "outputs": [
        {
          "internalType": "bytes32",
          "name": "",
          "type": "bytes32"
        }
      ],
      "stateMutability": "view",
      "type": "function"
    },
    {
      "inputs": [
        {
          "internalType": "address",
          "name": "to",
          "type": "address"
        },
        {
          "internalType": "uint256",
          "name": "tokenId",
          "type": "uint256"
        }
      ],
      "name": "approve",
      "outputs": [],
      "stateMutability": "nonpayable",
      "type": "function"
    },
    {
      "inputs": [
        {
          "internalType": "address",
          "name": "owner",
          "type": "address"
        }
      ],
      "name": "balanceOf",
      "outputs": [
        {
          "internalType": "uint256",
          "name": "",
          "type": "uint256"
        }
      ],
      "stateMutability": "view",
      "type": "function"
    },
    {
      "inputs": [
        {
          "internalType": "uint256",
          "name": "tokenId",
          "type": "uint256"
        }
      ],
      "name": "burn",
      "outputs": [],
      "stateMutability": "nonpayable",
      "type": "function"
    },
    {
      "inputs": [
        {
          "internalType": "uint256",
          "name": "_tokenId1",
          "type": "uint256"
        },
        {
          "internalType": "uint256",
          "name": "_tokenId2",
          "type": "uint256"
        }
      ],
      "name": "exchangeWeatherStations",
      "outputs": [
        {
          "internalType": "bool",
          "name": "",
          "type": "bool"
        }
      ],
      "stateMutability": "nonpayable",
      "type": "function"
    },
    {
      "inputs": [
        {
          "internalType": "uint256",
          "name": "tokenId",
          "type": "uint256"
        }
      ],
      "name": "getApproved",
      "outputs": [
        {
          "internalType": "address",
          "name": "",
          "type": "address"
        }
      ],
      "stateMutability": "view",
      "type": "function"
    },
    {
      "inputs": [
        {
          "internalType": "bytes32",
          "name": "role",
          "type": "bytes32"
        }
      ],
      "name": "getRoleAdmin",
      "outputs": [
        {
          "internalType": "bytes32",
          "name": "",
          "type": "bytes32"
        }
      ],
      "stateMutability": "view",
      "type": "function"
    },
    {
      "inputs": [
        {
          "internalType": "bytes32",
          "name": "role",
          "type": "bytes32"
        },
        {
          "internalType": "address",
          "name": "account",
          "type": "address"
        }
      ],
      "name": "grantRole",
      "outputs": [],
      "stateMutability": "nonpayable",
      "type": "function"
    },
    {
      "inputs": [
        {
          "internalType": "bytes32",
          "name": "role",
          "type": "bytes32"
        },
        {
          "internalType": "address",
          "name": "account",
          "type": "address"
        }
      ],
      "name": "hasRole",
      "outputs": [
        {
          "internalType": "bool",
          "name": "",
          "type": "bool"
        }
      ],
      "stateMutability": "view",
      "type": "function"
    },
    {
      "inputs": [
        {
          "internalType": "address",
          "name": "owner",
          "type": "address"
        },
        {
          "internalType": "address",
          "name": "operator",
          "type": "address"
        }
      ],
      "name": "isApprovedForAll",
      "outputs": [
        {
          "internalType": "bool",
          "name": "",
          "type": "bool"
        }
      ],
      "stateMutability": "view",
      "type": "function"
    },
    {
      "inputs": [
        {
          "internalType": "address",
          "name": "recipient",
          "type": "address"
        },
        {
          "internalType": "string",
          "name": "uri",
          "type": "string"
        }
      ],
      "name": "mintWeatherStation",
      "outputs": [
        {
          "internalType": "bool",
          "name": "",
          "type": "bool"
        }
      ],
      "stateMutability": "nonpayable",
      "type": "function"
    },
    {
      "inputs": [],
      "name": "name",
      "outputs": [
        {
          "internalType": "string",
          "name": "",
          "type": "string"
        }
      ],
      "stateMutability": "view",
      "type": "function"
    },
    {
      "inputs": [
        {
          "internalType": "uint256",
          "name": "tokenId",
          "type": "uint256"
        }
      ],
      "name": "ownerOf",
      "outputs": [
        {
          "internalType": "address",
          "name": "",
          "type": "address"
        }
      ],
      "stateMutability": "view",
      "type": "function"
    },
    {
      "inputs": [],
      "name": "pause",
      "outputs": [],
      "stateMutability": "nonpayable",
      "type": "function"
    },
    {
      "inputs": [],
      "name": "paused",
      "outputs": [
        {
          "internalType": "bool",
          "name": "",
          "type": "bool"
        }
      ],
      "stateMutability": "view",
      "type": "function"
    },
    {
      "inputs": [
        {
          "internalType": "bytes32",
          "name": "role",
          "type": "bytes32"
        },
        {
          "internalType": "address",
          "name": "account",
          "type": "address"
        }
      ],
      "name": "renounceRole",
      "outputs": [],
      "stateMutability": "nonpayable",
      "type": "function"
    },
    {
      "inputs": [
        {
          "internalType": "bytes32",
          "name": "role",
          "type": "bytes32"
        },
        {
          "internalType": "address",
          "name": "account",
          "type": "address"
        }
      ],
      "name": "revokeRole",
      "outputs": [],
      "stateMutability": "nonpayable",
      "type": "function"
    },
    {
      "inputs": [
        {
          "internalType": "address",
          "name": "from",
          "type": "address"
        },
        {
          "internalType": "address",
          "name": "to",
          "type": "address"
        },
        {
          "internalType": "uint256",
          "name": "tokenId",
          "type": "uint256"
        }
      ],
      "name": "safeTransferFrom",
      "outputs": [],
      "stateMutability": "nonpayable",
      "type": "function"
    },
    {
      "inputs": [
        {
          "internalType": "address",
          "name": "from",
          "type": "address"
        },
        {
          "internalType": "address",
          "name": "to",
          "type": "address"
        },
        {
          "internalType": "uint256",
          "name": "tokenId",
          "type": "uint256"
        },
        {
          "internalType": "bytes",
          "name": "data",
          "type": "bytes"
        }
      ],
      "name": "safeTransferFrom",
      "outputs": [],
      "stateMutability": "nonpayable",
      "type": "function"
    },
    {
      "inputs": [
        {
          "internalType": "address",
          "name": "operator",
          "type": "address"
        },
        {
          "internalType": "bool",
          "name": "approved",
          "type": "bool"
        }
      ],
      "name": "setApprovalForAll",
      "outputs": [],
      "stateMutability": "nonpayable",
      "type": "function"
    },
    {
      "inputs": [
        {
          "internalType": "bytes4",
          "name": "interfaceId",
          "type": "bytes4"
        }
      ],
      "name": "supportsInterface",
      "outputs": [
        {
          "internalType": "bool",
          "name": "",
          "type": "bool"
        }
      ],
      "stateMutability": "view",
      "type": "function"
    },
    {
      "inputs": [],
      "name": "symbol",
      "outputs": [
        {
          "internalType": "string",
          "name": "",
          "type": "string"
        }
      ],
      "stateMutability": "view",
      "type": "function"
    },
    {
      "inputs": [
        {
          "internalType": "uint256",
          "name": "index",
          "type": "uint256"
        }
      ],
      "name": "tokenByIndex",
      "outputs": [
        {
          "internalType": "uint256",
          "name": "",
          "type": "uint256"
        }
      ],
      "stateMutability": "view",
      "type": "function"
    },
    {
      "inputs": [
        {
          "internalType": "address",
          "name": "owner",
          "type": "address"
        },
        {
          "internalType": "uint256",
          "name": "index",
          "type": "uint256"
        }
      ],
      "name": "tokenOfOwnerByIndex",
      "outputs": [
        {
          "internalType": "uint256",
          "name": "",
          "type": "uint256"
        }
      ],
      "stateMutability": "view",
      "type": "function"
    },
    {
      "inputs": [
        {
          "internalType": "uint256",
          "name": "tokenId",
          "type": "uint256"
        }
      ],
      "name": "tokenURI",
      "outputs": [
        {
          "internalType": "string",
          "name": "",
          "type": "string"
        }
      ],
      "stateMutability": "view",
      "type": "function"
    },
    {
      "inputs": [],
      "name": "totalSupply",
      "outputs": [
        {
          "internalType": "uint256",
          "name": "",
          "type": "uint256"
        }
      ],
      "stateMutability": "view",
      "type": "function"
    },
    {
      "inputs": [
        {
          "internalType": "address",
          "name": "from",
          "type": "address"
        },
        {
          "internalType": "address",
          "name": "to",
          "type": "address"
        },
        {
          "internalType": "uint256",
          "name": "tokenId",
          "type": "uint256"
        }
      ],
      "name": "transferFrom",
      "outputs": [],
      "stateMutability": "nonpayable",
      "type": "function"
    },
    {
      "inputs": [
        {
          "internalType": "address",
          "name": "to",
          "type": "address"
        },
        {
          "internalType": "uint256",
          "name": "tokenId",
          "type": "uint256"
        }
      ],
      "name": "transferWeatherStation",
      "outputs": [
        {
          "internalType": "bool",
          "name": "",
          "type": "bool"
        }
      ],
      "stateMutability": "nonpayable",
      "type": "function"
    },
    {
      "inputs": [],
      "name": "unpause",
      "outputs": [],
      "stateMutability": "nonpayable",
      "type": "function"
    }
  ],
  "bytecode": "0x60806040523480156200001157600080fd5b5060405162002acc38038062002acc8339810160408190526200003491620001fe565b81816000620000448382620002f7565b506001620000538282620002f7565b5050600b805460ff19169055506001600d556200007d6000336200008560201b62000c931760201c565b5050620003c3565b62000091828262000095565b5050565b6000828152600c602090815260408083206001600160a01b038516845290915290205460ff1662000091576000828152600c602090815260408083206001600160a01b03851684529091529020805460ff19166001179055620000f53390565b6001600160a01b0316816001600160a01b0316837f2f8788117e7eff1d82e926ec794901d17c78024a50270940304540a733656f0d60405160405180910390a45050565b634e487b7160e01b600052604160045260246000fd5b600082601f8301126200016157600080fd5b81516001600160401b03808211156200017e576200017e62000139565b604051601f8301601f19908116603f01168101908282118183101715620001a957620001a962000139565b81604052838152602092508683858801011115620001c657600080fd5b600091505b83821015620001ea5785820183015181830184015290820190620001cb565b600093810190920192909252949350505050565b600080604083850312156200021257600080fd5b82516001600160401b03808211156200022a57600080fd5b62000238868387016200014f565b935060208501519150808211156200024f57600080fd5b506200025e858286016200014f565b9150509250929050565b600181811c908216806200027d57607f821691505b6020821081036200029e57634e487b7160e01b600052602260045260246000fd5b50919050565b601f821115620002f257600081815260208120601f850160051c81016020861015620002cd5750805b601f850160051c820191505b81811015620002ee57828155600101620002d9565b5050505b505050565b81516001600160401b0381111562000313576200031362000139565b6200032b8162000324845462000268565b84620002a4565b602080601f8311600181146200036357600084156200034a5750858301515b600019600386901b1c1916600185901b178555620002ee565b600085815260208120601f198616915b82811015620003945788860151825594840194600190910190840162000373565b5085821015620003b35787850151600019600388901b60f8161c191681555b5050505050600190811b01905550565b6126f980620003d36000396000f3fe608060405234801561001057600080fd5b50600436106101e55760003560e01c80634f6ccce71161010f578063965288b0116100a2578063c87b56dd11610071578063c87b56dd1461041f578063d547741f14610432578063e13ec61b14610445578063e985e9c51461045857600080fd5b8063965288b0146103ca578063a217fddf146103f1578063a22cb465146103f9578063b88d4fde1461040c57600080fd5b806370a08231116100de57806370a08231146103945780638456cb59146103a757806391d14854146103af57806395d89b41146103c257600080fd5b80634f6ccce71461033c5780635a6fb25d1461034f5780635c975abb146103765780636352211e1461038157600080fd5b80632f2ff15d1161018757806342842e0e1161015657806342842e0e146102f057806342966c681461030357806348ea5b7f146103165780634b9b162c1461032957600080fd5b80632f2ff15d146102af5780632f745c59146102c257806336568abe146102d55780633f4ba83a146102e857600080fd5b8063095ea7b3116101c3578063095ea7b31461025257806318160ddd1461026757806323b872dd14610279578063248a9ca31461028c57600080fd5b806301ffc9a7146101ea57806306fdde0314610212578063081812fc14610227575b600080fd5b6101fd6101f8366004611faf565b610494565b60405190151581526020015b60405180910390f35b61021a6104a5565b604051610209919061201c565b61023a61023536600461202f565b610537565b6040516001600160a01b039091168152602001610209565b610265610260366004612064565b61055e565b005b6008545b604051908152602001610209565b61026561028736600461208e565b610678565b61026b61029a36600461202f565b6000908152600c602052604090206001015490565b6102656102bd3660046120ca565b6106a9565b61026b6102d0366004612064565b6106ce565b6102656102e33660046120ca565b610764565b6102656107e2565b6102656102fe36600461208e565b6107f8565b61026561031136600461202f565b610813565b6101fd6103243660046120f6565b610876565b6101fd610337366004612064565b610902565b61026b61034a36600461202f565b610981565b61026b7f7670093c8396cecff5862296425346d7a6801611a244bd9f8f5b7132e94d46df81565b600b5460ff166101fd565b61023a61038f36600461202f565b610a14565b61026b6103a2366004612118565b610a74565b610265610afa565b6101fd6103bd3660046120ca565b610b0d565b61021a610b38565b61026b7feefb95e842a3287179d933b4460be539a1d5af11aa8b325bb45c5c8dc92de4ed81565b61026b600081565b610265610407366004612133565b610b47565b61026561041a3660046121fb565b610b52565b61021a61042d36600461202f565b610b89565b6102656104403660046120ca565b610b94565b6101fd610453366004612277565b610bb9565b6101fd6104663660046122d9565b6001600160a01b03918216600090815260056020908152604080832093909416825291909152205460ff1690565b600061049f82610c9d565b92915050565b6060600080546104b490612303565b80601f01602080910402602001604051908101604052809291908181526020018280546104e090612303565b801561052d5780601f106105025761010080835404028352916020019161052d565b820191906000526020600020905b81548152906001019060200180831161051057829003601f168201915b5050505050905090565b600061054282610cc2565b506000908152600460205260409020546001600160a01b031690565b600061056982610a14565b9050806001600160a01b0316836001600160a01b0316036105db5760405162461bcd60e51b815260206004820152602160248201527f4552433732313a20617070726f76616c20746f2063757272656e74206f776e656044820152603960f91b60648201526084015b60405180910390fd5b336001600160a01b03821614806105f757506105f78133610466565b6106695760405162461bcd60e51b815260206004820152603d60248201527f4552433732313a20617070726f76652063616c6c6572206973206e6f7420746f60448201527f6b656e206f776e6572206f7220617070726f76656420666f7220616c6c00000060648201526084016105d2565b6106738383610d21565b505050565b6106823382610d8f565b61069e5760405162461bcd60e51b81526004016105d29061233d565b610673838383610e0e565b6000828152600c60205260409020600101546106c481610f7f565b6106738383610f89565b60006106d983610a74565b821061073b5760405162461bcd60e51b815260206004820152602b60248201527f455243373231456e756d657261626c653a206f776e657220696e646578206f7560448201526a74206f6620626f756e647360a81b60648201526084016105d2565b506001600160a01b03919091166000908152600660209081526040808320938352929052205490565b6001600160a01b03811633146107d45760405162461bcd60e51b815260206004820152602f60248201527f416363657373436f6e74726f6c3a2063616e206f6e6c792072656e6f756e636560448201526e103937b632b9903337b91039b2b63360891b60648201526084016105d2565b6107de828261100f565b5050565b60006107ed81610f7f565b6107f5611076565b50565b61067383838360405180602001604052806000815250610b52565b61081b6110c8565b7feefb95e842a3287179d933b4460be539a1d5af11aa8b325bb45c5c8dc92de4ed61084581610f7f565b610850335b83610d8f565b61086d57604051634143fbf960e01b815260040160405180910390fd5b6107de82611110565b60003361088284610a14565b6001600160a01b03161415806108a957503361089d83610a14565b6001600160a01b031614155b156108c7576040516318bc09f960e31b815260040160405180910390fd5b60006108d284610a14565b905060006108df84610a14565b90506108ec8282876107f8565b6108f78183866107f8565b506001949350505050565b600061090d3361084a565b61092a576040516336e611a360e11b815260040160405180910390fd5b6109353384846107f8565b604080516001600160a01b038516815260208101849052815133927faf10f3b8f01b431f8016d9278694364b50910b581fab1ee0c5401d276b60bc53928290030190a250600192915050565b600061098c60085490565b82106109ef5760405162461bcd60e51b815260206004820152602c60248201527f455243373231456e756d657261626c653a20676c6f62616c20696e646578206f60448201526b7574206f6620626f756e647360a01b60648201526084016105d2565b60088281548110610a0257610a0261238a565b90600052602060002001549050919050565b6000818152600260205260408120546001600160a01b03168061049f5760405162461bcd60e51b8152602060048201526018602482015277115490cdcc8c4e881a5b9d985b1a59081d1bdad95b88125160421b60448201526064016105d2565b60006001600160a01b038216610ade5760405162461bcd60e51b815260206004820152602960248201527f4552433732313a2061646472657373207a65726f206973206e6f7420612076616044820152683634b21037bbb732b960b91b60648201526084016105d2565b506001600160a01b031660009081526003602052604090205490565b6000610b0581610f7f565b6107f5611119565b6000918252600c602090815260408084206001600160a01b0393909316845291905290205460ff1690565b6060600180546104b490612303565b6107de338383611156565b610b5b3361084a565b610b775760405162461bcd60e51b81526004016105d29061233d565b610b8384848484611224565b50505050565b606061049f82611257565b6000828152600c6020526040902060010154610baf81610f7f565b610673838361100f565b6000610bc36110c8565b7f7670093c8396cecff5862296425346d7a6801611a244bd9f8f5b7132e94d46df610bed81610f7f565b306001600160a01b03851603610c16576040516379e03e8160e11b815260040160405180910390fd5b610c24600e80546001019055565b6000610c2f600e5490565b9050610c3b858261136e565b610c458185611388565b846001600160a01b03167f0c27647fcefa0bddcbf37511ac8f45900b00deaca8ad681cbe62e88c7e67334482604051610c8091815260200190565b60405180910390a2506001949350505050565b6107de8282610f89565b60006001600160e01b03198216637965db0b60e01b148061049f575061049f8261141b565b6000818152600260205260409020546001600160a01b03166107f55760405162461bcd60e51b8152602060048201526018602482015277115490cdcc8c4e881a5b9d985b1a59081d1bdad95b88125160421b60448201526064016105d2565b600081815260046020526040902080546001600160a01b0319166001600160a01b0384169081179091558190610d5682610a14565b6001600160a01b03167f8c5be1e5ebec7d5bd14f71427d1e84f3dd0314c0f7b2291e5b200ac8c7c3b92560405160405180910390a45050565b600080610d9b83610a14565b9050806001600160a01b0316846001600160a01b03161480610de257506001600160a01b0380821660009081526005602090815260408083209388168352929052205460ff165b80610e065750836001600160a01b0316610dfb84610537565b6001600160a01b0316145b949350505050565b826001600160a01b0316610e2182610a14565b6001600160a01b031614610e475760405162461bcd60e51b81526004016105d2906123a0565b6001600160a01b038216610ea95760405162461bcd60e51b8152602060048201526024808201527f4552433732313a207472616e7366657220746f20746865207a65726f206164646044820152637265737360e01b60648201526084016105d2565b610eb68383836001611440565b826001600160a01b0316610ec982610a14565b6001600160a01b031614610eef5760405162461bcd60e51b81526004016105d2906123a0565b600081815260046020908152604080832080546001600160a01b03199081169091556001600160a01b0387811680865260038552838620805460001901905590871680865283862080546001019055868652600290945282852080549092168417909155905184937fddf252ad1be2c89b69c2b068fc378daa952ba7f163c4a11628f55a4df523b3ef91a4505050565b6107f58133611454565b610f938282610b0d565b6107de576000828152600c602090815260408083206001600160a01b03851684529091529020805460ff19166001179055610fcb3390565b6001600160a01b0316816001600160a01b0316837f2f8788117e7eff1d82e926ec794901d17c78024a50270940304540a733656f0d60405160405180910390a45050565b6110198282610b0d565b156107de576000828152600c602090815260408083206001600160a01b0385168085529252808320805460ff1916905551339285917ff6391f5c32d9c69d2a47ea670b442974b53935d1edc7fd64eb21e047a839171b9190a45050565b61107e6114ad565b600b805460ff191690557f5db9ee0a495bf2e6ff9c91a7834c1ba4fdd244a5e8aa4e537bd38aeae4b073aa335b6040516001600160a01b03909116815260200160405180910390a1565b600b5460ff161561110e5760405162461bcd60e51b815260206004820152601060248201526f14185d5cd8589b194e881c185d5cd95960821b60448201526064016105d2565b565b6107f5816114f6565b6111216110c8565b600b805460ff191660011790557f62e78cea01bee320cd4e420270b5ea74000d11b0c9f74754ebdbfc544b05a2586110ab3390565b816001600160a01b0316836001600160a01b0316036111b75760405162461bcd60e51b815260206004820152601960248201527f4552433732313a20617070726f766520746f2063616c6c65720000000000000060448201526064016105d2565b6001600160a01b03838116600081815260056020908152604080832094871680845294825291829020805460ff191686151590811790915591519182527f17307eab39ab6107e8899845ad3d59bd9653f200f220920489ca2b5937696c31910160405180910390a3505050565b61122f848484610e0e565b61123b84848484611536565b610b835760405162461bcd60e51b81526004016105d2906123e5565b606061126282610cc2565b6000828152600a60205260408120805461127b90612303565b80601f01602080910402602001604051908101604052809291908181526020018280546112a790612303565b80156112f45780601f106112c9576101008083540402835291602001916112f4565b820191906000526020600020905b8154815290600101906020018083116112d757829003601f168201915b505050505090506000611321604080518082019091526007815266697066733a2f2f60c81b602082015290565b90508051600003611333575092915050565b81511561136557808260405160200161134d929190612437565b60405160208183030381529060405292505050919050565b610e068461162c565b6107de8282604051806020016040528060008152506116af565b6000828152600260205260409020546001600160a01b03166114035760405162461bcd60e51b815260206004820152602e60248201527f45524337323155524953746f726167653a2055524920736574206f66206e6f6e60448201526d32bc34b9ba32b73a103a37b5b2b760911b60648201526084016105d2565b6000828152600a6020526040902061067382826124b4565b60006001600160e01b0319821663780e9d6360e01b148061049f575061049f826116e2565b6114486110c8565b610b8384848484611732565b61145e8282610b0d565b6107de5761146b81611866565b611476836020611878565b604051602001611487929190612574565b60408051601f198184030181529082905262461bcd60e51b82526105d29160040161201c565b600b5460ff1661110e5760405162461bcd60e51b815260206004820152601460248201527314185d5cd8589b194e881b9bdd081c185d5cd95960621b60448201526064016105d2565b6114ff81611a14565b6000818152600a60205260409020805461151890612303565b1590506107f5576000818152600a602052604081206107f591611f4b565b60006001600160a01b0384163b156108f757604051630a85bd0160e11b81526001600160a01b0385169063150b7a029061157a9033908990889088906004016125e9565b6020604051808303816000875af19250505080156115b5575060408051601f3d908101601f191682019092526115b291810190612626565b60015b611612573d8080156115e3576040519150601f19603f3d011682016040523d82523d6000602084013e6115e8565b606091505b50805160000361160a5760405162461bcd60e51b81526004016105d2906123e5565b805181602001fd5b6001600160e01b031916630a85bd0160e11b149050610e06565b606061163782610cc2565b600061165d604080518082019091526007815266697066733a2f2f60c81b602082015290565b9050600081511161167d57604051806020016040528060008152506116a8565b8061168784611ab7565b604051602001611698929190612437565b6040516020818303038152906040525b9392505050565b6116b98383611b4a565b6116c66000848484611536565b6106735760405162461bcd60e51b81526004016105d2906123e5565b60006001600160e01b031982166380ac58cd60e01b148061171357506001600160e01b03198216635b5e139f60e01b145b8061049f57506301ffc9a760e01b6001600160e01b031983161461049f565b60018111156117a15760405162461bcd60e51b815260206004820152603560248201527f455243373231456e756d657261626c653a20636f6e7365637574697665207472604482015274185b9cd9995c9cc81b9bdd081cdd5c1c1bdc9d1959605a1b60648201526084016105d2565b816001600160a01b0385166117fd576117f881600880546000838152600960205260408120829055600182018355919091527ff3f7a9fe364faab93b216da50a3214154f22a0a2b415b23a84c8169e8b636ee30155565b611820565b836001600160a01b0316856001600160a01b031614611820576118208582611ce3565b6001600160a01b03841661183c5761183781611d80565b61185f565b846001600160a01b0316846001600160a01b03161461185f5761185f8482611e2f565b5050505050565b606061049f6001600160a01b03831660145b60606000611887836002612659565b611892906002612670565b67ffffffffffffffff8111156118aa576118aa61216f565b6040519080825280601f01601f1916602001820160405280156118d4576020820181803683370190505b509050600360fc1b816000815181106118ef576118ef61238a565b60200101906001600160f81b031916908160001a905350600f60fb1b8160018151811061191e5761191e61238a565b60200101906001600160f81b031916908160001a9053506000611942846002612659565b61194d906001612670565b90505b60018111156119c5576f181899199a1a9b1b9c1cb0b131b232b360811b85600f16601081106119815761198161238a565b1a60f81b8282815181106119975761199761238a565b60200101906001600160f81b031916908160001a90535060049490941c936119be81612683565b9050611950565b5083156116a85760405162461bcd60e51b815260206004820181905260248201527f537472696e67733a20686578206c656e67746820696e73756666696369656e7460448201526064016105d2565b6000611a1f82610a14565b9050611a2f816000846001611440565b611a3882610a14565b600083815260046020908152604080832080546001600160a01b03199081169091556001600160a01b0385168085526003845282852080546000190190558785526002909352818420805490911690555192935084927fddf252ad1be2c89b69c2b068fc378daa952ba7f163c4a11628f55a4df523b3ef908390a45050565b60606000611ac483611e73565b600101905060008167ffffffffffffffff811115611ae457611ae461216f565b6040519080825280601f01601f191660200182016040528015611b0e576020820181803683370190505b5090508181016020015b600019016f181899199a1a9b1b9c1cb0b131b232b360811b600a86061a8153600a8504945084611b1857509392505050565b6001600160a01b038216611ba05760405162461bcd60e51b815260206004820181905260248201527f4552433732313a206d696e7420746f20746865207a65726f206164647265737360448201526064016105d2565b6000818152600260205260409020546001600160a01b031615611c055760405162461bcd60e51b815260206004820152601c60248201527f4552433732313a20746f6b656e20616c7265616479206d696e7465640000000060448201526064016105d2565b611c13600083836001611440565b6000818152600260205260409020546001600160a01b031615611c785760405162461bcd60e51b815260206004820152601c60248201527f4552433732313a20746f6b656e20616c7265616479206d696e7465640000000060448201526064016105d2565b6001600160a01b038216600081815260036020908152604080832080546001019055848352600290915280822080546001600160a01b0319168417905551839291907fddf252ad1be2c89b69c2b068fc378daa952ba7f163c4a11628f55a4df523b3ef908290a45050565b60006001611cf084610a74565b611cfa919061269a565b600083815260076020526040902054909150808214611d4d576001600160a01b03841660009081526006602090815260408083208584528252808320548484528184208190558352600790915290208190555b5060009182526007602090815260408084208490556001600160a01b039094168352600681528383209183525290812055565b600854600090611d929060019061269a565b60008381526009602052604081205460088054939450909284908110611dba57611dba61238a565b906000526020600020015490508060088381548110611ddb57611ddb61238a565b6000918252602080832090910192909255828152600990915260408082208490558582528120556008805480611e1357611e136126ad565b6001900381819060005260206000200160009055905550505050565b6000611e3a83610a74565b6001600160a01b039093166000908152600660209081526040808320868452825280832085905593825260079052919091209190915550565b60008072184f03e93ff9f4daa797ed6e38ed64bf6a1f0160401b8310611eb25772184f03e93ff9f4daa797ed6e38ed64bf6a1f0160401b830492506040015b6d04ee2d6d415b85acef81000000008310611ede576d04ee2d6d415b85acef8100000000830492506020015b662386f26fc100008310611efc57662386f26fc10000830492506010015b6305f5e1008310611f14576305f5e100830492506008015b6127108310611f2857612710830492506004015b60648310611f3a576064830492506002015b600a831061049f5760010192915050565b508054611f5790612303565b6000825580601f10611f67575050565b601f0160209004906000526020600020908101906107f591905b80821115611f955760008155600101611f81565b5090565b6001600160e01b0319811681146107f557600080fd5b600060208284031215611fc157600080fd5b81356116a881611f99565b60005b83811015611fe7578181015183820152602001611fcf565b50506000910152565b60008151808452612008816020860160208601611fcc565b601f01601f19169290920160200192915050565b6020815260006116a86020830184611ff0565b60006020828403121561204157600080fd5b5035919050565b80356001600160a01b038116811461205f57600080fd5b919050565b6000806040838503121561207757600080fd5b61208083612048565b946020939093013593505050565b6000806000606084860312156120a357600080fd5b6120ac84612048565b92506120ba60208501612048565b9150604084013590509250925092565b600080604083850312156120dd57600080fd5b823591506120ed60208401612048565b90509250929050565b6000806040838503121561210957600080fd5b50508035926020909101359150565b60006020828403121561212a57600080fd5b6116a882612048565b6000806040838503121561214657600080fd5b61214f83612048565b91506020830135801515811461216457600080fd5b809150509250929050565b634e487b7160e01b600052604160045260246000fd5b600067ffffffffffffffff808411156121a0576121a061216f565b604051601f8501601f19908116603f011681019082821181831017156121c8576121c861216f565b816040528093508581528686860111156121e157600080fd5b858560208301376000602087830101525050509392505050565b6000806000806080858703121561221157600080fd5b61221a85612048565b935061222860208601612048565b925060408501359150606085013567ffffffffffffffff81111561224b57600080fd5b8501601f8101871361225c57600080fd5b61226b87823560208401612185565b91505092959194509250565b6000806040838503121561228a57600080fd5b61229383612048565b9150602083013567ffffffffffffffff8111156122af57600080fd5b8301601f810185136122c057600080fd5b6122cf85823560208401612185565b9150509250929050565b600080604083850312156122ec57600080fd5b6122f583612048565b91506120ed60208401612048565b600181811c9082168061231757607f821691505b60208210810361233757634e487b7160e01b600052602260045260246000fd5b50919050565b6020808252602d908201527f4552433732313a2063616c6c6572206973206e6f7420746f6b656e206f776e6560408201526c1c881bdc88185c1c1c9bdd9959609a1b606082015260800190565b634e487b7160e01b600052603260045260246000fd5b60208082526025908201527f4552433732313a207472616e736665722066726f6d20696e636f72726563742060408201526437bbb732b960d91b606082015260800190565b60208082526032908201527f4552433732313a207472616e7366657220746f206e6f6e20455243373231526560408201527131b2b4bb32b91034b6b83632b6b2b73a32b960711b606082015260800190565b60008351612449818460208801611fcc565b83519083019061245d818360208801611fcc565b01949350505050565b601f82111561067357600081815260208120601f850160051c8101602086101561248d5750805b601f850160051c820191505b818110156124ac57828155600101612499565b505050505050565b815167ffffffffffffffff8111156124ce576124ce61216f565b6124e2816124dc8454612303565b84612466565b602080601f83116001811461251757600084156124ff5750858301515b600019600386901b1c1916600185901b1785556124ac565b600085815260208120601f198616915b8281101561254657888601518255948401946001909101908401612527565b50858210156125645787850151600019600388901b60f8161c191681555b5050505050600190811b01905550565b7f416363657373436f6e74726f6c3a206163636f756e74200000000000000000008152600083516125ac816017850160208801611fcc565b7001034b99036b4b9b9b4b733903937b6329607d1b60179184019182015283516125dd816028840160208801611fcc565b01602801949350505050565b6001600160a01b038581168252841660208201526040810183905260806060820181905260009061261c90830184611ff0565b9695505050505050565b60006020828403121561263857600080fd5b81516116a881611f99565b634e487b7160e01b600052601160045260246000fd5b808202811582820484141761049f5761049f612643565b8082018082111561049f5761049f612643565b60008161269257612692612643565b506000190190565b8181038181111561049f5761049f612643565b634e487b7160e01b600052603160045260246000fdfea2646970667358221220a2392bdc20dbaffee12d3f489608df3ad0a9df397ce4788aba24ea8246028bd664736f6c63430008120033",
  "linkReferences": {},
  "deployedLinkReferences": {}
}