{
  "_format": "hh-sol-artifact-1",
  "contractName": "MintableERC20",
  "sourceName": "src/mocks/token/MintableERC20.sol",
  "abi": [
    {
      "inputs": [
        {
          "internalType": "string",
          "name": "_name",
          "type": "string"
        },
        {
          "internalType": "string",
          "name": "_symbol",
          "type": "string"
        }
      ],
      "stateMutability": "nonpayable",
      "type": "constructor"
    },
    {
      "anonymous": false,
      "inputs": [
        {
          "indexed": true,
          "internalType": "address",
          "name": "owner",
          "type": "address"
        },
        {
          "indexed": true,
          "internalType": "address",
          "name": "spender",
          "type": "address"
        },
        {
          "indexed": false,
          "internalType": "uint256",
          "name": "value",
          "type": "uint256"
        }
      ],
      "name": "Approval",
      "type": "event"
    },
    {
      "anonymous": false,
      "inputs": [
        {
          "indexed": true,
          "internalType": "address",
          "name": "from",
          "type": "address"
        },
        {
          "indexed": true,
          "internalType": "address",
          "name": "to",
          "type": "address"
        },
        {
          "indexed": false,
          "internalType": "uint256",
          "name": "value",
          "type": "uint256"
        }
      ],
      "name": "Transfer",
      "type": "event"
    },
    {
      "inputs": [
        {
          "internalType": "address",
          "name": "owner",
          "type": "address"
        },
        {
          "internalType": "address",
          "name": "spender",
          "type": "address"
        }
      ],
      "name": "allowance",
      "outputs": [
        {
          "internalType": "uint256",
          "name": "",
          "type": "uint256"
        }
      ],
      "stateMutability": "view",
      "type": "function"
    },
    {
      "inputs": [
        {
          "internalType": "address",
          "name": "spender",
          "type": "address"
        },
        {
          "internalType": "uint256",
          "name": "amount",
          "type": "uint256"
        }
      ],
      "name": "approve",
      "outputs": [
        {
          "internalType": "bool",
          "name": "",
          "type": "bool"
        }
      ],
      "stateMutability": "nonpayable",
      "type": "function"
    },
    {
      "inputs": [
        {
          "internalType": "address",
          "name": "account",
          "type": "address"
        }
      ],
      "name": "balanceOf",
      "outputs": [
        {
          "internalType": "uint256",
          "name": "",
          "type": "uint256"
        }
      ],
      "stateMutability": "view",
      "type": "function"
    },
    {
      "inputs": [
        {
          "internalType": "uint256",
          "name": "amount",
          "type": "uint256"
        }
      ],
      "name": "burn",
      "outputs": [],
      "stateMutability": "nonpayable",
      "type": "function"
    },
    {
      "inputs": [
        {
          "internalType": "address",
          "name": "account",
          "type": "address"
        },
        {
          "internalType": "uint256",
          "name": "amount",
          "type": "uint256"
        }
      ],
      "name": "burnFrom",
      "outputs": [],
      "stateMutability": "nonpayable",
      "type": "function"
    },
    {
      "inputs": [],
      "name": "decimals",
      "outputs": [
        {
          "internalType": "uint8",
          "name": "",
          "type": "uint8"
        }
      ],
      "stateMutability": "view",
      "type": "function"
    },
    {
      "inputs": [
        {
          "internalType": "address",
          "name": "spender",
          "type": "address"
        },
        {
          "internalType": "uint256",
          "name": "subtractedValue",
          "type": "uint256"
        }
      ],
      "name": "decreaseAllowance",
      "outputs": [
        {
          "internalType": "bool",
          "name": "",
          "type": "bool"
        }
      ],
      "stateMutability": "nonpayable",
      "type": "function"
    },
    {
      "inputs": [],
      "name": "getCycle",
      "outputs": [
        {
          "internalType": "uint256",
          "name": "",
          "type": "uint256"
        }
      ],
      "stateMutability": "view",
      "type": "function"
    },
    {
      "inputs": [
        {
          "internalType": "address",
          "name": "spender",
          "type": "address"
        },
        {
          "internalType": "uint256",
          "name": "addedValue",
          "type": "uint256"
        }
      ],
      "name": "increaseAllowance",
      "outputs": [
        {
          "internalType": "bool",
          "name": "",
          "type": "bool"
        }
      ],
      "stateMutability": "nonpayable",
      "type": "function"
    },
    {
      "inputs": [
        {
          "internalType": "uint256",
          "name": "value",
          "type": "uint256"
        }
      ],
      "name": "mint",
      "outputs": [
        {
          "internalType": "bool",
          "name": "",
          "type": "bool"
        }
      ],
      "stateMutability": "nonpayable",
      "type": "function"
    },
    {
      "inputs": [],
      "name": "name",
      "outputs": [
        {
          "internalType": "string",
          "name": "",
          "type": "string"
        }
      ],
      "stateMutability": "view",
      "type": "function"
    },
    {
      "inputs": [],
      "name": "symbol",
      "outputs": [
        {
          "internalType": "string",
          "name": "",
          "type": "string"
        }
      ],
      "stateMutability": "view",
      "type": "function"
    },
    {
      "inputs": [],
      "name": "test",
      "outputs": [],
      "stateMutability": "nonpayable",
      "type": "function"
    },
    {
      "inputs": [],
      "name": "totalSupply",
      "outputs": [
        {
          "internalType": "uint256",
          "name": "",
          "type": "uint256"
        }
      ],
      "stateMutability": "view",
      "type": "function"
    },
    {
      "inputs": [
        {
          "internalType": "address",
          "name": "to",
          "type": "address"
        },
        {
          "internalType": "uint256",
          "name": "amount",
          "type": "uint256"
        }
      ],
      "name": "transfer",
      "outputs": [
        {
          "internalType": "bool",
          "name": "",
          "type": "bool"
        }
      ],
      "stateMutability": "nonpayable",
      "type": "function"
    },
    {
      "inputs": [
        {
          "internalType": "address",
          "name": "from",
          "type": "address"
        },
        {
          "internalType": "address",
          "name": "to",
          "type": "address"
        },
        {
          "internalType": "uint256",
          "name": "amount",
          "type": "uint256"
        }
      ],
      "name": "transferFrom",
      "outputs": [
        {
          "internalType": "bool",
          "name": "",
          "type": "bool"
        }
      ],
      "stateMutability": "nonpayable",
      "type": "function"
    }
  ],
  "bytecode": "0x60806040523480156200001157600080fd5b5060405162000e5d38038062000e5d833981016040819052620000349162000137565b8181600362000044838262000230565b50600462000053828262000230565b50506005546200006691506001620002fc565b60055550620003249050565b634e487b7160e01b600052604160045260246000fd5b600082601f8301126200009a57600080fd5b81516001600160401b0380821115620000b757620000b762000072565b604051601f8301601f19908116603f01168101908282118183101715620000e257620000e262000072565b81604052838152602092508683858801011115620000ff57600080fd5b600091505b8382101562000123578582018301518183018401529082019062000104565b600093810190920192909252949350505050565b600080604083850312156200014b57600080fd5b82516001600160401b03808211156200016357600080fd5b620001718683870162000088565b935060208501519150808211156200018857600080fd5b50620001978582860162000088565b9150509250929050565b600181811c90821680620001b657607f821691505b602082108103620001d757634e487b7160e01b600052602260045260246000fd5b50919050565b601f8211156200022b57600081815260208120601f850160051c81016020861015620002065750805b601f850160051c820191505b81811015620002275782815560010162000212565b5050505b505050565b81516001600160401b038111156200024c576200024c62000072565b62000264816200025d8454620001a1565b84620001dd565b602080601f8311600181146200029c5760008415620002835750858301515b600019600386901b1c1916600185901b17855562000227565b600085815260208120601f198616915b82811015620002cd57888601518255948401946001909101908401620002ac565b5085821015620002ec5787850151600019600388901b60f8161c191681555b5050505050600190811b01905550565b808201808211156200031e57634e487b7160e01b600052601160045260246000fd5b92915050565b610b2980620003346000396000f3fe608060405234801561001057600080fd5b50600436106101005760003560e01c806370a0823111610097578063a457c2d711610066578063a457c2d714610201578063a9059cbb14610214578063dd62ed3e14610227578063f8a8fd6d146101a057600080fd5b806370a08231146101aa57806379cc6790146101d357806395d89b41146101e6578063a0712d68146101ee57600080fd5b8063313ce567116100d3578063313ce5671461016b578063395093511461017a57806342966c681461018d578063655bce22146101a257600080fd5b806306fdde0314610105578063095ea7b31461012357806318160ddd1461014657806323b872dd14610158575b600080fd5b61010d61023a565b60405161011a919061095a565b60405180910390f35b6101366101313660046109c4565b6102cc565b604051901515815260200161011a565b6002545b60405190815260200161011a565b6101366101663660046109ee565b6102e6565b6040516012815260200161011a565b6101366101883660046109c4565b61030a565b6101a061019b366004610a2a565b61032c565b005b60055461014a565b61014a6101b8366004610a43565b6001600160a01b031660009081526020819052604090205490565b6101a06101e13660046109c4565b610339565b61010d610352565b6101366101fc366004610a2a565b610361565b61013661020f3660046109c4565b610375565b6101366102223660046109c4565b6103f5565b61014a610235366004610a65565b610403565b60606003805461024990610a98565b80601f016020809104026020016040519081016040528092919081815260200182805461027590610a98565b80156102c25780601f10610297576101008083540402835291602001916102c2565b820191906000526020600020905b8154815290600101906020018083116102a557829003601f168201915b5050505050905090565b6000336102da81858561042e565b60019150505b92915050565b6000336102f4858285610553565b6102ff8585856105cd565b506001949350505050565b6000336102da81858561031d8383610403565b6103279190610ad2565b61042e565b6103363382610771565b50565b610344823383610553565b61034e8282610771565b5050565b60606004805461024990610a98565b600061036d338361089b565b506001919050565b600033816103838286610403565b9050838110156103e85760405162461bcd60e51b815260206004820152602560248201527f45524332303a2064656372656173656420616c6c6f77616e63652062656c6f77604482015264207a65726f60d81b60648201526084015b60405180910390fd5b6102ff828686840361042e565b6000336102da8185856105cd565b6001600160a01b03918216600090815260016020908152604080832093909416825291909152205490565b6001600160a01b0383166104905760405162461bcd60e51b8152602060048201526024808201527f45524332303a20617070726f76652066726f6d20746865207a65726f206164646044820152637265737360e01b60648201526084016103df565b6001600160a01b0382166104f15760405162461bcd60e51b815260206004820152602260248201527f45524332303a20617070726f766520746f20746865207a65726f206164647265604482015261737360f01b60648201526084016103df565b6001600160a01b0383811660008181526001602090815260408083209487168084529482529182902085905590518481527f8c5be1e5ebec7d5bd14f71427d1e84f3dd0314c0f7b2291e5b200ac8c7c3b92591015b60405180910390a3505050565b600061055f8484610403565b905060001981146105c757818110156105ba5760405162461bcd60e51b815260206004820152601d60248201527f45524332303a20696e73756666696369656e7420616c6c6f77616e636500000060448201526064016103df565b6105c7848484840361042e565b50505050565b6001600160a01b0383166106315760405162461bcd60e51b815260206004820152602560248201527f45524332303a207472616e736665722066726f6d20746865207a65726f206164604482015264647265737360d81b60648201526084016103df565b6001600160a01b0382166106935760405162461bcd60e51b815260206004820152602360248201527f45524332303a207472616e7366657220746f20746865207a65726f206164647260448201526265737360e81b60648201526084016103df565b6001600160a01b0383166000908152602081905260409020548181101561070b5760405162461bcd60e51b815260206004820152602660248201527f45524332303a207472616e7366657220616d6f756e7420657863656564732062604482015265616c616e636560d01b60648201526084016103df565b6001600160a01b03848116600081815260208181526040808320878703905593871680835291849020805487019055925185815290927fddf252ad1be2c89b69c2b068fc378daa952ba7f163c4a11628f55a4df523b3ef910160405180910390a36105c7565b6001600160a01b0382166107d15760405162461bcd60e51b815260206004820152602160248201527f45524332303a206275726e2066726f6d20746865207a65726f206164647265736044820152607360f81b60648201526084016103df565b6001600160a01b038216600090815260208190526040902054818110156108455760405162461bcd60e51b815260206004820152602260248201527f45524332303a206275726e20616d6f756e7420657863656564732062616c616e604482015261636560f01b60648201526084016103df565b6001600160a01b0383166000818152602081815260408083208686039055600280548790039055518581529192917fddf252ad1be2c89b69c2b068fc378daa952ba7f163c4a11628f55a4df523b3ef9101610546565b6001600160a01b0382166108f15760405162461bcd60e51b815260206004820152601f60248201527f45524332303a206d696e7420746f20746865207a65726f20616464726573730060448201526064016103df565b80600260008282546109039190610ad2565b90915550506001600160a01b038216600081815260208181526040808320805486019055518481527fddf252ad1be2c89b69c2b068fc378daa952ba7f163c4a11628f55a4df523b3ef910160405180910390a35050565b600060208083528351808285015260005b818110156109875785810183015185820160400152820161096b565b506000604082860101526040601f19601f8301168501019250505092915050565b80356001600160a01b03811681146109bf57600080fd5b919050565b600080604083850312156109d757600080fd5b6109e0836109a8565b946020939093013593505050565b600080600060608486031215610a0357600080fd5b610a0c846109a8565b9250610a1a602085016109a8565b9150604084013590509250925092565b600060208284031215610a3c57600080fd5b5035919050565b600060208284031215610a5557600080fd5b610a5e826109a8565b9392505050565b60008060408385031215610a7857600080fd5b610a81836109a8565b9150610a8f602084016109a8565b90509250929050565b600181811c90821680610aac57607f821691505b602082108103610acc57634e487b7160e01b600052602260045260246000fd5b50919050565b808201808211156102e057634e487b7160e01b600052601160045260246000fdfea2646970667358221220fb84eeb32dacd97c44a69966f5d7e3a95662c292ac1f3927df8eba17f975b63b64736f6c63430008120033",
  "linkReferences": {},
  "deployedLinkReferences": {}
}