{
  "_format": "hh-sol-artifact-1",
  "contractName": "RewardPoolV2",
  "sourceName": "src/mocks/utils/RewardPoolV2.test.sol",
  "abi": [
    {
      "inputs": [],
      "name": "AmountIsOverAvailableRewardsToWithdraw",
      "type": "error"
    },
    {
      "inputs": [],
      "name": "AmountRequestedIsZero",
      "type": "error"
    },
    {
      "inputs": [],
      "name": "BalanceIsNotEnough",
      "type": "error"
    },
    {
      "inputs": [],
      "name": "CallerShouldNotBeThisContract",
      "type": "error"
    },
    {
      "inputs": [],
      "name": "NotEnoughRewards",
      "type": "error"
    },
    {
      "inputs": [],
      "name": "RewardsRateLimitingInEffect",
      "type": "error"
    },
    {
      "inputs": [],
      "name": "TargetAddressIsContractAddress",
      "type": "error"
    },
    {
      "inputs": [],
      "name": "TargetAddressIsZero",
      "type": "error"
    },
    {
      "inputs": [],
      "name": "TotalRewardsAreZero",
      "type": "error"
    },
    {
      "inputs": [],
      "name": "TransferFailed",
      "type": "error"
    },
    {
      "inputs": [],
      "name": "ZeroTokensToTransfer",
      "type": "error"
    },
    {
      "anonymous": false,
      "inputs": [
        {
          "indexed": false,
          "internalType": "address",
          "name": "previousAdmin",
          "type": "address"
        },
        {
          "indexed": false,
          "internalType": "address",
          "name": "newAdmin",
          "type": "address"
        }
      ],
      "name": "AdminChanged",
      "type": "event"
    },
    {
      "anonymous": false,
      "inputs": [
        {
          "indexed": true,
          "internalType": "address",
          "name": "beacon",
          "type": "address"
        }
      ],
      "name": "BeaconUpgraded",
      "type": "event"
    },
    {
      "anonymous": false,
      "inputs": [
        {
          "indexed": true,
          "internalType": "address",
          "name": "to",
          "type": "address"
        },
        {
          "indexed": false,
          "internalType": "uint256",
          "name": "amount",
          "type": "uint256"
        }
      ],
      "name": "BusinessDevTokensTransferred",
      "type": "event"
    },
    {
      "anonymous": false,
      "inputs": [
        {
          "indexed": true,
          "internalType": "address",
          "name": "account",
          "type": "address"
        },
        {
          "indexed": false,
          "internalType": "uint256",
          "name": "amount",
          "type": "uint256"
        }
      ],
      "name": "Claimed",
      "type": "event"
    },
    {
      "anonymous": false,
      "inputs": [
        {
          "indexed": true,
          "internalType": "address",
          "name": "to",
          "type": "address"
        },
        {
          "indexed": false,
          "internalType": "uint256",
          "name": "amount",
          "type": "uint256"
        }
      ],
      "name": "CompanyTokensTransferred",
      "type": "event"
    },
    {
      "anonymous": false,
      "inputs": [
        {
          "indexed": false,
          "internalType": "uint8",
          "name": "version",
          "type": "uint8"
        }
      ],
      "name": "Initialized",
      "type": "event"
    },
    {
      "anonymous": false,
      "inputs": [
        {
          "indexed": false,
          "internalType": "address",
          "name": "account",
          "type": "address"
        }
      ],
      "name": "Paused",
      "type": "event"
    },
    {
      "anonymous": false,
      "inputs": [
        {
          "indexed": true,
          "internalType": "bytes32",
          "name": "role",
          "type": "bytes32"
        },
        {
          "indexed": true,
          "internalType": "bytes32",
          "name": "previousAdminRole",
          "type": "bytes32"
        },
        {
          "indexed": true,
          "internalType": "bytes32",
          "name": "newAdminRole",
          "type": "bytes32"
        }
      ],
      "name": "RoleAdminChanged",
      "type": "event"
    },
    {
      "anonymous": false,
      "inputs": [
        {
          "indexed": true,
          "internalType": "bytes32",
          "name": "role",
          "type": "bytes32"
        },
        {
          "indexed": true,
          "internalType": "address",
          "name": "account",
          "type": "address"
        },
        {
          "indexed": true,
          "internalType": "address",
          "name": "sender",
          "type": "address"
        }
      ],
      "name": "RoleGranted",
      "type": "event"
    },
    {
      "anonymous": false,
      "inputs": [
        {
          "indexed": true,
          "internalType": "bytes32",
          "name": "role",
          "type": "bytes32"
        },
        {
          "indexed": true,
          "internalType": "address",
          "name": "account",
          "type": "address"
        },
        {
          "indexed": true,
          "internalType": "address",
          "name": "sender",
          "type": "address"
        }
      ],
      "name": "RoleRevoked",
      "type": "event"
    },
    {
      "anonymous": false,
      "inputs": [
        {
          "indexed": false,
          "internalType": "uint256",
          "name": "cycle",
          "type": "uint256"
        },
        {
          "indexed": false,
          "internalType": "bytes32",
          "name": "root",
          "type": "bytes32"
        }
      ],
      "name": "SubmittedRootHash",
      "type": "event"
    },
    {
      "anonymous": false,
      "inputs": [
        {
          "indexed": false,
          "internalType": "address",
          "name": "account",
          "type": "address"
        }
      ],
      "name": "Unpaused",
      "type": "event"
    },
    {
      "anonymous": false,
      "inputs": [
        {
          "indexed": true,
          "internalType": "address",
          "name": "implementation",
          "type": "address"
        }
      ],
      "name": "Upgraded",
      "type": "event"
    },
    {
      "inputs": [],
      "name": "DEFAULT_ADMIN_ROLE",
      "outputs": [
        {
          "internalType": "bytes32",
          "name": "",
          "type": "bytes32"
        }
      ],
      "stateMutability": "view",
      "type": "function"
    },
    {
      "inputs": [],
      "name": "DISTRIBUTOR_ROLE",
      "outputs": [
        {
          "internalType": "bytes32",
          "name": "",
          "type": "bytes32"
        }
      ],
      "stateMutability": "view",
      "type": "function"
    },
    {
      "inputs": [],
      "name": "UPGRADER_ROLE",
      "outputs": [
        {
          "internalType": "bytes32",
          "name": "",
          "type": "bytes32"
        }
      ],
      "stateMutability": "view",
      "type": "function"
    },
    {
      "inputs": [
        {
          "internalType": "uint256",
          "name": "",
          "type": "uint256"
        }
      ],
      "name": "businessDevAllocatedTokens",
      "outputs": [
        {
          "internalType": "uint256",
          "name": "",
          "type": "uint256"
        }
      ],
      "stateMutability": "view",
      "type": "function"
    },
    {
      "inputs": [],
      "name": "businessDevTokensTarget",
      "outputs": [
        {
          "internalType": "address",
          "name": "",
          "type": "address"
        }
      ],
      "stateMutability": "view",
      "type": "function"
    },
    {
      "inputs": [
        {
          "internalType": "uint256",
          "name": "amount",
          "type": "uint256"
        },
        {
          "internalType": "uint256",
          "name": "totalRewards",
          "type": "uint256"
        },
        {
          "internalType": "uint256",
          "name": "cycle",
          "type": "uint256"
        },
        {
          "internalType": "bytes32[]",
          "name": "proof",
          "type": "bytes32[]"
        }
      ],
      "name": "claim",
      "outputs": [],
      "stateMutability": "nonpayable",
      "type": "function"
    },
    {
      "inputs": [],
      "name": "claimedRewards",
      "outputs": [
        {
          "internalType": "uint256",
          "name": "",
          "type": "uint256"
        }
      ],
      "stateMutability": "view",
      "type": "function"
    },
    {
      "inputs": [
        {
          "internalType": "address",
          "name": "",
          "type": "address"
        }
      ],
      "name": "claims",
      "outputs": [
        {
          "internalType": "uint256",
          "name": "",
          "type": "uint256"
        }
      ],
      "stateMutability": "view",
      "type": "function"
    },
    {
      "inputs": [],
      "name": "companyTokensTarget",
      "outputs": [
        {
          "internalType": "address",
          "name": "",
          "type": "address"
        }
      ],
      "stateMutability": "view",
      "type": "function"
    },
    {
      "inputs": [],
      "name": "companyWithdrawals",
      "outputs": [
        {
          "internalType": "uint256",
          "name": "",
          "type": "uint256"
        }
      ],
      "stateMutability": "view",
      "type": "function"
    },
    {
      "inputs": [
        {
          "internalType": "uint256",
          "name": "",
          "type": "uint256"
        }
      ],
      "name": "dailyAllocatedRewards",
      "outputs": [
        {
          "internalType": "uint256",
          "name": "",
          "type": "uint256"
        }
      ],
      "stateMutability": "view",
      "type": "function"
    },
    {
      "inputs": [],
      "name": "data",
      "outputs": [
        {
          "internalType": "contract WeatherXMData",
          "name": "",
          "type": "address"
        }
      ],
      "stateMutability": "view",
      "type": "function"
    },
    {
      "inputs": [
        {
          "internalType": "address",
          "name": "account",
          "type": "address"
        },
        {
          "internalType": "uint256",
          "name": "amount",
          "type": "uint256"
        },
        {
          "internalType": "uint256",
          "name": "cycle",
          "type": "uint256"
        },
        {
          "internalType": "bytes32[]",
          "name": "proof",
          "type": "bytes32[]"
        }
      ],
      "name": "getRemainingAllocatedRewards",
      "outputs": [
        {
          "internalType": "uint256",
          "name": "",
          "type": "uint256"
        }
      ],
      "stateMutability": "view",
      "type": "function"
    },
    {
      "inputs": [
        {
          "internalType": "bytes32",
          "name": "role",
          "type": "bytes32"
        }
      ],
      "name": "getRoleAdmin",
      "outputs": [
        {
          "internalType": "bytes32",
          "name": "",
          "type": "bytes32"
        }
      ],
      "stateMutability": "view",
      "type": "function"
    },
    {
      "inputs": [
        {
          "internalType": "bytes32",
          "name": "role",
          "type": "bytes32"
        },
        {
          "internalType": "uint256",
          "name": "index",
          "type": "uint256"
        }
      ],
      "name": "getRoleMember",
      "outputs": [
        {
          "internalType": "address",
          "name": "",
          "type": "address"
        }
      ],
      "stateMutability": "view",
      "type": "function"
    },
    {
      "inputs": [
        {
          "internalType": "bytes32",
          "name": "role",
          "type": "bytes32"
        }
      ],
      "name": "getRoleMemberCount",
      "outputs": [
        {
          "internalType": "uint256",
          "name": "",
          "type": "uint256"
        }
      ],
      "stateMutability": "view",
      "type": "function"
    },
    {
      "inputs": [
        {
          "internalType": "bytes32",
          "name": "role",
          "type": "bytes32"
        },
        {
          "internalType": "address",
          "name": "account",
          "type": "address"
        }
      ],
      "name": "grantRole",
      "outputs": [],
      "stateMutability": "nonpayable",
      "type": "function"
    },
    {
      "inputs": [
        {
          "internalType": "bytes32",
          "name": "role",
          "type": "bytes32"
        },
        {
          "internalType": "address",
          "name": "account",
          "type": "address"
        }
      ],
      "name": "hasRole",
      "outputs": [
        {
          "internalType": "bool",
          "name": "",
          "type": "bool"
        }
      ],
      "stateMutability": "view",
      "type": "function"
    },
    {
      "inputs": [
        {
          "internalType": "address",
          "name": "_token",
          "type": "address"
        },
        {
          "internalType": "address",
          "name": "_data",
          "type": "address"
        }
      ],
      "name": "initialize",
      "outputs": [],
      "stateMutability": "nonpayable",
      "type": "function"
    },
    {
      "inputs": [],
      "name": "latestBusinessDevWithdrawal",
      "outputs": [
        {
          "internalType": "uint256",
          "name": "",
          "type": "uint256"
        }
      ],
      "stateMutability": "view",
      "type": "function"
    },
    {
      "inputs": [],
      "name": "latestCompanyWithdrawal",
      "outputs": [
        {
          "internalType": "uint256",
          "name": "",
          "type": "uint256"
        }
      ],
      "stateMutability": "view",
      "type": "function"
    },
    {
      "inputs": [],
      "name": "pause",
      "outputs": [],
      "stateMutability": "nonpayable",
      "type": "function"
    },
    {
      "inputs": [],
      "name": "paused",
      "outputs": [
        {
          "internalType": "bool",
          "name": "",
          "type": "bool"
        }
      ],
      "stateMutability": "view",
      "type": "function"
    },
    {
      "inputs": [],
      "name": "proxiableUUID",
      "outputs": [
        {
          "internalType": "bytes32",
          "name": "",
          "type": "bytes32"
        }
      ],
      "stateMutability": "view",
      "type": "function"
    },
    {
      "inputs": [
        {
          "internalType": "bytes32",
          "name": "role",
          "type": "bytes32"
        },
        {
          "internalType": "address",
          "name": "account",
          "type": "address"
        }
      ],
      "name": "renounceRole",
      "outputs": [],
      "stateMutability": "nonpayable",
      "type": "function"
    },
    {
      "inputs": [
        {
          "internalType": "bytes32",
          "name": "role",
          "type": "bytes32"
        },
        {
          "internalType": "address",
          "name": "account",
          "type": "address"
        }
      ],
      "name": "revokeRole",
      "outputs": [],
      "stateMutability": "nonpayable",
      "type": "function"
    },
    {
      "inputs": [
        {
          "internalType": "uint256",
          "name": "",
          "type": "uint256"
        }
      ],
      "name": "roots",
      "outputs": [
        {
          "internalType": "bytes32",
          "name": "",
          "type": "bytes32"
        }
      ],
      "stateMutability": "view",
      "type": "function"
    },
    {
      "inputs": [
        {
          "internalType": "address",
          "name": "target",
          "type": "address"
        }
      ],
      "name": "setBusinessDevTarget",
      "outputs": [],
      "stateMutability": "nonpayable",
      "type": "function"
    },
    {
      "inputs": [
        {
          "internalType": "address",
          "name": "target",
          "type": "address"
        }
      ],
      "name": "setCompanyTarget",
      "outputs": [],
      "stateMutability": "nonpayable",
      "type": "function"
    },
    {
      "inputs": [
        {
          "internalType": "bytes32",
          "name": "root",
          "type": "bytes32"
        },
        {
          "internalType": "uint256",
          "name": "dailyCumulativeRewards",
          "type": "uint256"
        }
      ],
      "name": "submitMerkleRoot",
      "outputs": [
        {
          "internalType": "bool",
          "name": "",
          "type": "bool"
        }
      ],
      "stateMutability": "nonpayable",
      "type": "function"
    },
    {
      "inputs": [
        {
          "internalType": "bytes4",
          "name": "interfaceId",
          "type": "bytes4"
        }
      ],
      "name": "supportsInterface",
      "outputs": [
        {
          "internalType": "bool",
          "name": "",
          "type": "bool"
        }
      ],
      "stateMutability": "view",
      "type": "function"
    },
    {
      "inputs": [],
      "name": "test",
      "outputs": [],
      "stateMutability": "nonpayable",
      "type": "function"
    },
    {
      "inputs": [],
      "name": "token",
      "outputs": [
        {
          "internalType": "contract IWeatherXM",
          "name": "",
          "type": "address"
        }
      ],
      "stateMutability": "view",
      "type": "function"
    },
    {
      "inputs": [],
      "name": "totalAllocatedRewards",
      "outputs": [
        {
          "internalType": "uint256",
          "name": "",
          "type": "uint256"
        }
      ],
      "stateMutability": "view",
      "type": "function"
    },
    {
      "inputs": [],
      "name": "transferBusinessDevTokens",
      "outputs": [],
      "stateMutability": "nonpayable",
      "type": "function"
    },
    {
      "inputs": [],
      "name": "transferCompanyTokens",
      "outputs": [],
      "stateMutability": "nonpayable",
      "type": "function"
    },
    {
      "inputs": [
        {
          "internalType": "address",
          "name": "to",
          "type": "address"
        },
        {
          "internalType": "uint256",
          "name": "amount",
          "type": "uint256"
        },
        {
          "internalType": "uint256",
          "name": "totalRewards",
          "type": "uint256"
        },
        {
          "internalType": "uint256",
          "name": "cycle",
          "type": "uint256"
        },
        {
          "internalType": "bytes32[]",
          "name": "proof",
          "type": "bytes32[]"
        }
      ],
      "name": "transferRewards",
      "outputs": [
        {
          "internalType": "bool",
          "name": "",
          "type": "bool"
        }
      ],
      "stateMutability": "nonpayable",
      "type": "function"
    },
    {
      "inputs": [],
      "name": "unpause",
      "outputs": [],
      "stateMutability": "nonpayable",
      "type": "function"
    },
    {
      "inputs": [
        {
          "internalType": "address",
          "name": "newImplementation",
          "type": "address"
        }
      ],
      "name": "upgradeTo",
      "outputs": [],
      "stateMutability": "nonpayable",
      "type": "function"
    },
    {
      "inputs": [
        {
          "internalType": "address",
          "name": "newImplementation",
          "type": "address"
        },
        {
          "internalType": "bytes",
          "name": "data",
          "type": "bytes"
        }
      ],
      "name": "upgradeToAndCall",
      "outputs": [],
      "stateMutability": "payable",
      "type": "function"
    },
    {
      "inputs": [],
      "name": "version",
      "outputs": [
        {
          "internalType": "string",
          "name": "",
          "type": "string"
        }
      ],
      "stateMutability": "pure",
      "type": "function"
    }
  ],
  "bytecode": "0x60a0604052306080523480156200001557600080fd5b506200002062000026565b620000e8565b600054610100900460ff1615620000935760405162461bcd60e51b815260206004820152602760248201527f496e697469616c697a61626c653a20636f6e747261637420697320696e697469604482015266616c697a696e6760c81b606482015260840160405180910390fd5b60005460ff9081161015620000e6576000805460ff191660ff9081179091556040519081527f7f26b83ff96e1f2b6a682f133852f6798a09c465da95921460cefb38474024989060200160405180910390a15b565b608051612d7d620001206000396000818161089d015281816108dd01528181611071015281816110b101526111400152612d7d6000f3fe6080604052600436106102465760003560e01c80638456cb5911610139578063d547741f116100b6578063f0bd87cc1161007a578063f0bd87cc146106cc578063f72c0d8b146106ee578063f8a8fd6d14610722578063f99e54d11461072e578063fa9d41601461074e578063fc0c546a1461076357600080fd5b8063d547741f1461063d578063dd0ea1271461065d578063e1032dda14610674578063ea25e17614610695578063ede46047146106b557600080fd5b8063a217fddf116100fd578063a217fddf1461058c578063a3fe3b6a146105a1578063c2b40ae4146105c1578063c6788bdd146105ef578063ca15c8731461061d57600080fd5b80638456cb59146104e95780638839ab89146104fe5780639010d07c1461051e57806391d148541461053e578063a20ee7491461055e57600080fd5b8063485cc955116101c757806354fd4d501161018b57806354fd4d50146104505780635c975abb1461048157806369d63d5a1461049a57806372f02c01146104b157806373d4a13a146104c857600080fd5b8063485cc955146103d35780634a57f197146103f35780634c77d81c146104085780634f1ef2861461042857806352d1902d1461043b57600080fd5b806336568abe1161020e57806336568abe146103175780633659cfe6146103375780633f4ba83a1461035757806344eaaa131461036c5780634625da45146103a557600080fd5b806301ffc9a71461024b5780630af783de1461028057806322e9c08d146102a2578063248a9ca3146102c75780632f2ff15d146102f7575b600080fd5b34801561025757600080fd5b5061026b6102663660046126f8565b610784565b60405190151581526020015b60405180910390f35b34801561028c57600080fd5b506102a061029b36600461273e565b6107af565b005b3480156102ae57600080fd5b506102b96101985481565b604051908152602001610277565b3480156102d357600080fd5b506102b96102e2366004612759565b600090815260fb602052604090206001015490565b34801561030357600080fd5b506102a0610312366004612772565b6107e6565b34801561032357600080fd5b506102a0610332366004612772565b610810565b34801561034357600080fd5b506102a061035236600461273e565b610893565b34801561036357600080fd5b506102a0610972565b34801561037857600080fd5b5061019a5461038d906001600160a01b031681565b6040516001600160a01b039091168152602001610277565b3480156103b157600080fd5b506102b96103c0366004612759565b61019d6020526000908152604090205481565b3480156103df57600080fd5b506102a06103ee36600461279e565b610985565b3480156103ff57600080fd5b506102a0610b21565b34801561041457600080fd5b5061026b6104233660046127c8565b610d7b565b6102a0610436366004612800565b611067565b34801561044757600080fd5b506102b9611133565b34801561045c57600080fd5b5060408051808201825260028152612b1960f11b6020820152905161027791906128e6565b34801561048d57600080fd5b5061015f5460ff1661026b565b3480156104a657600080fd5b506102b961019c5481565b3480156104bd57600080fd5b506102b96101975481565b3480156104d457600080fd5b506101925461038d906001600160a01b031681565b3480156104f557600080fd5b506102a06111e6565b34801561050a57600080fd5b506102b9610519366004612965565b6111f9565b34801561052a57600080fd5b5061038d6105393660046127c8565b61123c565b34801561054a57600080fd5b5061026b610559366004612772565b61125c565b34801561056a57600080fd5b506102b9610579366004612759565b61019e6020526000908152604090205481565b34801561059857600080fd5b506102b9600081565b3480156105ad57600080fd5b506102a06105bc36600461273e565b611287565b3480156105cd57600080fd5b506102b96105dc366004612759565b6101946020526000908152604090205481565b3480156105fb57600080fd5b506102b961060a36600461273e565b6101936020526000908152604090205481565b34801561062957600080fd5b506102b9610638366004612759565b6112be565b34801561064957600080fd5b506102a0610658366004612772565b6112d6565b34801561066957600080fd5b506102b96101995481565b34801561068057600080fd5b5061019b5461038d906001600160a01b031681565b3480156106a157600080fd5b506102a06106b03660046129cd565b6112fb565b3480156106c157600080fd5b506102b961019f5481565b3480156106d857600080fd5b506102b9600080516020612ce183398151915281565b3480156106fa57600080fd5b506102b97f189ab7a9244df0848122154315af71fe140f3db0fe014031783b0946b8c9d2e381565b3480156102a057600080fd5b34801561073a57600080fd5b5061026b610749366004612a11565b61152d565b34801561075a57600080fd5b506102a06117a2565b34801561076f57600080fd5b506101915461038d906001600160a01b031681565b60006001600160e01b03198216635a05180f60e01b14806107a957506107a98261197d565b92915050565b60006107ba816119b2565b6107c26119bc565b5061019a80546001600160a01b0319166001600160a01b0392909216919091179055565b600082815260fb6020526040902060010154610801816119b2565b61080b8383611a03565b505050565b6001600160a01b03811633146108855760405162461bcd60e51b815260206004820152602f60248201527f416363657373436f6e74726f6c3a2063616e206f6e6c792072656e6f756e636560448201526e103937b632b9903337b91039b2b63360891b60648201526084015b60405180910390fd5b61088f8282611a26565b5050565b6001600160a01b037f00000000000000000000000000000000000000000000000000000000000000001630036108db5760405162461bcd60e51b815260040161087c90612a82565b7f00000000000000000000000000000000000000000000000000000000000000006001600160a01b0316610924600080516020612d01833981519152546001600160a01b031690565b6001600160a01b03161461094a5760405162461bcd60e51b815260040161087c90612ace565b61095381611a49565b6040805160008082526020820190925261096f91839190611a73565b50565b600061097d816119b2565b61096f611bde565b600054610100900460ff16158080156109a55750600054600160ff909116105b806109bf5750303b1580156109bf575060005460ff166001145b610a225760405162461bcd60e51b815260206004820152602e60248201527f496e697469616c697a61626c653a20636f6e747261637420697320616c72656160448201526d191e481a5b9a5d1a585b1a5e995960921b606482015260840161087c565b6000805460ff191660011790558015610a45576000805461ff0019166101001790555b610a4d611c31565b610a55611c31565b610a5d611c58565b610a65611c87565b610a70600033611cb6565b610a9a7f189ab7a9244df0848122154315af71fe140f3db0fe014031783b0946b8c9d2e333611cb6565b61019180546001600160a01b038086166001600160a01b0319928316179092556101928054928516929091169190911790554261019581905561019655801561080b576000805461ff0019169055604051600181527f7f26b83ff96e1f2b6a682f133852f6798a09c465da95921460cefb38474024989060200160405180910390a1505050565b600080516020612ce1833981519152610b39816119b2565b610b416119bc565b610b49611cc0565b61019154604080516332ade71160e11b815290516000926001600160a01b03169163655bce22916004808301926020929190829003018187875af1158015610b95573d6000803e3d6000fd5b505050506040513d601f19601f82011682018060405250810190610bb99190612b1a565b90508061019f541115610bdf5760405163381e21f160e21b815260040160405180910390fd5b61019f546000905b828111610c6f576101925460405163a961269b60e01b815260048101839052610c65916001600160a01b03169063a961269b90602401602060405180830381865afa158015610c3a573d6000803e3d6000fd5b505050506040513d601f19601f82011682018060405250810190610c5e9190612b1a565b8390611d19565b9150600101610be7565b61019f81905561019954610c839083611d19565b610199556101915461019a5460405163a9059cbb60e01b81526001600160a01b0391821660048201526024810185905291169063a9059cbb906044016020604051808303816000875af1158015610cde573d6000803e3d6000fd5b505050506040513d601f19601f82011682018060405250810190610d029190612b33565b1580610d0c575081155b15610d2a576040516312171d8360e31b815260040160405180910390fd5b61019a546040518381526001600160a01b03909116907f5f0d506ace67ba8da0b2ba2eff209d1d6cd9f31a01c423b4936819a656021857906020015b60405180910390a250505061096f6001606555565b6000600080516020612ce1833981519152610d95816119b2565b6201518061019554421015610dbd576040516396ace71160e01b815260040160405180910390fd5b61019554610dcb9082611d19565b61019555610dd76119bc565b610191546040516370a0823160e01b81523060048201526001600160a01b03909116906370a0823190602401602060405180830381865afa158015610e20573d6000803e3d6000fd5b505050506040513d601f19601f82011682018060405250810190610e449190612b1a565b610e6761019854610e618761019754611d1990919063ffffffff16565b90611d2c565b1115610e8657604051631e6918b160e01b815260040160405180910390fd5b61019154604080516332ade71160e11b815290516000926001600160a01b03169163655bce22916004808301926020929190829003018187875af1158015610ed2573d6000803e3d6000fd5b505050506040513d601f19601f82011682018060405250810190610ef69190612b1a565b6000818152610194602090815260408083208a905561019e909152902086905561019754909150610f279086611d19565b610197556101925460405163a151058560e01b815260048101839052610f9f9187916001600160a01b039091169063a151058590602401602060405180830381865afa158015610f7b573d6000803e3d6000fd5b505050506040513d601f19601f82011682018060405250810190610e619190612b1a565b600082815261019d60209081526040808320939093556101915483516332ade71160e11b815293517f896675adf312ce3c7847c39a493487e9ba2bd568e482fae010cd7ad524d725b8946001600160a01b039092169363655bce22936004808501949193929183900301908290875af1158015611020573d6000803e3d6000fd5b505050506040513d601f19601f820116820180604052508101906110449190612b1a565b60408051918252602082018990520160405180910390a150600195945050505050565b6001600160a01b037f00000000000000000000000000000000000000000000000000000000000000001630036110af5760405162461bcd60e51b815260040161087c90612a82565b7f00000000000000000000000000000000000000000000000000000000000000006001600160a01b03166110f8600080516020612d01833981519152546001600160a01b031690565b6001600160a01b03161461111e5760405162461bcd60e51b815260040161087c90612ace565b61112782611a49565b61088f82826001611a73565b6000306001600160a01b037f000000000000000000000000000000000000000000000000000000000000000016146111d35760405162461bcd60e51b815260206004820152603860248201527f555550535570677261646561626c653a206d757374206e6f742062652063616c60448201527f6c6564207468726f7567682064656c656761746563616c6c0000000000000000606482015260840161087c565b50600080516020612d0183398151915290565b60006111f1816119b2565b61096f611d38565b60006112036119bc565b30330361122357604051630501f4f360e51b815260040160405180910390fd5b6112308686868686611d76565b90505b95945050505050565b600082815261012d602052604081206112559083611e03565b9392505050565b600091825260fb602090815260408084206001600160a01b0393909316845291905290205460ff1690565b6000611292816119b2565b61129a6119bc565b5061019b80546001600160a01b0319166001600160a01b0392909216919091179055565b600081815261012d602052604081206107a990611e0f565b600082815260fb60205260409020600101546112f1816119b2565b61080b8383611a26565b6113036119bc565b61130b611cc0565b8360000361132c57604051630c043a5560e11b815260040160405180910390fd5b8460000361134d5760405163f4bb5e6160e01b815260040160405180910390fd5b610191546040516370a0823160e01b815230600482015286916001600160a01b0316906370a0823190602401602060405180830381865afa158015611396573d6000803e3d6000fd5b505050506040513d601f19601f820116820180604052508101906113ba9190612b1a565b10156113d95760405163c6cf63c160e01b815260040160405180910390fd5b6113e63385858585611d76565b8511156114065760405163098876cb60e31b815260040160405180910390fd5b33600090815261019360205260409020546114219086611d19565b3360009081526101936020526040902055610198546114409086611d19565b61019855610191546001600160a01b031663a9059cbb336040516001600160e01b031960e084901b1681526001600160a01b039091166004820152602481018890526044016020604051808303816000875af11580156114a4573d6000803e3d6000fd5b505050506040513d601f19601f820116820180604052508101906114c89190612b33565b6114e5576040516312171d8360e31b815260040160405180910390fd5b60405185815233907fd8138f8a3f377c5259ca548e70e4c2de94f129f5a11036a15b69513cba2b426a9060200160405180910390a26115246001606555565b5050505050565b565b6000600080516020612ce1833981519152611547816119b2565b61154f6119bc565b611557611cc0565b876001600160a01b03811661157f576040516306a0d46d60e51b815260040160405180910390fd5b306001600160a01b038216036115a85760405163128a9f0160e31b815260040160405180910390fd5b866000036115c957604051630c043a5560e11b815260040160405180910390fd5b876000036115ea5760405163f4bb5e6160e01b815260040160405180910390fd5b610191546040516370a0823160e01b815230600482015289916001600160a01b0316906370a0823190602401602060405180830381865afa158015611633573d6000803e3d6000fd5b505050506040513d601f19601f820116820180604052508101906116579190612b1a565b10156116765760405163c6cf63c160e01b815260040160405180910390fd5b6116838988888888611d76565b8811156116a35760405163098876cb60e31b815260040160405180910390fd5b6001600160a01b038916600090815261019360205260409020546116c79089611d19565b6001600160a01b038a1660009081526101936020526040902055610198546116ef9089611d19565b610198556101915460405163a9059cbb60e01b81526001600160a01b038b81166004830152602482018b90529091169063a9059cbb906044016020604051808303816000875af1158015611747573d6000803e3d6000fd5b505050506040513d601f19601f8201168201806040525081019061176b9190612b33565b611788576040516312171d8360e31b815260040160405180910390fd5b60019250506117976001606555565b509695505050505050565b600080516020612ce18339815191526117ba816119b2565b6117c26119bc565b6117ca611cc0565b61019154604080516332ade71160e11b815290516000926001600160a01b03169163655bce22916004808301926020929190829003018187875af1158015611816573d6000803e3d6000fd5b505050506040513d601f19601f8201168201806040525081019061183a9190612b1a565b90508061019c5411156118605760405163381e21f160e21b815260040160405180910390fd5b61019c546000905b82811161189457600081815261019d602052604090205461188a908390611d19565b9150600101611868565b61019c8190556101915461019b5460405163a9059cbb60e01b81526001600160a01b0391821660048201526024810185905291169063a9059cbb906044016020604051808303816000875af11580156118f1573d6000803e3d6000fd5b505050506040513d601f19601f820116820180604052508101906119159190612b33565b158061191f575081155b1561193d576040516312171d8360e31b815260040160405180910390fd5b61019b546040518381526001600160a01b03909116907fd6fcb67aa696be356fa5dc29e690ad8e3da7fd347bf80a2f22a446b0353c8c5690602001610d66565b60006001600160e01b03198216637965db0b60e01b14806107a957506301ffc9a760e01b6001600160e01b03198316146107a9565b61096f8133611e19565b61015f5460ff161561152b5760405162461bcd60e51b815260206004820152601060248201526f14185d5cd8589b194e881c185d5cd95960821b604482015260640161087c565b611a0d8282611e72565b600082815261012d6020526040902061080b9082611ef8565b611a308282611f0d565b600082815261012d6020526040902061080b9082611f74565b7f189ab7a9244df0848122154315af71fe140f3db0fe014031783b0946b8c9d2e361088f816119b2565b7f4910fdfa16fed3260ed0e7147f7cc6da11a60208b5b9406d12a635614ffd91435460ff1615611aa65761080b83611f89565b826001600160a01b03166352d1902d6040518163ffffffff1660e01b8152600401602060405180830381865afa925050508015611b00575060408051601f3d908101601f19168201909252611afd91810190612b1a565b60015b611b635760405162461bcd60e51b815260206004820152602e60248201527f45524331393637557067726164653a206e657720696d706c656d656e7461746960448201526d6f6e206973206e6f74205555505360901b606482015260840161087c565b600080516020612d018339815191528114611bd25760405162461bcd60e51b815260206004820152602960248201527f45524331393637557067726164653a20756e737570706f727465642070726f786044820152681a58589b195555525160ba1b606482015260840161087c565b5061080b838383612025565b611be6612050565b61015f805460ff191690557f5db9ee0a495bf2e6ff9c91a7834c1ba4fdd244a5e8aa4e537bd38aeae4b073aa335b6040516001600160a01b03909116815260200160405180910390a1565b600054610100900460ff1661152b5760405162461bcd60e51b815260040161087c90612b55565b600054610100900460ff16611c7f5760405162461bcd60e51b815260040161087c90612b55565b61152b61209a565b600054610100900460ff16611cae5760405162461bcd60e51b815260040161087c90612b55565b61152b6120ce565b61088f8282611a03565b600260655403611d125760405162461bcd60e51b815260206004820152601f60248201527f5265656e7472616e637947756172643a207265656e7472616e742063616c6c00604482015260640161087c565b6002606555565b60006112558284612bb6565b6001606555565b60006112558284612bc9565b611d406119bc565b61015f805460ff191660011790557f62e78cea01bee320cd4e420270b5ea74000d11b0c9f74754ebdbfc544b05a258611c143390565b600084600003611d995760405163f4bb5e6160e01b815260040160405180910390fd5b6000611da887878787876120f5565b6001600160a01b03881660009081526101936020526040902054909150811115611df9576001600160a01b03871660009081526101936020526040902054611df1908290611d2c565b915050611233565b6000915050611233565b600061125583836121de565b60006107a9825490565b611e23828261125c565b61088f57611e3081612208565b611e3b83602061221a565b604051602001611e4c929190612bdc565b60408051601f198184030181529082905262461bcd60e51b825261087c916004016128e6565b611e7c828261125c565b61088f57600082815260fb602090815260408083206001600160a01b03851684529091529020805460ff19166001179055611eb43390565b6001600160a01b0316816001600160a01b0316837f2f8788117e7eff1d82e926ec794901d17c78024a50270940304540a733656f0d60405160405180910390a45050565b6000611255836001600160a01b0384166123b6565b611f17828261125c565b1561088f57600082815260fb602090815260408083206001600160a01b0385168085529252808320805460ff1916905551339285917ff6391f5c32d9c69d2a47ea670b442974b53935d1edc7fd64eb21e047a839171b9190a45050565b6000611255836001600160a01b038416612405565b6001600160a01b0381163b611ff65760405162461bcd60e51b815260206004820152602d60248201527f455243313936373a206e657720696d706c656d656e746174696f6e206973206e60448201526c1bdd08184818dbdb9d1c9858dd609a1b606482015260840161087c565b600080516020612d0183398151915280546001600160a01b0319166001600160a01b0392909216919091179055565b61202e836124f8565b60008251118061203b5750805b1561080b5761204a8383612538565b50505050565b61015f5460ff1661152b5760405162461bcd60e51b815260206004820152601460248201527314185d5cd8589b194e881b9bdd081c185d5cd95960621b604482015260640161087c565b600054610100900460ff166120c15760405162461bcd60e51b815260040161087c90612b55565b61015f805460ff19169055565b600054610100900460ff16611d255760405162461bcd60e51b815260040161087c90612b55565b604080516001600160a01b0387166020820152908101859052600090819060600160408051601f198184030181528282528051602091820120908301520160405160208183030381529060405280519060200120905061219784848080602002602001604051908101604052809392919081815260200183836020028082843760009201829052508a8152610194602052604090205492508591506126239050565b6121d35760405162461bcd60e51b815260206004820152600d60248201526c24a72b20a624a210282927a7a360991b604482015260640161087c565b509395945050505050565b60008260000182815481106121f5576121f5612c51565b9060005260206000200154905092915050565b60606107a96001600160a01b03831660145b60606000612229836002612c67565b612234906002612bb6565b67ffffffffffffffff81111561224c5761224c6127ea565b6040519080825280601f01601f191660200182016040528015612276576020820181803683370190505b509050600360fc1b8160008151811061229157612291612c51565b60200101906001600160f81b031916908160001a905350600f60fb1b816001815181106122c0576122c0612c51565b60200101906001600160f81b031916908160001a90535060006122e4846002612c67565b6122ef906001612bb6565b90505b6001811115612367576f181899199a1a9b1b9c1cb0b131b232b360811b85600f166010811061232357612323612c51565b1a60f81b82828151811061233957612339612c51565b60200101906001600160f81b031916908160001a90535060049490941c9361236081612c7e565b90506122f2565b5083156112555760405162461bcd60e51b815260206004820181905260248201527f537472696e67733a20686578206c656e67746820696e73756666696369656e74604482015260640161087c565b60008181526001830160205260408120546123fd575081546001818101845560008481526020808220909301849055845484825282860190935260409020919091556107a9565b5060006107a9565b600081815260018301602052604081205480156124ee576000612429600183612bc9565b855490915060009061243d90600190612bc9565b90508181146124a257600086600001828154811061245d5761245d612c51565b906000526020600020015490508087600001848154811061248057612480612c51565b6000918252602080832090910192909255918252600188019052604090208390555b85548690806124b3576124b3612c95565b6001900381819060005260206000200160009055905585600101600086815260200190815260200160002060009055600193505050506107a9565b60009150506107a9565b61250181611f89565b6040516001600160a01b038216907fbc7cd75a20ee27fd9adebab32041f755214dbc6bffa90cc0225b39da2e5c2d3b90600090a250565b60606001600160a01b0383163b6125a05760405162461bcd60e51b815260206004820152602660248201527f416464726573733a2064656c65676174652063616c6c20746f206e6f6e2d636f6044820152651b9d1c9858dd60d21b606482015260840161087c565b600080846001600160a01b0316846040516125bb9190612cab565b600060405180830381855af49150503d80600081146125f6576040519150601f19603f3d011682016040523d82523d6000602084013e6125fb565b606091505b50915091506112338282604051806060016040528060278152602001612d2160279139612639565b6000826126308584612652565b14949350505050565b60608315612648575081611255565b611255838361269f565b600081815b8451811015612697576126838286838151811061267657612676612c51565b60200260200101516126c9565b91508061268f81612cc7565b915050612657565b509392505050565b8151156126af5781518083602001fd5b8060405162461bcd60e51b815260040161087c91906128e6565b60008183106126e5576000828152602084905260409020611255565b6000838152602083905260409020611255565b60006020828403121561270a57600080fd5b81356001600160e01b03198116811461125557600080fd5b80356001600160a01b038116811461273957600080fd5b919050565b60006020828403121561275057600080fd5b61125582612722565b60006020828403121561276b57600080fd5b5035919050565b6000806040838503121561278557600080fd5b8235915061279560208401612722565b90509250929050565b600080604083850312156127b157600080fd5b6127ba83612722565b915061279560208401612722565b600080604083850312156127db57600080fd5b50508035926020909101359150565b634e487b7160e01b600052604160045260246000fd5b6000806040838503121561281357600080fd5b61281c83612722565b9150602083013567ffffffffffffffff8082111561283957600080fd5b818501915085601f83011261284d57600080fd5b81358181111561285f5761285f6127ea565b604051601f8201601f19908116603f01168101908382118183101715612887576128876127ea565b816040528281528860208487010111156128a057600080fd5b8260208601602083013760006020848301015280955050505050509250929050565b60005b838110156128dd5781810151838201526020016128c5565b50506000910152565b60208152600082518060208401526129058160408501602087016128c2565b601f01601f19169190910160400192915050565b60008083601f84011261292b57600080fd5b50813567ffffffffffffffff81111561294357600080fd5b6020830191508360208260051b850101111561295e57600080fd5b9250929050565b60008060008060006080868803121561297d57600080fd5b61298686612722565b94506020860135935060408601359250606086013567ffffffffffffffff8111156129b057600080fd5b6129bc88828901612919565b969995985093965092949392505050565b6000806000806000608086880312156129e557600080fd5b853594506020860135935060408601359250606086013567ffffffffffffffff8111156129b057600080fd5b60008060008060008060a08789031215612a2a57600080fd5b612a3387612722565b9550602087013594506040870135935060608701359250608087013567ffffffffffffffff811115612a6457600080fd5b612a7089828a01612919565b979a9699509497509295939492505050565b6020808252602c908201527f46756e6374696f6e206d7573742062652063616c6c6564207468726f7567682060408201526b19195b1959d85d1958d85b1b60a21b606082015260800190565b6020808252602c908201527f46756e6374696f6e206d7573742062652063616c6c6564207468726f7567682060408201526b6163746976652070726f787960a01b606082015260800190565b600060208284031215612b2c57600080fd5b5051919050565b600060208284031215612b4557600080fd5b8151801515811461125557600080fd5b6020808252602b908201527f496e697469616c697a61626c653a20636f6e7472616374206973206e6f74206960408201526a6e697469616c697a696e6760a81b606082015260800190565b634e487b7160e01b600052601160045260246000fd5b808201808211156107a9576107a9612ba0565b818103818111156107a9576107a9612ba0565b7f416363657373436f6e74726f6c3a206163636f756e7420000000000000000000815260008351612c148160178501602088016128c2565b7001034b99036b4b9b9b4b733903937b6329607d1b6017918401918201528351612c458160288401602088016128c2565b01602801949350505050565b634e487b7160e01b600052603260045260246000fd5b80820281158282048414176107a9576107a9612ba0565b600081612c8d57612c8d612ba0565b506000190190565b634e487b7160e01b600052603160045260246000fd5b60008251612cbd8184602087016128c2565b9190910192915050565b600060018201612cd957612cd9612ba0565b506001019056fefbd454f36a7e1a388bd6fc3ab10d434aa4578f811acbbcf33afb1c697486313c360894a13ba1a3210667c828492db98dca3e2076cc3735a920a3ca505d382bbc416464726573733a206c6f772d6c6576656c2064656c65676174652063616c6c206661696c6564a2646970667358221220791d1230ca38a802090fae497daf07df0732ef380921817ba36fc75d7c0100a864736f6c63430008120033",
  "linkReferences": {},
  "deployedLinkReferences": {}
}