{
  "_format": "hh-sol-artifact-1",
  "contractName": "WeatherXM",
  "sourceName": "src/WeatherXM.sol",
  "abi": [
    {
      "inputs": [
        {
          "internalType": "string",
          "name": "_name",
          "type": "string"
        },
        {
          "internalType": "string",
          "name": "_symbol",
          "type": "string"
        },
        {
          "internalType": "address",
          "name": "_address",
          "type": "address"
        }
      ],
      "stateMutability": "nonpayable",
      "type": "constructor"
    },
    {
      "inputs": [],
      "name": "MintingRateLimitingInEffect",
      "type": "error"
    },
    {
      "inputs": [],
      "name": "TargetAddressIsContractAddress",
      "type": "error"
    },
    {
      "inputs": [],
      "name": "TargetAddressIsZero",
      "type": "error"
    },
    {
      "inputs": [],
      "name": "TokenTransferWhilePaused",
      "type": "error"
    },
    {
      "inputs": [],
      "name": "TotalSupplyShouldNotSurpass100M",
      "type": "error"
    },
    {
      "anonymous": false,
      "inputs": [
        {
          "indexed": true,
          "internalType": "address",
          "name": "owner",
          "type": "address"
        },
        {
          "indexed": true,
          "internalType": "address",
          "name": "spender",
          "type": "address"
        },
        {
          "indexed": false,
          "internalType": "uint256",
          "name": "value",
          "type": "uint256"
        }
      ],
      "name": "Approval",
      "type": "event"
    },
    {
      "anonymous": false,
      "inputs": [
        {
          "indexed": false,
          "internalType": "uint256",
          "name": "cycle",
          "type": "uint256"
        }
      ],
      "name": "CycleBegan",
      "type": "event"
    },
    {
      "anonymous": false,
      "inputs": [
        {
          "indexed": true,
          "internalType": "address",
          "name": "previousOwner",
          "type": "address"
        },
        {
          "indexed": true,
          "internalType": "address",
          "name": "newOwner",
          "type": "address"
        }
      ],
      "name": "OwnershipTransferred",
      "type": "event"
    },
    {
      "anonymous": false,
      "inputs": [
        {
          "indexed": false,
          "internalType": "address",
          "name": "account",
          "type": "address"
        }
      ],
      "name": "Paused",
      "type": "event"
    },
    {
      "anonymous": false,
      "inputs": [
        {
          "indexed": true,
          "internalType": "address",
          "name": "from",
          "type": "address"
        },
        {
          "indexed": true,
          "internalType": "address",
          "name": "to",
          "type": "address"
        },
        {
          "indexed": false,
          "internalType": "uint256",
          "name": "value",
          "type": "uint256"
        }
      ],
      "name": "Transfer",
      "type": "event"
    },
    {
      "anonymous": false,
      "inputs": [
        {
          "indexed": false,
          "internalType": "address",
          "name": "account",
          "type": "address"
        }
      ],
      "name": "Unpaused",
      "type": "event"
    },
    {
      "inputs": [
        {
          "internalType": "address",
          "name": "owner",
          "type": "address"
        },
        {
          "internalType": "address",
          "name": "spender",
          "type": "address"
        }
      ],
      "name": "allowance",
      "outputs": [
        {
          "internalType": "uint256",
          "name": "",
          "type": "uint256"
        }
      ],
      "stateMutability": "view",
      "type": "function"
    },
    {
      "inputs": [
        {
          "internalType": "address",
          "name": "spender",
          "type": "address"
        },
        {
          "internalType": "uint256",
          "name": "amount",
          "type": "uint256"
        }
      ],
      "name": "approve",
      "outputs": [
        {
          "internalType": "bool",
          "name": "",
          "type": "bool"
        }
      ],
      "stateMutability": "nonpayable",
      "type": "function"
    },
    {
      "inputs": [
        {
          "internalType": "address",
          "name": "account",
          "type": "address"
        }
      ],
      "name": "balanceOf",
      "outputs": [
        {
          "internalType": "uint256",
          "name": "",
          "type": "uint256"
        }
      ],
      "stateMutability": "view",
      "type": "function"
    },
    {
      "inputs": [
        {
          "internalType": "uint256",
          "name": "amount",
          "type": "uint256"
        }
      ],
      "name": "burn",
      "outputs": [],
      "stateMutability": "nonpayable",
      "type": "function"
    },
    {
      "inputs": [
        {
          "internalType": "address",
          "name": "account",
          "type": "address"
        },
        {
          "internalType": "uint256",
          "name": "amount",
          "type": "uint256"
        }
      ],
      "name": "burnFrom",
      "outputs": [],
      "stateMutability": "nonpayable",
      "type": "function"
    },
    {
      "inputs": [],
      "name": "companyCap2y",
      "outputs": [
        {
          "internalType": "uint256",
          "name": "",
          "type": "uint256"
        }
      ],
      "stateMutability": "view",
      "type": "function"
    },
    {
      "inputs": [],
      "name": "companyCap3y",
      "outputs": [
        {
          "internalType": "uint256",
          "name": "",
          "type": "uint256"
        }
      ],
      "stateMutability": "view",
      "type": "function"
    },
    {
      "inputs": [],
      "name": "cycle",
      "outputs": [
        {
          "internalType": "uint256",
          "name": "",
          "type": "uint256"
        }
      ],
      "stateMutability": "view",
      "type": "function"
    },
    {
      "inputs": [],
      "name": "decimals",
      "outputs": [
        {
          "internalType": "uint8",
          "name": "",
          "type": "uint8"
        }
      ],
      "stateMutability": "view",
      "type": "function"
    },
    {
      "inputs": [
        {
          "internalType": "address",
          "name": "spender",
          "type": "address"
        },
        {
          "internalType": "uint256",
          "name": "subtractedValue",
          "type": "uint256"
        }
      ],
      "name": "decreaseAllowance",
      "outputs": [
        {
          "internalType": "bool",
          "name": "",
          "type": "bool"
        }
      ],
      "stateMutability": "nonpayable",
      "type": "function"
    },
    {
      "inputs": [],
      "name": "getCycle",
      "outputs": [
        {
          "internalType": "uint256",
          "name": "",
          "type": "uint256"
        }
      ],
      "stateMutability": "view",
      "type": "function"
    },
    {
      "inputs": [],
      "name": "getMintedTokens",
      "outputs": [
        {
          "internalType": "uint256",
          "name": "",
          "type": "uint256"
        },
        {
          "internalType": "uint256",
          "name": "",
          "type": "uint256"
        }
      ],
      "stateMutability": "view",
      "type": "function"
    },
    {
      "inputs": [
        {
          "internalType": "address",
          "name": "spender",
          "type": "address"
        },
        {
          "internalType": "uint256",
          "name": "addedValue",
          "type": "uint256"
        }
      ],
      "name": "increaseAllowance",
      "outputs": [
        {
          "internalType": "bool",
          "name": "",
          "type": "bool"
        }
      ],
      "stateMutability": "nonpayable",
      "type": "function"
    },
    {
      "inputs": [],
      "name": "initialAmount",
      "outputs": [
        {
          "internalType": "uint256",
          "name": "",
          "type": "uint256"
        }
      ],
      "stateMutability": "view",
      "type": "function"
    },
    {
      "inputs": [],
      "name": "mint",
      "outputs": [],
      "stateMutability": "nonpayable",
      "type": "function"
    },
    {
      "inputs": [],
      "name": "mintTarget",
      "outputs": [
        {
          "internalType": "address",
          "name": "",
          "type": "address"
        }
      ],
      "stateMutability": "view",
      "type": "function"
    },
    {
      "inputs": [],
      "name": "mintedCompanyTokens",
      "outputs": [
        {
          "internalType": "uint256",
          "name": "",
          "type": "uint256"
        }
      ],
      "stateMutability": "view",
      "type": "function"
    },
    {
      "inputs": [],
      "name": "mintedRewardTokens",
      "outputs": [
        {
          "internalType": "uint256",
          "name": "",
          "type": "uint256"
        }
      ],
      "stateMutability": "view",
      "type": "function"
    },
    {
      "inputs": [],
      "name": "name",
      "outputs": [
        {
          "internalType": "string",
          "name": "",
          "type": "string"
        }
      ],
      "stateMutability": "view",
      "type": "function"
    },
    {
      "inputs": [],
      "name": "owner",
      "outputs": [
        {
          "internalType": "address",
          "name": "",
          "type": "address"
        }
      ],
      "stateMutability": "view",
      "type": "function"
    },
    {
      "inputs": [],
      "name": "pause",
      "outputs": [],
      "stateMutability": "nonpayable",
      "type": "function"
    },
    {
      "inputs": [],
      "name": "paused",
      "outputs": [
        {
          "internalType": "bool",
          "name": "",
          "type": "bool"
        }
      ],
      "stateMutability": "view",
      "type": "function"
    },
    {
      "inputs": [],
      "name": "renounceOwnership",
      "outputs": [],
      "stateMutability": "nonpayable",
      "type": "function"
    },
    {
      "inputs": [],
      "name": "rewardCap",
      "outputs": [
        {
          "internalType": "uint256",
          "name": "",
          "type": "uint256"
        }
      ],
      "stateMutability": "view",
      "type": "function"
    },
    {
      "inputs": [
        {
          "internalType": "address",
          "name": "target",
          "type": "address"
        }
      ],
      "name": "setMintTarget",
      "outputs": [],
      "stateMutability": "nonpayable",
      "type": "function"
    },
    {
      "inputs": [],
      "name": "symbol",
      "outputs": [
        {
          "internalType": "string",
          "name": "",
          "type": "string"
        }
      ],
      "stateMutability": "view",
      "type": "function"
    },
    {
      "inputs": [],
      "name": "totalSupply",
      "outputs": [
        {
          "internalType": "uint256",
          "name": "",
          "type": "uint256"
        }
      ],
      "stateMutability": "view",
      "type": "function"
    },
    {
      "inputs": [
        {
          "internalType": "address",
          "name": "to",
          "type": "address"
        },
        {
          "internalType": "uint256",
          "name": "amount",
          "type": "uint256"
        }
      ],
      "name": "transfer",
      "outputs": [
        {
          "internalType": "bool",
          "name": "",
          "type": "bool"
        }
      ],
      "stateMutability": "nonpayable",
      "type": "function"
    },
    {
      "inputs": [
        {
          "internalType": "address",
          "name": "from",
          "type": "address"
        },
        {
          "internalType": "address",
          "name": "to",
          "type": "address"
        },
        {
          "internalType": "uint256",
          "name": "amount",
          "type": "uint256"
        }
      ],
      "name": "transferFrom",
      "outputs": [
        {
          "internalType": "bool",
          "name": "",
          "type": "bool"
        }
      ],
      "stateMutability": "nonpayable",
      "type": "function"
    },
    {
      "inputs": [
        {
          "internalType": "address",
          "name": "newOwner",
          "type": "address"
        }
      ],
      "name": "transferOwnership",
      "outputs": [],
      "stateMutability": "nonpayable",
      "type": "function"
    },
    {
      "inputs": [],
      "name": "unpause",
      "outputs": [],
      "stateMutability": "nonpayable",
      "type": "function"
    }
  ],
  "bytecode": "0x6080604052630112a880600d556a04f68ca6d8cd91c6000000600e556a18d0bf423c03d8de000000600f556a2b036da601a044b40000006010553480156200004657600080fd5b5060405162001abe38038062001abe833981016040819052620000699162000344565b6000805460ff19169055828260046200008383826200045f565b5060056200009282826200045f565b505050620000af620000a96200011160201b60201c565b62000115565b42600855600780546001600160a01b0319166001600160a01b03831617905562000108620000da3390565b620000e86012600a62000640565b600d54620000f7919062000655565b6200016760201b6200077f1760201c565b50505062000685565b3390565b600680546001600160a01b038381166001600160a01b0319831681179093556040519116919082907f8be0079c531659141344cd1fd0a4f28419497f9722a3daafe3b4186f6b6457e090600090a35050565b6001600160a01b038216620001c25760405162461bcd60e51b815260206004820152601f60248201527f45524332303a206d696e7420746f20746865207a65726f206164647265737300604482015260640160405180910390fd5b620001d0600083836200023d565b8060036000828254620001e491906200066f565b90915550506001600160a01b0382166000818152600160209081526040808320805486019055518481527fddf252ad1be2c89b69c2b068fc378daa952ba7f163c4a11628f55a4df523b3ef910160405180910390a35050565b620002558383836200027a60201b6200084c1760201c565b60005460ff16156200027a57604051632d5fbc6760e11b815260040160405180910390fd5b505050565b634e487b7160e01b600052604160045260246000fd5b600082601f830112620002a757600080fd5b81516001600160401b0380821115620002c457620002c46200027f565b604051601f8301601f19908116603f01168101908282118183101715620002ef57620002ef6200027f565b816040528381526020925086838588010111156200030c57600080fd5b600091505b8382101562000330578582018301518183018401529082019062000311565b600093810190920192909252949350505050565b6000806000606084860312156200035a57600080fd5b83516001600160401b03808211156200037257600080fd5b620003808783880162000295565b945060208601519150808211156200039757600080fd5b50620003a68682870162000295565b604086015190935090506001600160a01b0381168114620003c657600080fd5b809150509250925092565b600181811c90821680620003e657607f821691505b6020821081036200040757634e487b7160e01b600052602260045260246000fd5b50919050565b601f8211156200027a57600081815260208120601f850160051c81016020861015620004365750805b601f850160051c820191505b81811015620004575782815560010162000442565b505050505050565b81516001600160401b038111156200047b576200047b6200027f565b62000493816200048c8454620003d1565b846200040d565b602080601f831160018114620004cb5760008415620004b25750858301515b600019600386901b1c1916600185901b17855562000457565b600085815260208120601f198616915b82811015620004fc57888601518255948401946001909101908401620004db565b50858210156200051b5787850151600019600388901b60f8161c191681555b5050505050600190811b01905550565b634e487b7160e01b600052601160045260246000fd5b600181815b80851115620005825781600019048211156200056657620005666200052b565b808516156200057457918102915b93841c939080029062000546565b509250929050565b6000826200059b575060016200063a565b81620005aa575060006200063a565b8160018114620005c35760028114620005ce57620005ee565b60019150506200063a565b60ff841115620005e257620005e26200052b565b50506001821b6200063a565b5060208310610133831016604e8410600b841016171562000613575081810a6200063a565b6200061f838362000541565b80600019048211156200063657620006366200052b565b0290505b92915050565b60006200064e83836200058a565b9392505050565b80820281158282048414176200063a576200063a6200052b565b808201808211156200063a576200063a6200052b565b61142980620006956000396000f3fe608060405234801561001057600080fd5b50600436106101e55760003560e01c8063715018a61161010f578063a457c2d7116100a2578063dd62ed3e11610071578063dd62ed3e146103b7578063f2fde38b146103ca578063f8c14ae5146103dd578063fc1ed437146103e657600080fd5b8063a457c2d71461036d578063a9059cbb14610380578063c69b61c514610393578063dc9652901461039c57600080fd5b80638da5cb5b116100de5780638da5cb5b1461032457806392bd084c146103495780639532e2871461035c57806395d89b411461036557600080fd5b8063715018a6146102f857806378da6b381461030057806379cc6790146103095780638456cb591461031c57600080fd5b806339509351116101875780635c975abb116101565780635c975abb146102b35780636190c9d5146102be578063655bce22146102c757806370a08231146102cf57600080fd5b806339509351146102725780633f4ba83a1461028557806342966c681461028d5780634fb54e84146102a057600080fd5b806318160ddd116101c357806318160ddd146102355780631c31b20f1461024757806323b872dd14610250578063313ce5671461026357600080fd5b806306fdde03146101ea578063095ea7b3146102085780631249c58b1461022b575b600080fd5b6101f26103ef565b6040516101ff919061113f565b60405180910390f35b61021b6102163660046111a9565b610481565b60405190151581526020016101ff565b61023361049b565b005b6003545b6040519081526020016101ff565b610239600f5481565b61021b61025e3660046111d3565b610520565b604051601281526020016101ff565b61021b6102803660046111a9565b610544565b610233610566565b61023361029b36600461120f565b610578565b6102336102ae366004611228565b610582565b60005460ff1661021b565b610239600c5481565b600c54610239565b6102396102dd366004611228565b6001600160a01b031660009081526001602052604090205490565b610233610606565b610239600b5481565b6102336103173660046111a9565b610618565b610233610631565b6006546001600160a01b03165b6040516001600160a01b0390911681526020016101ff565b600954610331906001600160a01b031681565b61023960105481565b6101f2610641565b61021b61037b3660046111a9565b610650565b61021b61038e3660046111a9565b6106d0565b610239600e5481565b600b54600a54604080519283526020830191909152016101ff565b6102396103c5366004611243565b6106de565b6102336103d8366004611228565b610709565b610239600a5481565b610239600d5481565b6060600480546103fe90611276565b80601f016020809104026020016040519081016040528092919081815260200182805461042a90611276565b80156104775780601f1061044c57610100808354040283529160200191610477565b820191906000526020600020905b81548152906001019060200180831161045a57829003601f168201915b5050505050905090565b60003361048f818585610851565b60019150505b92915050565b620151806008544210156104c257604051630eaa12fd60e01b815260040160405180910390fd5b6008546104cf9082610975565b6008556104da610988565b6104e66012600a6113aa565b6104f4906305f5e1006113b6565b600354106105155760405163f3eefa2d60e01b815260040160405180910390fd5b61051d6109ce565b50565b60003361052e858285610bd7565b610539858585610c51565b506001949350505050565b60003361048f81858561055783836106de565b61056191906113cd565b610851565b61056e610e07565b610576610e61565b565b61051d3382610eb4565b61058a610e07565b610592610988565b806001600160a01b0381166105ba576040516306a0d46d60e51b815260040160405180910390fd5b306001600160a01b038216036105e35760405163128a9f0160e31b815260040160405180910390fd5b50600980546001600160a01b0319166001600160a01b0392909216919091179055565b61060e610e07565b6105766000610ff4565b610623823383610bd7565b61062d8282610eb4565b5050565b610639610e07565b610576611046565b6060600580546103fe90611276565b6000338161065e82866106de565b9050838110156106c35760405162461bcd60e51b815260206004820152602560248201527f45524332303a2064656372656173656420616c6c6f77616e63652062656c6f77604482015264207a65726f60d81b60648201526084015b60405180910390fd5b6105398286868403610851565b60003361048f818585610c51565b6001600160a01b03918216600090815260026020908152604080832093909416825291909152205490565b610711610e07565b6001600160a01b0381166107765760405162461bcd60e51b815260206004820152602660248201527f4f776e61626c653a206e6577206f776e657220697320746865207a65726f206160448201526564647265737360d01b60648201526084016106ba565b61051d81610ff4565b6001600160a01b0382166107d55760405162461bcd60e51b815260206004820152601f60248201527f45524332303a206d696e7420746f20746865207a65726f20616464726573730060448201526064016106ba565b6107e160008383611083565b80600360008282546107f391906113cd565b90915550506001600160a01b0382166000818152600160209081526040808320805486019055518481527fddf252ad1be2c89b69c2b068fc378daa952ba7f163c4a11628f55a4df523b3ef910160405180910390a35050565b505050565b6001600160a01b0383166108b35760405162461bcd60e51b8152602060048201526024808201527f45524332303a20617070726f76652066726f6d20746865207a65726f206164646044820152637265737360e01b60648201526084016106ba565b6001600160a01b0382166109145760405162461bcd60e51b815260206004820152602260248201527f45524332303a20617070726f766520746f20746865207a65726f206164647265604482015261737360f01b60648201526084016106ba565b6001600160a01b0383811660008181526002602090815260408083209487168084529482529182902085905590518481527f8c5be1e5ebec7d5bd14f71427d1e84f3dd0314c0f7b2291e5b200ac8c7c3b925910160405180910390a3505050565b600061098182846113cd565b9392505050565b60005460ff16156105765760405162461bcd60e51b815260206004820152601060248201526f14185d5cd8589b194e881c185d5cd95960821b60448201526064016106ba565b6000806000600e54600a541015610a1557600a54600e546109ee916110a7565b91506901bc85dc2a89bb200000821115610a10576901bc85dc2a89bb20000091505b610a52565b600f54600a541015610a5257600a54600f54610a30916110a7565b9150690dec7a2e85ace3c40000821115610a5257690dec7a2e85ace3c4000091505b600b54601054610a61916110a7565b905069030446f7117506d80000811115610a82575069030446f7117506d800005b610a8c8282610975565b9250600083118015610ab75750610aa56012600a6113aa565b610ab3906305f5e1006113b6565b8311155b15610bc157600a54610ac99083610975565b600a55600b54610ad99082610975565b600b55610ae46110b3565b600754600c5460405163d5faca5960e01b81526001600160a01b039092169163d5faca5991610b20918690600401918252602082015260400190565b600060405180830381600087803b158015610b3a57600080fd5b505af1158015610b4e573d6000803e3d6000fd5b5050600754600c5460405163a5e2972160e01b81526001600160a01b03909216935063a5e297219250610b8e918590600401918252602082015260400190565b600060405180830381600087803b158015610ba857600080fd5b505af1158015610bbc573d6000803e3d6000fd5b505050505b60095461084c906001600160a01b03168461077f565b6000610be384846106de565b90506000198114610c4b5781811015610c3e5760405162461bcd60e51b815260206004820152601d60248201527f45524332303a20696e73756666696369656e7420616c6c6f77616e636500000060448201526064016106ba565b610c4b8484848403610851565b50505050565b6001600160a01b038316610cb55760405162461bcd60e51b815260206004820152602560248201527f45524332303a207472616e736665722066726f6d20746865207a65726f206164604482015264647265737360d81b60648201526084016106ba565b6001600160a01b038216610d175760405162461bcd60e51b815260206004820152602360248201527f45524332303a207472616e7366657220746f20746865207a65726f206164647260448201526265737360e81b60648201526084016106ba565b610d22838383611083565b6001600160a01b03831660009081526001602052604090205481811015610d9a5760405162461bcd60e51b815260206004820152602660248201527f45524332303a207472616e7366657220616d6f756e7420657863656564732062604482015265616c616e636560d01b60648201526084016106ba565b6001600160a01b0380851660008181526001602052604080822086860390559286168082529083902080548601905591517fddf252ad1be2c89b69c2b068fc378daa952ba7f163c4a11628f55a4df523b3ef90610dfa9086815260200190565b60405180910390a3610c4b565b6006546001600160a01b031633146105765760405162461bcd60e51b815260206004820181905260248201527f4f776e61626c653a2063616c6c6572206973206e6f7420746865206f776e657260448201526064016106ba565b610e696110f6565b6000805460ff191690557f5db9ee0a495bf2e6ff9c91a7834c1ba4fdd244a5e8aa4e537bd38aeae4b073aa335b6040516001600160a01b0390911681526020015b60405180910390a1565b6001600160a01b038216610f145760405162461bcd60e51b815260206004820152602160248201527f45524332303a206275726e2066726f6d20746865207a65726f206164647265736044820152607360f81b60648201526084016106ba565b610f2082600083611083565b6001600160a01b03821660009081526001602052604090205481811015610f945760405162461bcd60e51b815260206004820152602260248201527f45524332303a206275726e20616d6f756e7420657863656564732062616c616e604482015261636560f01b60648201526084016106ba565b6001600160a01b03831660008181526001602090815260408083208686039055600380548790039055518581529192917fddf252ad1be2c89b69c2b068fc378daa952ba7f163c4a11628f55a4df523b3ef910160405180910390a3505050565b600680546001600160a01b038381166001600160a01b0319831681179093556040519116919082907f8be0079c531659141344cd1fd0a4f28419497f9722a3daafe3b4186f6b6457e090600090a35050565b61104e610988565b6000805460ff191660011790557f62e78cea01bee320cd4e420270b5ea74000d11b0c9f74754ebdbfc544b05a258610e963390565b60005460ff161561084c57604051632d5fbc6760e11b815260040160405180910390fd5b600061098182846113e0565b600c546110c1906001610975565b600c8190556040519081527f2fe507e2aea38cffd622c12d3e33cbea4d5ade11e136be6d9e8d933f38d9a88890602001610eaa565b60005460ff166105765760405162461bcd60e51b815260206004820152601460248201527314185d5cd8589b194e881b9bdd081c185d5cd95960621b60448201526064016106ba565b600060208083528351808285015260005b8181101561116c57858101830151858201604001528201611150565b506000604082860101526040601f19601f8301168501019250505092915050565b80356001600160a01b03811681146111a457600080fd5b919050565b600080604083850312156111bc57600080fd5b6111c58361118d565b946020939093013593505050565b6000806000606084860312156111e857600080fd5b6111f18461118d565b92506111ff6020850161118d565b9150604084013590509250925092565b60006020828403121561122157600080fd5b5035919050565b60006020828403121561123a57600080fd5b6109818261118d565b6000806040838503121561125657600080fd5b61125f8361118d565b915061126d6020840161118d565b90509250929050565b600181811c9082168061128a57607f821691505b6020821081036112aa57634e487b7160e01b600052602260045260246000fd5b50919050565b634e487b7160e01b600052601160045260246000fd5b600181815b808511156113015781600019048211156112e7576112e76112b0565b808516156112f457918102915b93841c93908002906112cb565b509250929050565b60008261131857506001610495565b8161132557506000610495565b816001811461133b576002811461134557611361565b6001915050610495565b60ff841115611356576113566112b0565b50506001821b610495565b5060208310610133831016604e8410600b8410161715611384575081810a610495565b61138e83836112c6565b80600019048211156113a2576113a26112b0565b029392505050565b60006109818383611309565b8082028115828204841417610495576104956112b0565b80820180821115610495576104956112b0565b81810381811115610495576104956112b056fea2646970667358221220f3e57ff13a4d9a3bdde0799a1aa32dd62870723127d14ba3525ccff0663b303664736f6c63430008120033",
  "linkReferences": {},
  "deployedLinkReferences": {}
}