{
  "_format": "hh-sol-artifact-1",
  "contractName": "PriceFeedConsumer",
  "sourceName": "src/PriceFeedConsumer.sol",
  "abi": [
    {
      "inputs": [
        {
          "internalType": "address",
          "name": "_priceFeed",
          "type": "address"
        }
      ],
      "stateMutability": "nonpayable",
      "type": "constructor"
    },
    {
      "anonymous": false,
      "inputs": [
        {
          "indexed": true,
          "internalType": "bytes32",
          "name": "role",
          "type": "bytes32"
        },
        {
          "indexed": true,
          "internalType": "bytes32",
          "name": "previousAdminRole",
          "type": "bytes32"
        },
        {
          "indexed": true,
          "internalType": "bytes32",
          "name": "newAdminRole",
          "type": "bytes32"
        }
      ],
      "name": "RoleAdminChanged",
      "type": "event"
    },
    {
      "anonymous": false,
      "inputs": [
        {
          "indexed": true,
          "internalType": "bytes32",
          "name": "role",
          "type": "bytes32"
        },
        {
          "indexed": true,
          "internalType": "address",
          "name": "account",
          "type": "address"
        },
        {
          "indexed": true,
          "internalType": "address",
          "name": "sender",
          "type": "address"
        }
      ],
      "name": "RoleGranted",
      "type": "event"
    },
    {
      "anonymous": false,
      "inputs": [
        {
          "indexed": true,
          "internalType": "bytes32",
          "name": "role",
          "type": "bytes32"
        },
        {
          "indexed": true,
          "internalType": "address",
          "name": "account",
          "type": "address"
        },
        {
          "indexed": true,
          "internalType": "address",
          "name": "sender",
          "type": "address"
        }
      ],
      "name": "RoleRevoked",
      "type": "event"
    },
    {
      "inputs": [],
      "name": "DEFAULT_ADMIN_ROLE",
      "outputs": [
        {
          "internalType": "bytes32",
          "name": "",
          "type": "bytes32"
        }
      ],
      "stateMutability": "view",
      "type": "function"
    },
    {
      "inputs": [],
      "name": "getLatestPrice",
      "outputs": [
        {
          "internalType": "int256",
          "name": "",
          "type": "int256"
        },
        {
          "internalType": "uint256",
          "name": "",
          "type": "uint256"
        }
      ],
      "stateMutability": "view",
      "type": "function"
    },
    {
      "inputs": [],
      "name": "getPriceFeed",
      "outputs": [
        {
          "internalType": "contract AggregatorV3Interface",
          "name": "",
          "type": "address"
        }
      ],
      "stateMutability": "view",
      "type": "function"
    },
    {
      "inputs": [
        {
          "internalType": "bytes32",
          "name": "role",
          "type": "bytes32"
        }
      ],
      "name": "getRoleAdmin",
      "outputs": [
        {
          "internalType": "bytes32",
          "name": "",
          "type": "bytes32"
        }
      ],
      "stateMutability": "view",
      "type": "function"
    },
    {
      "inputs": [
        {
          "internalType": "bytes32",
          "name": "role",
          "type": "bytes32"
        },
        {
          "internalType": "address",
          "name": "account",
          "type": "address"
        }
      ],
      "name": "grantRole",
      "outputs": [],
      "stateMutability": "nonpayable",
      "type": "function"
    },
    {
      "inputs": [
        {
          "internalType": "bytes32",
          "name": "role",
          "type": "bytes32"
        },
        {
          "internalType": "address",
          "name": "account",
          "type": "address"
        }
      ],
      "name": "hasRole",
      "outputs": [
        {
          "internalType": "bool",
          "name": "",
          "type": "bool"
        }
      ],
      "stateMutability": "view",
      "type": "function"
    },
    {
      "inputs": [
        {
          "internalType": "bytes32",
          "name": "role",
          "type": "bytes32"
        },
        {
          "internalType": "address",
          "name": "account",
          "type": "address"
        }
      ],
      "name": "renounceRole",
      "outputs": [],
      "stateMutability": "nonpayable",
      "type": "function"
    },
    {
      "inputs": [
        {
          "internalType": "bytes32",
          "name": "role",
          "type": "bytes32"
        },
        {
          "internalType": "address",
          "name": "account",
          "type": "address"
        }
      ],
      "name": "revokeRole",
      "outputs": [],
      "stateMutability": "nonpayable",
      "type": "function"
    },
    {
      "inputs": [
        {
          "internalType": "address",
          "name": "_aggregatorInstance",
          "type": "address"
        }
      ],
      "name": "setAggregatorInstance",
      "outputs": [],
      "stateMutability": "nonpayable",
      "type": "function"
    },
    {
      "inputs": [
        {
          "internalType": "bytes4",
          "name": "interfaceId",
          "type": "bytes4"
        }
      ],
      "name": "supportsInterface",
      "outputs": [
        {
          "internalType": "bool",
          "name": "",
          "type": "bool"
        }
      ],
      "stateMutability": "view",
      "type": "function"
    }
  ],
  "bytecode": "0x608060405234801561001057600080fd5b50604051610a80380380610a8083398101604081905261002f91610115565b61004460003361006960201b6103891760201c565b600180546001600160a01b0319166001600160a01b0392909216919091179055610145565b6100738282610077565b5050565b6000828152602081815260408083206001600160a01b038516845290915290205460ff16610073576000828152602081815260408083206001600160a01b03851684529091529020805460ff191660011790556100d13390565b6001600160a01b0316816001600160a01b0316837f2f8788117e7eff1d82e926ec794901d17c78024a50270940304540a733656f0d60405160405180910390a45050565b60006020828403121561012757600080fd5b81516001600160a01b038116811461013e57600080fd5b9392505050565b61092c806101546000396000f3fe608060405234801561001057600080fd5b506004361061009e5760003560e01c80638e15f473116100665780638e15f4731461013757806391d14854146101545780639e87a5cd14610167578063a217fddf14610182578063d547741f1461018a57600080fd5b806301ffc9a7146100a3578063067c4036146100cb578063248a9ca3146100e05780632f2ff15d1461011157806336568abe14610124575b600080fd5b6100b66100b1366004610697565b61019d565b60405190151581526020015b60405180910390f35b6100de6100d93660046106dd565b6101d4565b005b6101036100ee3660046106f8565b60009081526020819052604090206001015490565b6040519081526020016100c2565b6100de61011f366004610711565b610202565b6100de610132366004610711565b61022c565b61013f6102af565b604080519283526020830191909152016100c2565b6100b6610162366004610711565b61033b565b6001546040516001600160a01b0390911681526020016100c2565b610103600081565b6100de610198366004610711565b610364565b60006001600160e01b03198216637965db0b60e01b14806101ce57506301ffc9a760e01b6001600160e01b03198316145b92915050565b60006101df81610393565b50600180546001600160a01b0319166001600160a01b0392909216919091179055565b60008281526020819052604090206001015461021d81610393565b61022783836103a0565b505050565b6001600160a01b03811633146102a15760405162461bcd60e51b815260206004820152602f60248201527f416363657373436f6e74726f6c3a2063616e206f6e6c792072656e6f756e636560448201526e103937b632b9903337b91039b2b63360891b60648201526084015b60405180910390fd5b6102ab8282610424565b5050565b600080600080600160009054906101000a90046001600160a01b03166001600160a01b031663feaf968c6040518163ffffffff1660e01b815260040160a060405180830381865afa158015610308573d6000803e3d6000fd5b505050506040513d601f19601f8201168201806040525081019061032c9190610757565b50919791965090945050505050565b6000918252602082815260408084206001600160a01b0393909316845291905290205460ff1690565b60008281526020819052604090206001015461037f81610393565b6102278383610424565b6102ab82826103a0565b61039d8133610489565b50565b6103aa828261033b565b6102ab576000828152602081815260408083206001600160a01b03851684529091529020805460ff191660011790556103e03390565b6001600160a01b0316816001600160a01b0316837f2f8788117e7eff1d82e926ec794901d17c78024a50270940304540a733656f0d60405160405180910390a45050565b61042e828261033b565b156102ab576000828152602081815260408083206001600160a01b0385168085529252808320805460ff1916905551339285917ff6391f5c32d9c69d2a47ea670b442974b53935d1edc7fd64eb21e047a839171b9190a45050565b610493828261033b565b6102ab576104a0816104e2565b6104ab8360206104f4565b6040516020016104bc9291906107cb565b60408051601f198184030181529082905262461bcd60e51b825261029891600401610840565b60606101ce6001600160a01b03831660145b60606000610503836002610889565b61050e9060026108a0565b67ffffffffffffffff811115610526576105266108b3565b6040519080825280601f01601f191660200182016040528015610550576020820181803683370190505b509050600360fc1b8160008151811061056b5761056b6108c9565b60200101906001600160f81b031916908160001a905350600f60fb1b8160018151811061059a5761059a6108c9565b60200101906001600160f81b031916908160001a90535060006105be846002610889565b6105c99060016108a0565b90505b6001811115610641576f181899199a1a9b1b9c1cb0b131b232b360811b85600f16601081106105fd576105fd6108c9565b1a60f81b828281518110610613576106136108c9565b60200101906001600160f81b031916908160001a90535060049490941c9361063a816108df565b90506105cc565b5083156106905760405162461bcd60e51b815260206004820181905260248201527f537472696e67733a20686578206c656e67746820696e73756666696369656e746044820152606401610298565b9392505050565b6000602082840312156106a957600080fd5b81356001600160e01b03198116811461069057600080fd5b80356001600160a01b03811681146106d857600080fd5b919050565b6000602082840312156106ef57600080fd5b610690826106c1565b60006020828403121561070a57600080fd5b5035919050565b6000806040838503121561072457600080fd5b82359150610734602084016106c1565b90509250929050565b805169ffffffffffffffffffff811681146106d857600080fd5b600080600080600060a0868803121561076f57600080fd5b6107788661073d565b945060208601519350604086015192506060860151915061079b6080870161073d565b90509295509295909350565b60005b838110156107c25781810151838201526020016107aa565b50506000910152565b7f416363657373436f6e74726f6c3a206163636f756e74200000000000000000008152600083516108038160178501602088016107a7565b7001034b99036b4b9b9b4b733903937b6329607d1b60179184019182015283516108348160288401602088016107a7565b01602801949350505050565b602081526000825180602084015261085f8160408501602087016107a7565b601f01601f19169190910160400192915050565b634e487b7160e01b600052601160045260246000fd5b80820281158282048414176101ce576101ce610873565b808201808211156101ce576101ce610873565b634e487b7160e01b600052604160045260246000fd5b634e487b7160e01b600052603260045260246000fd5b6000816108ee576108ee610873565b50600019019056fea2646970667358221220f547de53dd81b5cbe91c786dfb5760d84d9fe29446c2be2732a47f15934b8b3364736f6c63430008120033",
  "linkReferences": {},
  "deployedLinkReferences": {}
}