{
  "_format": "hh-sol-artifact-1",
  "contractName": "BurnPool",
  "sourceName": "src/BurnPool.sol",
  "abi": [
    {
      "inputs": [],
      "stateMutability": "nonpayable",
      "type": "constructor"
    },
    {
      "inputs": [],
      "name": "AmountRequestedIsZero",
      "type": "error"
    },
    {
      "inputs": [],
      "name": "DeviceWasNotOnboarded",
      "type": "error"
    },
    {
      "inputs": [],
      "name": "SenderAllowanceIsNotEnough",
      "type": "error"
    },
    {
      "anonymous": false,
      "inputs": [
        {
          "indexed": false,
          "internalType": "address",
          "name": "previousAdmin",
          "type": "address"
        },
        {
          "indexed": false,
          "internalType": "address",
          "name": "newAdmin",
          "type": "address"
        }
      ],
      "name": "AdminChanged",
      "type": "event"
    },
    {
      "anonymous": false,
      "inputs": [
        {
          "indexed": true,
          "internalType": "address",
          "name": "beacon",
          "type": "address"
        }
      ],
      "name": "BeaconUpgraded",
      "type": "event"
    },
    {
      "anonymous": false,
      "inputs": [
        {
          "indexed": false,
          "internalType": "address",
          "name": "from",
          "type": "address"
        },
        {
          "indexed": false,
          "internalType": "uint256",
          "name": "amount",
          "type": "uint256"
        },
        {
          "indexed": false,
          "internalType": "int256",
          "name": "price",
          "type": "int256"
        },
        {
          "indexed": false,
          "internalType": "uint256",
          "name": "timeStamp",
          "type": "uint256"
        },
        {
          "indexed": false,
          "internalType": "string",
          "name": "service",
          "type": "string"
        }
      ],
      "name": "BurnedForService",
      "type": "event"
    },
    {
      "anonymous": false,
      "inputs": [
        {
          "indexed": false,
          "internalType": "address",
          "name": "from",
          "type": "address"
        },
        {
          "indexed": false,
          "internalType": "uint256",
          "name": "amount",
          "type": "uint256"
        },
        {
          "indexed": false,
          "internalType": "int256",
          "name": "price",
          "type": "int256"
        },
        {
          "indexed": false,
          "internalType": "uint256",
          "name": "timeStamp",
          "type": "uint256"
        }
      ],
      "name": "BurnedOnboardingFee",
      "type": "event"
    },
    {
      "anonymous": false,
      "inputs": [
        {
          "indexed": false,
          "internalType": "uint8",
          "name": "version",
          "type": "uint8"
        }
      ],
      "name": "Initialized",
      "type": "event"
    },
    {
      "anonymous": false,
      "inputs": [
        {
          "indexed": false,
          "internalType": "address",
          "name": "account",
          "type": "address"
        }
      ],
      "name": "Paused",
      "type": "event"
    },
    {
      "anonymous": false,
      "inputs": [
        {
          "indexed": true,
          "internalType": "bytes32",
          "name": "role",
          "type": "bytes32"
        },
        {
          "indexed": true,
          "internalType": "bytes32",
          "name": "previousAdminRole",
          "type": "bytes32"
        },
        {
          "indexed": true,
          "internalType": "bytes32",
          "name": "newAdminRole",
          "type": "bytes32"
        }
      ],
      "name": "RoleAdminChanged",
      "type": "event"
    },
    {
      "anonymous": false,
      "inputs": [
        {
          "indexed": true,
          "internalType": "bytes32",
          "name": "role",
          "type": "bytes32"
        },
        {
          "indexed": true,
          "internalType": "address",
          "name": "account",
          "type": "address"
        },
        {
          "indexed": true,
          "internalType": "address",
          "name": "sender",
          "type": "address"
        }
      ],
      "name": "RoleGranted",
      "type": "event"
    },
    {
      "anonymous": false,
      "inputs": [
        {
          "indexed": true,
          "internalType": "bytes32",
          "name": "role",
          "type": "bytes32"
        },
        {
          "indexed": true,
          "internalType": "address",
          "name": "account",
          "type": "address"
        },
        {
          "indexed": true,
          "internalType": "address",
          "name": "sender",
          "type": "address"
        }
      ],
      "name": "RoleRevoked",
      "type": "event"
    },
    {
      "anonymous": false,
      "inputs": [
        {
          "indexed": false,
          "internalType": "address",
          "name": "account",
          "type": "address"
        }
      ],
      "name": "Unpaused",
      "type": "event"
    },
    {
      "anonymous": false,
      "inputs": [
        {
          "indexed": true,
          "internalType": "address",
          "name": "implementation",
          "type": "address"
        }
      ],
      "name": "Upgraded",
      "type": "event"
    },
    {
      "inputs": [],
      "name": "DEFAULT_ADMIN_ROLE",
      "outputs": [
        {
          "internalType": "bytes32",
          "name": "",
          "type": "bytes32"
        }
      ],
      "stateMutability": "view",
      "type": "function"
    },
    {
      "inputs": [],
      "name": "MANUFACTURER_ROLE",
      "outputs": [
        {
          "internalType": "bytes32",
          "name": "",
          "type": "bytes32"
        }
      ],
      "stateMutability": "view",
      "type": "function"
    },
    {
      "inputs": [],
      "name": "UPGRADER_ROLE",
      "outputs": [
        {
          "internalType": "bytes32",
          "name": "",
          "type": "bytes32"
        }
      ],
      "stateMutability": "view",
      "type": "function"
    },
    {
      "inputs": [
        {
          "internalType": "uint256",
          "name": "amountWXM",
          "type": "uint256"
        },
        {
          "internalType": "string",
          "name": "service",
          "type": "string"
        }
      ],
      "name": "burnForService",
      "outputs": [],
      "stateMutability": "nonpayable",
      "type": "function"
    },
    {
      "inputs": [
        {
          "internalType": "uint256",
          "name": "amount",
          "type": "uint256"
        },
        {
          "internalType": "string",
          "name": "uri",
          "type": "string"
        }
      ],
      "name": "burnOnboardingFee",
      "outputs": [
        {
          "internalType": "bool",
          "name": "",
          "type": "bool"
        }
      ],
      "stateMutability": "nonpayable",
      "type": "function"
    },
    {
      "inputs": [
        {
          "internalType": "bytes32",
          "name": "role",
          "type": "bytes32"
        }
      ],
      "name": "getRoleAdmin",
      "outputs": [
        {
          "internalType": "bytes32",
          "name": "",
          "type": "bytes32"
        }
      ],
      "stateMutability": "view",
      "type": "function"
    },
    {
      "inputs": [
        {
          "internalType": "bytes32",
          "name": "role",
          "type": "bytes32"
        },
        {
          "internalType": "uint256",
          "name": "index",
          "type": "uint256"
        }
      ],
      "name": "getRoleMember",
      "outputs": [
        {
          "internalType": "address",
          "name": "",
          "type": "address"
        }
      ],
      "stateMutability": "view",
      "type": "function"
    },
    {
      "inputs": [
        {
          "internalType": "bytes32",
          "name": "role",
          "type": "bytes32"
        }
      ],
      "name": "getRoleMemberCount",
      "outputs": [
        {
          "internalType": "uint256",
          "name": "",
          "type": "uint256"
        }
      ],
      "stateMutability": "view",
      "type": "function"
    },
    {
      "inputs": [
        {
          "internalType": "bytes32",
          "name": "role",
          "type": "bytes32"
        },
        {
          "internalType": "address",
          "name": "account",
          "type": "address"
        }
      ],
      "name": "grantRole",
      "outputs": [],
      "stateMutability": "nonpayable",
      "type": "function"
    },
    {
      "inputs": [
        {
          "internalType": "bytes32",
          "name": "role",
          "type": "bytes32"
        },
        {
          "internalType": "address",
          "name": "account",
          "type": "address"
        }
      ],
      "name": "hasRole",
      "outputs": [
        {
          "internalType": "bool",
          "name": "",
          "type": "bool"
        }
      ],
      "stateMutability": "view",
      "type": "function"
    },
    {
      "inputs": [
        {
          "internalType": "address",
          "name": "_token",
          "type": "address"
        },
        {
          "internalType": "address",
          "name": "_data",
          "type": "address"
        },
        {
          "internalType": "address",
          "name": "_weatherstation",
          "type": "address"
        },
        {
          "internalType": "address",
          "name": "_priceconsumer",
          "type": "address"
        }
      ],
      "name": "initialize",
      "outputs": [],
      "stateMutability": "nonpayable",
      "type": "function"
    },
    {
      "inputs": [],
      "name": "pause",
      "outputs": [],
      "stateMutability": "nonpayable",
      "type": "function"
    },
    {
      "inputs": [],
      "name": "paused",
      "outputs": [
        {
          "internalType": "bool",
          "name": "",
          "type": "bool"
        }
      ],
      "stateMutability": "view",
      "type": "function"
    },
    {
      "inputs": [],
      "name": "priceFeed",
      "outputs": [
        {
          "internalType": "contract IPriceFeedConsumer",
          "name": "",
          "type": "address"
        }
      ],
      "stateMutability": "view",
      "type": "function"
    },
    {
      "inputs": [],
      "name": "proxiableUUID",
      "outputs": [
        {
          "internalType": "bytes32",
          "name": "",
          "type": "bytes32"
        }
      ],
      "stateMutability": "view",
      "type": "function"
    },
    {
      "inputs": [
        {
          "internalType": "bytes32",
          "name": "role",
          "type": "bytes32"
        },
        {
          "internalType": "address",
          "name": "account",
          "type": "address"
        }
      ],
      "name": "renounceRole",
      "outputs": [],
      "stateMutability": "nonpayable",
      "type": "function"
    },
    {
      "inputs": [
        {
          "internalType": "bytes32",
          "name": "role",
          "type": "bytes32"
        },
        {
          "internalType": "address",
          "name": "account",
          "type": "address"
        }
      ],
      "name": "revokeRole",
      "outputs": [],
      "stateMutability": "nonpayable",
      "type": "function"
    },
    {
      "inputs": [
        {
          "internalType": "bytes4",
          "name": "interfaceId",
          "type": "bytes4"
        }
      ],
      "name": "supportsInterface",
      "outputs": [
        {
          "internalType": "bool",
          "name": "",
          "type": "bool"
        }
      ],
      "stateMutability": "view",
      "type": "function"
    },
    {
      "inputs": [],
      "name": "unpause",
      "outputs": [],
      "stateMutability": "nonpayable",
      "type": "function"
    },
    {
      "inputs": [
        {
          "internalType": "address",
          "name": "newImplementation",
          "type": "address"
        }
      ],
      "name": "upgradeTo",
      "outputs": [],
      "stateMutability": "nonpayable",
      "type": "function"
    },
    {
      "inputs": [
        {
          "internalType": "address",
          "name": "newImplementation",
          "type": "address"
        },
        {
          "internalType": "bytes",
          "name": "data",
          "type": "bytes"
        }
      ],
      "name": "upgradeToAndCall",
      "outputs": [],
      "stateMutability": "payable",
      "type": "function"
    }
  ],
  "bytecode": "0x60a06040523060805234801561001457600080fd5b5061001d610022565b6100e2565b600054610100900460ff161561008e5760405162461bcd60e51b815260206004820152602760248201527f496e697469616c697a61626c653a20636f6e747261637420697320696e697469604482015266616c697a696e6760c81b606482015260840160405180910390fd5b60005460ff90811610156100e0576000805460ff191660ff9081179091556040519081527f7f26b83ff96e1f2b6a682f133852f6798a09c465da95921460cefb38474024989060200160405180910390a15b565b608051611fcf610119600039600081816104e701528181610527015281816105d90152818161061901526106a80152611fcf6000f3fe60806040526004361061012a5760003560e01c8063741bef1a116100ab578063a217fddf1161006f578063a217fddf1461033c578063ca15c87314610351578063d547741f14610371578063f72c0d8b14610391578063f8903939146103c5578063f8c8765e146103e557600080fd5b8063741bef1a1461027a5780638456cb59146102b35780639010d07c146102c857806391d14854146102e8578063965288b01461030857600080fd5b80633f4ba83a116100f25780633f4ba83a146102045780634f1ef2861461021957806352d1902d1461022c5780635c975abb1461024157806371d753c41461025a57600080fd5b806301ffc9a71461012f578063248a9ca3146101645780632f2ff15d146101a257806336568abe146101c45780633659cfe6146101e4575b600080fd5b34801561013b57600080fd5b5061014f61014a3660046119e1565b610405565b60405190151581526020015b60405180910390f35b34801561017057600080fd5b5061019461017f366004611a0b565b600090815260fb602052604090206001015490565b60405190815260200161015b565b3480156101ae57600080fd5b506101c26101bd366004611a40565b610430565b005b3480156101d057600080fd5b506101c26101df366004611a40565b61045a565b3480156101f057600080fd5b506101c26101ff366004611a6c565b6104dd565b34801561021057600080fd5b506101c26105bc565b6101c2610227366004611b13565b6105cf565b34801561023857600080fd5b5061019461069b565b34801561024d57600080fd5b5061015f5460ff1661014f565b34801561026657600080fd5b506101c2610275366004611b75565b61074e565b34801561028657600080fd5b506101915461029b906001600160a01b031681565b6040516001600160a01b03909116815260200161015b565b3480156102bf57600080fd5b506101c2610958565b3480156102d457600080fd5b5061029b6102e3366004611ba6565b61096b565b3480156102f457600080fd5b5061014f610303366004611a40565b61098b565b34801561031457600080fd5b506101947feefb95e842a3287179d933b4460be539a1d5af11aa8b325bb45c5c8dc92de4ed81565b34801561034857600080fd5b50610194600081565b34801561035d57600080fd5b5061019461036c366004611a0b565b6109b6565b34801561037d57600080fd5b506101c261038c366004611a40565b6109ce565b34801561039d57600080fd5b506101947f189ab7a9244df0848122154315af71fe140f3db0fe014031783b0946b8c9d2e381565b3480156103d157600080fd5b5061014f6103e0366004611b75565b6109f3565b3480156103f157600080fd5b506101c2610400366004611bc8565b610cd0565b60006001600160e01b03198216635a05180f60e01b148061042a575061042a82610e80565b92915050565b600082815260fb602052604090206001015461044b81610eb5565b6104558383610ebf565b505050565b6001600160a01b03811633146104cf5760405162461bcd60e51b815260206004820152602f60248201527f416363657373436f6e74726f6c3a2063616e206f6e6c792072656e6f756e636560448201526e103937b632b9903337b91039b2b63360891b60648201526084015b60405180910390fd5b6104d98282610ee2565b5050565b6001600160a01b037f00000000000000000000000000000000000000000000000000000000000000001630036105255760405162461bcd60e51b81526004016104c690611c1c565b7f00000000000000000000000000000000000000000000000000000000000000006001600160a01b031661056e600080516020611f53833981519152546001600160a01b031690565b6001600160a01b0316146105945760405162461bcd60e51b81526004016104c690611c68565b61059d81610f05565b604080516000808252602082019092526105b991839190610f2f565b50565b60006105c781610eb5565b6105b961109a565b6001600160a01b037f00000000000000000000000000000000000000000000000000000000000000001630036106175760405162461bcd60e51b81526004016104c690611c1c565b7f00000000000000000000000000000000000000000000000000000000000000006001600160a01b0316610660600080516020611f53833981519152546001600160a01b031690565b6001600160a01b0316146106865760405162461bcd60e51b81526004016104c690611c68565b61068f82610f05565b6104d982826001610f2f565b6000306001600160a01b037f0000000000000000000000000000000000000000000000000000000000000000161461073b5760405162461bcd60e51b815260206004820152603860248201527f555550535570677261646561626c653a206d757374206e6f742062652063616c60448201527f6c6564207468726f7567682064656c656761746563616c6c000000000000000060648201526084016104c6565b50600080516020611f5383398151915290565b6107566110ed565b61075e611136565b6101915460408051638e15f47360e01b8152815160009384936001600160a01b0390911692638e15f47392600480830193928290030181865afa1580156107a9573d6000803e3d6000fd5b505050506040513d601f19601f820116820180604052508101906107cd9190611cb4565b91509150836000036107f25760405163f4bb5e6160e01b815260040160405180910390fd5b6101925484906001600160a01b031663dd62ed3e336040516001600160e01b031960e084901b1681526001600160a01b039091166004820152306024820152604401602060405180830381865afa158015610851573d6000803e3d6000fd5b505050506040513d601f19601f820116820180604052508101906108759190611cd8565b101561089457604051630eda104560e11b815260040160405180910390fd5b610192546001600160a01b03166379cc6790336040516001600160e01b031960e084901b1681526001600160a01b03909116600482015260248101879052604401600060405180830381600087803b1580156108ef57600080fd5b505af1158015610903573d6000803e3d6000fd5b505050507f35df423df19185bd19ff8955c9a4870044391b8510fdd9054009fd9ef1c6d76261092f3390565b85848487604051610944959493929190611d41565b60405180910390a150506104d96001606555565b600061096381610eb5565b6105b9611196565b600082815261012d6020526040812061098490836111d4565b9392505050565b600091825260fb602090815260408084206001600160a01b0393909316845291905290205460ff1690565b600081815261012d6020526040812061042a906111e0565b600082815260fb60205260409020600101546109e981610eb5565b6104558383610ee2565b60007feefb95e842a3287179d933b4460be539a1d5af11aa8b325bb45c5c8dc92de4ed610a1f81610eb5565b610a276110ed565b610a2f611136565b6101915460408051638e15f47360e01b8152815160009384936001600160a01b0390911692638e15f47392600480830193928290030181865afa158015610a7a573d6000803e3d6000fd5b505050506040513d601f19601f82011682018060405250810190610a9e9190611cb4565b9150915085600003610ac35760405163f4bb5e6160e01b815260040160405180910390fd5b6101925486906001600160a01b031663dd62ed3e336040516001600160e01b031960e084901b1681526001600160a01b039091166004820152306024820152604401602060405180830381865afa158015610b22573d6000803e3d6000fd5b505050506040513d601f19601f82011682018060405250810190610b469190611cd8565b1015610b6557604051630eda104560e11b815260040160405180910390fd5b610192546001600160a01b03166379cc6790336040516001600160e01b031960e084901b1681526001600160a01b03909116600482015260248101899052604401600060405180830381600087803b158015610bc057600080fd5b505af1158015610bd4573d6000803e3d6000fd5b50506101945460405163e13ec61b60e01b8152600093506001600160a01b03909116915063e13ec61b90610c0e9033908a90600401611d7f565b6020604051808303816000875af1158015610c2d573d6000803e3d6000fd5b505050506040513d601f19601f82011682018060405250810190610c519190611dab565b905080610c7157604051633578ff3b60e11b815260040160405180910390fd5b60408051338152602081018990528082018590526060810184905290517fec0ef94615d08ec5e80f2d264db0b7b64b9b49fbe40ea3017f73c730d04e6e539181900360800190a160019450505050610cc96001606555565b5092915050565b600054610100900460ff1615808015610cf05750600054600160ff909116105b80610d0a5750303b158015610d0a575060005460ff166001145b610d6d5760405162461bcd60e51b815260206004820152602e60248201527f496e697469616c697a61626c653a20636f6e747261637420697320616c72656160448201526d191e481a5b9a5d1a585b1a5e995960921b60648201526084016104c6565b6000805460ff191660011790558015610d90576000805461ff0019166101001790555b610d986111ea565b610da06111ea565b610da8611211565b610db0611240565b610dbb60003361126f565b610de57f189ab7a9244df0848122154315af71fe140f3db0fe014031783b0946b8c9d2e33361126f565b61019180546001600160a01b038085166001600160a01b031992831617909255610192805488841690831617905561019380548784169083161790556101948054928616929091169190911790558015610e79576000805461ff0019169055604051600181527f7f26b83ff96e1f2b6a682f133852f6798a09c465da95921460cefb38474024989060200160405180910390a15b5050505050565b60006001600160e01b03198216637965db0b60e01b148061042a57506301ffc9a760e01b6001600160e01b031983161461042a565b6105b98133611279565b610ec982826112d2565b600082815261012d602052604090206104559082611358565b610eec828261136d565b600082815261012d6020526040902061045590826113d4565b7f189ab7a9244df0848122154315af71fe140f3db0fe014031783b0946b8c9d2e36104d981610eb5565b7f4910fdfa16fed3260ed0e7147f7cc6da11a60208b5b9406d12a635614ffd91435460ff1615610f6257610455836113e9565b826001600160a01b03166352d1902d6040518163ffffffff1660e01b8152600401602060405180830381865afa925050508015610fbc575060408051601f3d908101601f19168201909252610fb991810190611cd8565b60015b61101f5760405162461bcd60e51b815260206004820152602e60248201527f45524331393637557067726164653a206e657720696d706c656d656e7461746960448201526d6f6e206973206e6f74205555505360901b60648201526084016104c6565b600080516020611f53833981519152811461108e5760405162461bcd60e51b815260206004820152602960248201527f45524331393637557067726164653a20756e737570706f727465642070726f786044820152681a58589b195555525160ba1b60648201526084016104c6565b50610455838383611485565b6110a26114b0565b61015f805460ff191690557f5db9ee0a495bf2e6ff9c91a7834c1ba4fdd244a5e8aa4e537bd38aeae4b073aa335b6040516001600160a01b03909116815260200160405180910390a1565b61015f5460ff16156111345760405162461bcd60e51b815260206004820152601060248201526f14185d5cd8589b194e881c185d5cd95960821b60448201526064016104c6565b565b6002606554036111885760405162461bcd60e51b815260206004820152601f60248201527f5265656e7472616e637947756172643a207265656e7472616e742063616c6c0060448201526064016104c6565b6002606555565b6001606555565b61119e6110ed565b61015f805460ff191660011790557f62e78cea01bee320cd4e420270b5ea74000d11b0c9f74754ebdbfc544b05a2586110d03390565b600061098483836114fa565b600061042a825490565b600054610100900460ff166111345760405162461bcd60e51b81526004016104c690611dcd565b600054610100900460ff166112385760405162461bcd60e51b81526004016104c690611dcd565b611134611524565b600054610100900460ff166112675760405162461bcd60e51b81526004016104c690611dcd565b611134611558565b6104d98282610ebf565b611283828261098b565b6104d9576112908161157f565b61129b836020611591565b6040516020016112ac929190611e18565b60408051601f198184030181529082905262461bcd60e51b82526104c691600401611e8d565b6112dc828261098b565b6104d957600082815260fb602090815260408083206001600160a01b03851684529091529020805460ff191660011790556113143390565b6001600160a01b0316816001600160a01b0316837f2f8788117e7eff1d82e926ec794901d17c78024a50270940304540a733656f0d60405160405180910390a45050565b6000610984836001600160a01b03841661172d565b611377828261098b565b156104d957600082815260fb602090815260408083206001600160a01b0385168085529252808320805460ff1916905551339285917ff6391f5c32d9c69d2a47ea670b442974b53935d1edc7fd64eb21e047a839171b9190a45050565b6000610984836001600160a01b03841661177c565b6001600160a01b0381163b6114565760405162461bcd60e51b815260206004820152602d60248201527f455243313936373a206e657720696d706c656d656e746174696f6e206973206e60448201526c1bdd08184818dbdb9d1c9858dd609a1b60648201526084016104c6565b600080516020611f5383398151915280546001600160a01b0319166001600160a01b0392909216919091179055565b61148e8361186f565b60008251118061149b5750805b15610455576114aa83836118af565b50505050565b61015f5460ff166111345760405162461bcd60e51b815260206004820152601460248201527314185d5cd8589b194e881b9bdd081c185d5cd95960621b60448201526064016104c6565b600082600001828154811061151157611511611ea0565b9060005260206000200154905092915050565b600054610100900460ff1661154b5760405162461bcd60e51b81526004016104c690611dcd565b61015f805460ff19169055565b600054610100900460ff1661118f5760405162461bcd60e51b81526004016104c690611dcd565b606061042a6001600160a01b03831660145b606060006115a0836002611ecc565b6115ab906002611ee3565b67ffffffffffffffff8111156115c3576115c3611a87565b6040519080825280601f01601f1916602001820160405280156115ed576020820181803683370190505b509050600360fc1b8160008151811061160857611608611ea0565b60200101906001600160f81b031916908160001a905350600f60fb1b8160018151811061163757611637611ea0565b60200101906001600160f81b031916908160001a905350600061165b846002611ecc565b611666906001611ee3565b90505b60018111156116de576f181899199a1a9b1b9c1cb0b131b232b360811b85600f166010811061169a5761169a611ea0565b1a60f81b8282815181106116b0576116b0611ea0565b60200101906001600160f81b031916908160001a90535060049490941c936116d781611ef6565b9050611669565b5083156109845760405162461bcd60e51b815260206004820181905260248201527f537472696e67733a20686578206c656e67746820696e73756666696369656e7460448201526064016104c6565b60008181526001830160205260408120546117745750815460018181018455600084815260208082209093018490558454848252828601909352604090209190915561042a565b50600061042a565b600081815260018301602052604081205480156118655760006117a0600183611f0d565b85549091506000906117b490600190611f0d565b90508181146118195760008660000182815481106117d4576117d4611ea0565b90600052602060002001549050808760000184815481106117f7576117f7611ea0565b6000918252602080832090910192909255918252600188019052604090208390555b855486908061182a5761182a611f20565b60019003818190600052602060002001600090559055856001016000868152602001908152602001600020600090556001935050505061042a565b600091505061042a565b611878816113e9565b6040516001600160a01b038216907fbc7cd75a20ee27fd9adebab32041f755214dbc6bffa90cc0225b39da2e5c2d3b90600090a250565b60606001600160a01b0383163b6119175760405162461bcd60e51b815260206004820152602660248201527f416464726573733a2064656c65676174652063616c6c20746f206e6f6e2d636f6044820152651b9d1c9858dd60d21b60648201526084016104c6565b600080846001600160a01b0316846040516119329190611f36565b600060405180830381855af49150503d806000811461196d576040519150601f19603f3d011682016040523d82523d6000602084013e611972565b606091505b509150915061199a8282604051806060016040528060278152602001611f73602791396119a3565b95945050505050565b606083156119b2575081610984565b61098483838151156119c75781518083602001fd5b8060405162461bcd60e51b81526004016104c69190611e8d565b6000602082840312156119f357600080fd5b81356001600160e01b03198116811461098457600080fd5b600060208284031215611a1d57600080fd5b5035919050565b80356001600160a01b0381168114611a3b57600080fd5b919050565b60008060408385031215611a5357600080fd5b82359150611a6360208401611a24565b90509250929050565b600060208284031215611a7e57600080fd5b61098482611a24565b634e487b7160e01b600052604160045260246000fd5b600067ffffffffffffffff80841115611ab857611ab8611a87565b604051601f8501601f19908116603f01168101908282118183101715611ae057611ae0611a87565b81604052809350858152868686011115611af957600080fd5b858560208301376000602087830101525050509392505050565b60008060408385031215611b2657600080fd5b611b2f83611a24565b9150602083013567ffffffffffffffff811115611b4b57600080fd5b8301601f81018513611b5c57600080fd5b611b6b85823560208401611a9d565b9150509250929050565b60008060408385031215611b8857600080fd5b82359150602083013567ffffffffffffffff811115611b4b57600080fd5b60008060408385031215611bb957600080fd5b50508035926020909101359150565b60008060008060808587031215611bde57600080fd5b611be785611a24565b9350611bf560208601611a24565b9250611c0360408601611a24565b9150611c1160608601611a24565b905092959194509250565b6020808252602c908201527f46756e6374696f6e206d7573742062652063616c6c6564207468726f7567682060408201526b19195b1959d85d1958d85b1b60a21b606082015260800190565b6020808252602c908201527f46756e6374696f6e206d7573742062652063616c6c6564207468726f7567682060408201526b6163746976652070726f787960a01b606082015260800190565b60008060408385031215611cc757600080fd5b505080516020909101519092909150565b600060208284031215611cea57600080fd5b5051919050565b60005b83811015611d0c578181015183820152602001611cf4565b50506000910152565b60008151808452611d2d816020860160208601611cf1565b601f01601f19169290920160200192915050565b60018060a01b038616815284602082015283604082015282606082015260a060808201526000611d7460a0830184611d15565b979650505050505050565b6001600160a01b0383168152604060208201819052600090611da390830184611d15565b949350505050565b600060208284031215611dbd57600080fd5b8151801515811461098457600080fd5b6020808252602b908201527f496e697469616c697a61626c653a20636f6e7472616374206973206e6f74206960408201526a6e697469616c697a696e6760a81b606082015260800190565b7f416363657373436f6e74726f6c3a206163636f756e7420000000000000000000815260008351611e50816017850160208801611cf1565b7001034b99036b4b9b9b4b733903937b6329607d1b6017918401918201528351611e81816028840160208801611cf1565b01602801949350505050565b6020815260006109846020830184611d15565b634e487b7160e01b600052603260045260246000fd5b634e487b7160e01b600052601160045260246000fd5b808202811582820484141761042a5761042a611eb6565b8082018082111561042a5761042a611eb6565b600081611f0557611f05611eb6565b506000190190565b8181038181111561042a5761042a611eb6565b634e487b7160e01b600052603160045260246000fd5b60008251611f48818460208701611cf1565b919091019291505056fe360894a13ba1a3210667c828492db98dca3e2076cc3735a920a3ca505d382bbc416464726573733a206c6f772d6c6576656c2064656c65676174652063616c6c206661696c6564a26469706673582212205bb37d22855e01f6290ee78093da4f9198d3a3ef8d8b26b71614429a665a950464736f6c63430008120033",
  "linkReferences": {},
  "deployedLinkReferences": {}
}